:020000040800F2
:100000000000022019540008D14C0008D74C000809
:10001000DD4C0008E34C0008E94C0008000000003B
:10002000000000000000000000000000EF4C00088D
:10003000FD4C0008000000000B4D0008194D0008A1
:10004000695400086954000869540008695400089C
:10005000695400086954000869540008695400088C
:10006000294D0008374D0008454D00086D4D00082A
:10007000695400086954000869540008695400086C
:10008000695400086954000869540008695400085C
:10009000695400086954000869540008695400084C
:1000A00069540008814D000869540008695400082B
:1000B0006954000869540008954D00086954000807
:1000C000695400086954000869540008695400081C
:1000D000695400086954000869540008695400080C
:1000E000A94D0008695400086954000869540008C3
:1000F00069540008695400086954000869540008EC
:1001000069540008695400086954000869540008DB
:1001100069540008D14D0008E54D0008054E00085F
:1001200069540008695400086954000869540008BB
:1001300069540008695400086954000869540008AB
:10014000695400086954000869540008695400089B
:10015000695400086954000869540008695400088B
:10016000695400086954000869540008695400087B
:10017000695400086954000869540008695400086B
:10018000695400086954000869540008695400085B
:100190006954000800000000695400086954000810
:1001A000695400086954000869540008695400083B
:1001B000695400086954000869540008695400082B
:1001C000695400086954000869540008695400081B
:0801D00069540008695400089D
:1001D80010B5054C237833B9044B13B10448AFF379
:1001E80000800123237010BDC4010020000000001E
:1001F80044E2000808B5034B1BB103490348AFF3B9
:10020800008008BD00000000C801002044E200088A
:1002180081F0004102E000BF83F0004330B54FEAAF
:1002280041044FEA430594EA050F08BF90EA020F1C
:100238001FBF54EA000C55EA020C7FEA645C7FEAAF
:10024800655C00F0E2804FEA5454D4EB5555B8BFD2
:100258006D420CDD2C4480EA020281EA030382EA43
:10026800000083EA010180EA020281EA0303362DD5
:1002780088BF30BD11F0004F4FEA01314FF4801CA8
:100288004CEA113102D0404261EB410113F0004FBA
:100298004FEA03334CEA133302D0524263EB430371
:1002A80094EA050F00F0A780A4F10104D5F1200E0F
:1002B8000DDB02FA0EFC22FA05F2801841F100016A
:1002C80003FA0EF2801843FA05F359410EE0A5F13E
:1002D80020050EF1200E012A03FA0EFC28BF4CF06F
:1002E800020C43FA05F3C01851EBE37101F0004525
:1002F80007D54FF0000EDCF1000C7EEB00006EEB32
:100308000101B1F5801F1BD3B1F5001F0CD34908BB
:100318005FEA30004FEA3C0C04F101044FEA445212
:1003280012F5800F80F09A80BCF1004F08BF5FEA99
:10033800500C50F1000041EB045141EA050130BD79
:100348005FEA4C0C404141EB0101013C28BFB1F58B
:10035800801FE9D291F0000F04BF01460020B1FAD6
:1003680081F308BF2033A3F10B03B3F120020CDAA9
:100378000C3208DD02F1140CC2F10C0201FA0CF087
:1003880021FA02F10CE002F11402D8BFC2F1200CEC
:1003980001FA02F120FA0CFCDCBF41EA0C019040A2
:1003A800E41AA2BF01EB0451294330BD6FEA0404EB
:1003B8001F3C1CDA0C340EDC04F11404C4F12002D6
:1003C80020FA04F001FA02F340EA030021FA04F3E8
:1003D80045EA030130BDC4F10C04C4F1200220FA3F
:1003E80002F001FA04F340EA0300294630BD21FA7D
:1003F80004F0294630BD94F0000F83F4801306BF43
:1004080081F480110134013D4EE77FEA645C18BF36
:100418007FEA655C29D094EA050F08BF90EA020FCD
:1004280005D054EA000C04BF1946104630BD91EAC5
:10043800030F1EBF0021002030BD5FEA545C05D1C8
:100448004000494128BF41F0004130BD14F5800407
:100458003CBF01F5801130BD01F0004545F0FE417B
:1004680041F470014FF0000030BD7FEA645C1ABFB0
:10047800194610467FEA655C1CBF0B46024650EAE7
:10048800013406BF52EA033591EA030F41F4002113
:1004980030BD00BF90F0000F04BF0021704730B599
:1004A8004FF4806404F132044FF000054FF000016E
:1004B80050E700BF90F0000F04BF0021704730B52F
:1004C8004FF4806404F1320410F0004548BF404204
:1004D8004FF000013EE700BF42004FEAE2014FEA59
:1004E80031014FEA02701FBF12F07F4393F07F4F34
:1004F80081F06051704732F07F4208BF704793F037
:100508007F4F04BF41F40021704730B54FF4607449
:1005180001F0004521F000411CE700BF50EA01024C
:1005280008BF704730B54FF000050AE050EA0102F5
:1005380008BF704730B511F0004502D5404261EB65
:1005480041014FF4806404F132045FEA915C3FF4A6
:10055800D8AE4FF003025FEADC0C18BF03325FEA43
:10056800DC0C18BF033202EBDC02C2F1200300FAF4
:1005780003FC20FA02F001FA03FE40EA0E0021FA19
:1005880002F11444BDE600BF70B54FF0FF0C4CF407
:10059800E06C1CEA11541DBF1CEA135594EA0C0FB9
:1005A80095EA0C0F00F0DEF82C4481EA030621EAF4
:1005B8004C5123EA4C5350EA013518BF52EA03352F
:1005C80041F4801143F4801338D0A0FB02CE4FF0E1
:1005D8000005E1FB02E506F00042E0FB03E54FF011
:1005E8000006E1FB03569CF0000F18BF4EF0010E09
:1005F800A4F1FF04B6F5007F64F5407404D25FEA05
:100608004E0E6D4146EB060642EAC62141EA5551B7
:100618004FEAC52040EA5E504FEACE2EB4F1FD0CF9
:1006280088BFBCF5E06F1ED8BEF1004F08BF5FEA77
:10063800500E50F1000041EB045170BD06F0004629
:1006480046EA010140EA020081EA0301B4EB5C04D6
:10065800C2BFD4EB0C0541EA045170BD41F48011CE
:100668004FF0000E013C00F3AB8014F1360FDEBFF3
:10067800002001F0004170BDC4F10004203C35DACF
:100688000C341BDC04F11404C4F1200500FA05F352
:1006980020FA04F001FA05F240EA020001F00042F3
:1006A80021F0004110EBD37021FA04F642EB060169
:1006B8005EEA430E08BF20EAD37070BDC4F10C0493
:1006C800C4F1200500FA04F320FA05F001FA04F257
:1006D80040EA020001F0004110EBD37041F1000143
:1006E8005EEA430E08BF20EAD37070BDC4F120054E
:1006F80000FA05F24EEA020E20FA04F301FA05F2B6
:1007080043EA020321FA04F001F0004121FA04F25D
:1007180020EA020000EBD3705EEA430E08BF20EA2D
:10072800D37070BD94F0000F0FD101F00046400067
:1007380041EB010111F4801F08BF013CF7D041EAE9
:10074800060195F0000F18BF704703F000465200ED
:1007580043EB030313F4801F08BF013DF7D043EABE
:100768000603704794EA0C0F0CEA135518BF95EA74
:100778000C0F0CD050EA410618BF52EA4306D1D1FB
:1007880081EA030101F000414FF0000070BD50EA1A
:10079800410606BF1046194652EA430619D094EAA4
:1007A8000C0F02D150EA013613D195EA0C0F05D18E
:1007B80052EA03361CBF104619460AD181EA0301E2
:1007C80001F0004141F0FE4141F470014FF000009A
:1007D80070BD41F0FE4141F4780170BD70B54FF035
:1007E800FF0C4CF4E06C1CEA11541DBF1CEA1355B5
:1007F80094EA0C0F95EA0C0F00F0A7F8A4EB050497
:1008080081EA030E52EA03354FEA013100F088808D
:100818004FEA03334FF0805545EA131343EA126356
:100828004FEA022245EA111545EA10654FEA00260B
:100838000EF000419D4208BF964244F1FD0404F5C4
:10084800407402D25B084FEA3202B61A65EB030520
:100858005B084FEA32024FF480104FF4002CB6EBDD
:10086800020E75EB030E22BFB61A754640EA0C005D
:100878005B084FEA3202B6EB020E75EB030E22BF9D
:10088800B61A754640EA5C005B084FEA3202B6EBDE
:10089800020E75EB030E22BFB61A754640EA9C009D
:1008A8005B084FEA3202B6EB020E75EB030E22BF6D
:1008B800B61A754640EADC0055EA060E18D04FEA2B
:1008C800051545EA16754FEA06164FEAC30343EACB
:1008D80052734FEAC2025FEA1C1CC0D111F4801F98
:1008E8000BD141EA00014FF000004FF0004CB6E791
:1008F80011F4801F04BF01430020B4F1FD0C88BF30
:10090800BCF5E06F3FF6AFAEB5EB030C04BFB6EB3A
:10091800020C5FEA500C50F1000041EB045170BD2D
:100928000EF0004E4EEA113114EB5C04C2BFD4EB5A
:100938000C0541EA045170BD41F480114FF0000EDE
:10094800013C90E645EA060E8DE60CEA135594EA5A
:100958000C0F08BF95EA0C0F3FF43BAF94EA0C0F5D
:100968000AD150EA01347FF434AF95EA0C0F7FF4D2
:1009780025AF104619462CE795EA0C0F06D152EA26
:1009880003353FF4FDAE1046194622E750EA41060A
:1009980018BF52EA43067FF4C5AE50EA41047FF41B
:1009A8000DAF52EA43057FF4EBAE12E74FEA41027E
:1009B800B2F1E04324BFB3F5001CDCF1FE5C0DD9B5
:1009C80001F0004C4FEAC0024CEA5070B2F1004FFF
:1009D80040EB830008BF20F00100704711F0804F02
:1009E80021D113F13872BCBF01F00040704741F4C7
:1009F80080114FEA5252C2F11802C2F1200C10FACB
:100A08000CF320FA02F018BF40F001004FEAC123AE
:100A18004FEAD32303FA0CFC40EA0C0023FA02F352
:100A28004FEA4303CCE77FEA625307D150EA013328
:100A38001EBF4FF0FE4040F44000704701F00040F8
:100A480040F0FE4040F40000704700BF53B94AB977
:100A5800002908BF00281CBF4FF0FF314FF0FF30BE
:100A680000F074B9ADF1080C6DE904CE00F006F899
:100A7800DDF804E0DDE9022304B070472DE9F04712
:100A8800089D04468E46002B4DD18A42944669D96A
:100A9800B2FA82F252B101FA02F3C2F1200120FA4D
:100AA80001F10CFA02FC41EA030E94404FEA1C489B
:100AB800210CBEFBF8F61FFA8CF708FB16E341EA97
:100AC800034306FB07F199420AD91CEB030306F11D
:100AD800FF3080F01F81994240F21C81023E63443E
:100AE8005B1AA4B2B3FBF8F008FB103344EA0344E2
:100AF80000FB07F7A7420AD91CEB040400F1FF33F7
:100B080080F00A81A74240F207816444023840EA33
:100B18000640E41B00261DB1D4400023C5E900436C
:100B28003146BDE8F0878B4209D9002D00F0EF80EF
:100B38000026C5E9000130463146BDE8F087B3FA22
:100B480083F6002E4AD18B4202D3824200F2F9800A
:100B5800841A61EB030301209E46002DE0D0C5E90D
:100B6800004EDDE702B9FFDEB2FA82F2002A40F059
:100B78009280A1EB0C014FEA1C471FFA8CFE01265C
:100B8800200CB1FBF7F307FB131140EA01410EFB00
:100B980003F0884208D91CEB010103F1FF3802D2A7
:100BA800884200F2CB804346091AA4B2B1FBF7F0A1
:100BB80007FB101144EA01440EFB00FEA64508D9C4
:100BC8001CEB040400F1FF3102D2A64500F2BB8001
:100BD8000846A4EB0E0440EA03409CE7C6F1200750
:100BE800B34022FA07FC4CEA030C20FA07F401FA96
:100BF80006F31C43F9404FEA1C4900FA06F3B1FB1F
:100C0800F9F8200C1FFA8CFE09FB181140EA014183
:100C180008FB0EF0884202FA06F20BD91CEB010120
:100C280008F1FF3A80F08880884240F28580A8F178
:100C380002086144091AA4B2B1FBF9F009FB1011CA
:100C480044EA014100FB0EFE8E4508D91CEB010168
:100C580000F1FF346CD28E456AD90238614440EA0B
:100C68000840A0FB0294A1EB0E01A142C846A6468B
:100C780056D353D05DB1B3EB080261EB0E0101FA14
:100C880007F722FA06F3F1401F43C5E90071002671
:100C98003146BDE8F087C2F12003D8400CFA02FCC7
:100CA80021FA03F3914001434FEA1C471FFA8CFED7
:100CB800B3FBF7F007FB10360B0C43EA064300FBC7
:100CC8000EF69E4204FA02F408D91CEB030300F165
:100CD800FF382FD29E422DD9023863449B1B89B21C
:100CE800B3FBF7F607FB163341EA034106FB0EF3A5
:100CF8008B4208D91CEB010106F1FF3816D28B4252
:100D080014D9023E6144C91A46EA004638E72E461D
:100D1800284605E70646E3E61846F8E64B45A9D215
:100D2800B9EB020864EB0C0E0138A3E74646EAE784
:100D3800204694E74046D1E7D0467BE7023B614432
:100D480032E7304609E76444023842E7704700BF9B
:100D580080B586B000AF0346FB71FB79013B072BDA
:100D680000F2D88001A252F823F000BF950D0008C8
:100D7800D50D0008150E0008550E0008930E000842
:100D8800B50E0008E70E0008FB0E00084FF0000340
:100D98003B61674BD3ED006A664B93ED297A654B4F
:100DA800D3ED2A7A27EE277AC6EE877AC7ED037A3B
:100DB800614B93ED017AD7ED037A67EE277A97EDC9
:100DC800047A77EE277AC7ED057AA3E04FF000039F
:100DD8003B61574BD3ED006A564B93ED417A554B27
:100DE800D3ED427A27EE277AC6EE877AC7ED037AE3
:100DF800524B93ED017AD7ED037A67EE277A97ED98
:100E0800047A77EE277AC7ED057A83E04FF000037E
:100E18003B61474BD3ED006A464B93ED477A454B10
:100E2800D3ED487A27EE277AC6EE877AC7ED037A9C
:100E3800434B93ED017AD7ED037A67EE277A97ED66
:100E4800047A77EE277AC7ED057A63E04FF000035E
:100E58003B61374BD3ED006A364B93ED477A354B00
:100E6800D3ED487A27EE277AC6EE877AC7ED037A5C
:100E7800344B1B8807EE903AF8EEE77A97ED047A40
:100E880077EE277AC7ED057A44E02F4B1B78C3F33A
:100E98000003DBB21A4640F6AC5302FB03F307EE3D
:100EA800903AF8EEE77AC7ED057A33E0274BD3EDB1
:100EB800007AFCEEE77A17EE903A9BB21846FFF7F5
:100EC800F9FA19A3D3E90023FFF75EFB02460B46A4
:100ED80010461946FFF76AFD03467B611AE01C4B72
:100EE8001B689BB207EE903AF8EE677AC7ED057A71
:100EF80010E0184B1B78C3F38003DBB21A4640F6A8
:100F0800AC5302FB03F307EE903AF8EEE77AC7ED2D
:100F1800057A00BFD7ED057AFCEEE77A17EE903A2E
:100F280018461837BD4680BD9A9999999999B93F3D
:100F38004C0400209C02002070040020580400206B
:100F480064040020CC0400204C0500200000002090
:100F5800680200203805002080B500AF124B082237
:100F68001A70124B05221A700F4B1B781846FFF7A0
:100F7800EFFE03460E4A13600C4B1B781846FFF72A
:100F8800E7FE03460B4A1360094B1B680022002149
:100F9800094806F053F8074B1B6800221021064841
:100FA80006F04CF800BF80BDE0010020E101002000
:100FB800D8040020DC0400201008002080B487B08A
:100FC80000AF78600B467B8041F22103FB81002350
:100FD800FB820023BB8225E0BB8A7A6813441B7816
:100FE8009BB21B029AB2FB8A5340FB8200233B61EF
:100FF80012E0B7F91630002B08DAFB8A5B001AB248
:10100800B7F90E3053401BB2FB8202E0FB8A5B004B
:10101800FB823B6901333B613B69072BE9DDBB8AF6
:101028000133BB82BA8A7B889A42D5D3FB8A184699
:101038001C37BD465DF8047B7047000080B588B05A
:1010480004AF78600B467B804FF4967302937B88DD
:1010580001937B68009302230022A021194808F01D
:10106800FDF80346002B07D0174A137843F04003D6
:1010780013700C2002F09AFE7B8819467868FFF7F7
:101088009DFF0346FB814FF496730293022301935D
:1010980007F10E03009302234FF47A72A021094846
:1010A80008F0DCF80346002B07D0074A137843F012
:1010B800400313700C2002F079FE00BF1037BD46C4
:1010C80080BD00BF280900203805002080B588B001
:1010D80004AF78600B467B80C8230A22A0212748EA
:1010E80008F0EAFA0346002B19D14FF496730293DD
:1010F8007B8801937B68009302230022A0211F486C
:1011080008F0C0F90346002B09D01D4A137843F0B4
:10111800400313700C2002F049FE002329E04FF42D
:10112800967302930223019307F10C0300930223A1
:101138004FF47A72A021114808F0A4F90346002B55
:1011480009D00F4A137843F0400313700C2002F0C3
:101158002DFE00230DE07B8819467868FFF72EFFE7
:101168000346FB81BB89FA899A4201D1012300E039
:10117800002318461037BD4680BD00BF280900204F
:101188003805002080B500AF4FF4D8710F48FFF73D
:101198009DFF0346002B16D101F006F80C4B1B7877
:1011A80003F04003DBB2002B03D10C2002F01AFE3F
:1011B80009E0074B1B7803F04003DBB2002B02D099
:1011C8000C2002F0F3FD00BF80BD00BF9C02002090
:1011D8003805002080B500AF4FF4D8710248FFF7FA
:1011E8002DFF00BF80BD00BF9C02002080B400AF6F
:1011F80000231846BD465DF8047B704780B483B071
:1012080000AF1D4B00221A601B4B00225A601A4B7C
:1012180000229A60184B0022DA6000237B6017E0F6
:10122800154B1B687A689200144931F81220134450
:10123800114A1360104B9B687A68920002320F497A
:1012480031F8122013440C4A93607B6801337B60A9
:101258007B68032BE4DD084B1B689B08084A136076
:10126800054B9B689B08064A936000BF0C37BD4638
:101278005DF8047B704700BF3C020020E4010020B9
:101288006802002080B483B000AF1D4B00221A61B1
:101298001B4B00225A611A4B00229A61184B0022FC
:1012A800DA6100237B6017E0154B1B697A689200AE
:1012B800144931F812201344114A1361104BDB69A9
:1012C8007A68920003320F4931F8122013440C4A0D
:1012D800D3617B6801337B607B68032BE4DD084BBB
:1012E8001B699B08084A1361054BDB699B08064A82
:1012F800D36100BF0C37BD465DF8047B704700BF63
:101308003C020020040200206802002080B483B060
:1013180000AF1A4B00221A62184B00225A620023AF
:101328007B6017E0154B1B6A7A685200144931F844
:1013380012201344114A1362104B5B6A7A685200F8
:1013480001320F4931F8122013440C4A53627B686A
:1013580001337B607B68032BE4DD084B1B6A9B0829
:10136800084A1362054B5B6A9B08064A536200BF32
:101378000C37BD465DF8047B704700BF3C02002077
:10138800240200206802002080B483B000AF104B14
:1013980000229A6200237B600BE00D4B9B6A0D498B
:1013A8007A6831F812201344094A93627B68013342
:1013B8007B607B68032BF0DD054B9B6A9B08064A24
:1013C800936200BF0C37BD465DF8047B704700BFD1
:1013D8003C020020340200206802002080B489B05A
:1013E80000AF87ED010A9FED2F7AD7ED017AF4EE71
:1013F800C77AF1EE10FA01DB2B4B49E00023FB61C1
:1014080002E0FB690133FB61284AFB699B00134436
:10141800D3ED007A97ED017AB4EEE77AF1EE10FA9F
:10142800EFD4FB69013B214A9B0013441B68BB6155
:101438001E4AFB699B0013441B687B61FB69013BE7
:101448001B4A9B0013441B683B61194AFB699B00BC
:1014580013441B68FB6097ED017AD7ED067A37EEE7
:10146800677AD7ED036AD7ED047A76EEE77A67EE06
:10147800276A97ED057AD7ED067A37EE677AC6EED2
:10148800877A97ED047A77EE277AC7ED027ABB68F8
:1014980007EE903AB0EE670A2437BD465DF8047B44
:1014A800704700BF00401C460000C841B8E400086F
:1014B8005CE2000880B485B000AF87ED010A9FEDBB
:1014C800177AD7ED017AF4EEC77AF1EE10FA02D85E
:1014D8004FF0000319E00023FB6002E0FB680133D2
:1014E800FB600F4AFB689B001344D3ED007A97ED2D
:1014F800017AB4EEE77AF1EE10FAEFDA094AFB68FE
:101508009B0013441B68BB60BB6807EE903AB0EEC3
:10151800670A1437BD465DF8047B70476DE713C052
:1015280014E70008A8E8000880B582B000AF802161
:101538002A4806F031FC03461A46294B1A70402106
:10154800264806F029FC03461A46254B5A702021E6
:10155800224806F021FC03461A46214B9A701021B6
:101568001E4806F019FC03461A461D4BDA7008217E
:101578001A4806F011FC03461A46194B1A71012144
:10158800164806F009FC03461A46154B5A71144BC7
:101598001B785B011AB2124B5B781B011BB2134319
:1015A8001AB20F4B9B78DB001BB213431AB20C4BD9
:1015B800DB789B001BB213431AB2094B1B795B0003
:1015C8001BB213431AB2064B5B791BB213431BB20F
:1015D800FB80FB8818460837BD4680BD000C0048D4
:1015E8009402002080B500AF464B1B78002B18D121
:1015F800454B1B88002B14D1444B1B7803F0010387
:10160800DBB2002B0DD100F021F93F4B01221A80EB
:101618003F4B01221A70012210213E4806F0D4FBEC
:1016280027E0384B1B78002B10D1374B1B88012B38
:101638000CD1364B1B7803F00103DBB2002B05D12C
:1016480001221021334806F0BFFB12E000F008F930
:101658002F4B00221A70002210212E4806F0B4FBEE
:101668002D4B1B88002B04D100221021294806F09D
:10167800ABFB2A4B1B78002B18D1274B1B88002B60
:1016880014D1224B1B7803F00103DBB2002B0DD1E0
:1016980000F04EF8204B01221A80214B01221A70CB
:1016A800012210211B4806F08FFB1FE01B4B1B7803
:1016B800002B10D1184B1B88012B0CD1134B1B7816
:1016C80003F00103DBB2002B05D1012210211148E0
:1016D80006F07AFB0AE000F05BF80B4B1B88002B46
:1016E80004D1002210210B4806F06EFB0D4B40F28E
:1016F80052321A820C4B05221A820C4B05221A828E
:1017080000BF80BD2C050020180500204C050020D6
:10171800D3040020000400481A0500202D050020ED
:10172800D20400207C05002050050020A8050020D8
:1017380080B500AF114B01221A70114B114A5A6043
:101748000F4B4FF000021A604FF460110E4807F07B
:101758004EF80E4B4FF4FA72C3F890210B4B4FF42E
:10176800FA72C3F81022094B4FF4FA72C3F89022A8
:10177800F021054806F0E1FF00BF80BDD404002039
:10178800B006002000002F452C080020006801400A
:1017980080B500AF234B00221A70234A13786FF3E9
:1017A800C3031370214A13786FF341031370204B5E
:1017B80000221A701F4B204A5A601E4B4FF000023D
:1017C8001A60F0211D4806F0E5FF1D4B00221A8023
:1017D800184BD3ED007AB7EE007A77EE877A194B7B
:1017E800FCEEE77A17EE902AC3F81C22114BD3EDD2
:1017F800007A9FED157A77EE877A124BFCEEE77A3E
:1018080017EE902AC3F824220E4B0022C3F8902129
:101818000C4B0022C3F810220A4B0022C3F8902276
:1018280000BF80BDD2040020480500204C050020E0
:10183800D4040020B006002000002F452C0800200A
:101848001A0500200068014000D0844580B500AF2B
:101858000F21024806F071FF00BF80BD2C08002050
:1018680080B500AF0F21044806F094FF034B002217
:101878001A8000BF80BD00BF2C080020180500207A
:1018880080B500AF1D4BD3ED017AB0EE670A1C4856
:1018980001F0C0F91A4B5B88002B08D0194A13785D
:1018A80043F004031370032002F080FA07E0154A9E
:1018B80013786FF382031370032002F093FA124B2C
:1018C800D3ED017AB0EE670A104801F0EDF80F4B3E
:1018D8005B88002B08D00B4A137843F0020313707F
:1018E800022002F063FA07E0064A13786FF3410317
:1018F8001370022002F076FA00BF80BD8C0400202D
:10190800A805002030050020840400207C05002064
:1019180080B500AF2A4B5B88002B08D0294A137882
:1019280043F008031370112002F040FA07E0254A3B
:1019380013786FF3C3031370112002F053FA224B8C
:101948005B88002B08D01F4A137843F001031370FB
:101958000E2002F02BFA07E01A4A13786FF30003FF
:1019680013700E2002F03EFA184B5B88002B08D04B
:10197800144A137843F004031370102002F016FA87
:1019880007E0104A13786FF382031370102002F0F7
:1019980029FA0F4B5B88002B08D00A4A137843F0CA
:1019A800020313700F2002F001FA07E0054A1378CA
:1019B8006FF3410313700F2002F014FA00BF80BDCB
:1019C800D40500203C0500202C060020000600203D
:1019D8005806002080B500AFFFF710FCFFF752FC57
:1019E8005F4B9B6807EE903AF8EE677A9FED5D7A59
:1019F80067EE877A5C4BC3ED007A5B4B93ED007A18
:101A08005A4BD3ED2E7A27EE277A584BD3ED2D7A01
:101A180037EE277A554BD3ED307A67EE277A524B5B
:101A2800C3ED007A504B1B68514A1360504B93ED3D
:101A3800007A4E4BD3ED186A4D4B93ED016A4C4B2F
:101A4800D3ED007A76EE677A66EEA77A77EE277A94
:101A5800474BC3ED017A464B5B68434A5360404BA2
:101A68001B6907EE903AF8EE677A9FED3E7A67EECB
:101A7800877A404BC3ED007A3E4B93ED007A3B4B9F
:101A8800D3ED3A7A27EE277A384BD3ED397A37EE09
:101A9800277A364BD3ED3C7A67EE277A354BC3ED80
:101AA800007A344B1B68344A1360334B93ED007A49
:101AB8002E4BD3ED1B6A304B93ED016A2E4BD3EDC1
:101AC800007A76EE677A66EEA77A77EE277A2A4B5F
:101AD800C3ED017A284B5B68264A5360204B1B688C
:101AE80007EE903AF8EE677A9FED1E7A67EE877AEE
:101AF800224BC3ED007A214B93ED007A1B4BD3EDBB
:101B0800227A27EE277A194BD3ED217A37EE277AF6
:101B1800164BD3ED247A67EE277A184BC3ED007A7B
:101B2800164B1B68164A1360154B93ED007A0F4B42
:101B3800D3ED1A6A124B93ED016A114BD3ED007A7B
:101B480076EE677A66EEA77A77EE277A0C4BC3EDC6
:101B5800017A0B4B5B68094A536000BF80BD00BF28
:101B680068020020ED32533A7C0400209C020020D9
:101B7800E00400208C040020F004002084040020ED
:101B8800E80400200000000080B500AFFFF7BEFBAE
:101B9800FFF7FAFBB64B5B6A07EE903AF8EE677A06
:101BA8009FEDB47A67EE877AB34BC3ED007AB24BF8
:101BB8001B68B24A1360B14B93ED007AB04BD3ED7A
:101BC8001C6AAE4B93ED016AAC4BD3ED007A76EE0E
:101BD800677A66EEA77A77EE277AA84BC3ED017A83
:101BE800A64B5B68A44A5360A34B93ED017AA44BC0
:101BF800D3ED587A27EE277AA14BD3ED577A37EEF3
:101C0800277A9F4BD3ED5A7A67EE277A9A4BC3ED22
:101C1800017A994BD3ED017AB0EE670AFFF7DEFB44
:101C2800F0EE407A974BC3ED007A914B9B6A07EE32
:101C3800903AF8EE677A9FED8F7A67EE877A924B43
:101C4800C3ED007A904B1B68904A13608F4B93ED5D
:101C5800007A8B4BD3ED1D6A8C4B93ED016A8B4B4D
:101C6800D3ED007A76EE677A66EEA77A77EE277A72
:101C7800864BC3ED017A854B5B68834A5360824B80
:101C880093ED017A7E4BD3ED5E7A27EE277A7C4B73
:101C9800D3ED5D7A37EE277A794BD3ED607A67EE2C
:101CA800277A794BC3ED017A774B5B681846FEF7C4
:101CB80013FC6BA3D3E90023FEF790FD02460B4605
:101CC800104619464FF00002714BFEF75DFC0246C4
:101CD8000B4610461946FEF769FE03466D4A136027
:101CE8006C4BD3ED007A9FED6C7A77EEC77A17EEDE
:101CF800900AFEF7F1FB5CA3D3E90023FEF76EFD23
:101D080002460B4610461946FEF750FE0346634A44
:101D18001360624BD3ED007AB0EE670AFFF7CAFB97
:101D2800F0EE407A5E4BC3ED007A514B1B6A07EE2A
:101D3800903AF8EE677A9FED4F7A67EE877A594BBB
:101D4800C3ED007A574B1B68574A1360564B93ED07
:101D5800007A4B4BD3ED1F6A534B93ED016A524BFC
:101D6800D3ED007A76EE677A66EEA77A77EE277A71
:101D78004D4BC3ED017A4C4B5B684A4A5360494B63
:101D880093ED017A3E4BD3ED527A27EE277A3C4BFE
:101D9800D3ED517A37EE277A394BD3ED547A67EE83
:101DA800277A404BC3ED017A3E4BD3ED017AB0EE72
:101DB800670AFFF713FBF0EE407A3C4BC3ED007A5D
:101DC8002B4BDB6907EE903AF8EE677A9FED297A9C
:101DD80067EE877A364BC3ED007A354B1B68354A78
:101DE8001360344B93ED007A254BD3ED1E6A314BCB
:101DF80093ED016A2F4BD3ED007A76EE677A66EEA3
:101E0800A77A77EE277A2B4BC3ED017A294B5B68CB
:101E1800274A5360264B93ED017A194BD3ED4C7A40
:101E280027EE277A164BD3ED4B7A37EE277A144BE9
:101E3800D3ED4E7A67EE277A1D4BC3ED017A1C4B22
:101E4800D3ED017AB0EE670AFFF7C8FAF0EE407AF0
:101E5800194BC3ED007AFFF75BFD00BF80BD00BFE3
:101E68003BDF4F8D972E1640F6285C8FC2F5D83F82
:101E780068020020ED32533A94040020F804002050
:101E88009C020020BC0400209C04002000050020C7
:101E980000408F40B40400200000C842B80400206D
:101EA800C0040020A404002008050020C404002069
:101EB800AC04002010050020C804002080B400AF46
:101EC8002F4B1B88002B03D02D4B1B88042B0FD9BD
:101ED8002B4B1B880D2B03D9294B1B88112B07D99A
:101EE800274B1B881A2B07D9254B1B881E2B03D879
:101EF800244B0122DA613DE0214B1B88042B03D9D6
:101F08001F4B1B88082B0FD91D4B1B88112B03D97E
:101F18001B4B1B88152B07D9194B1B881E2B08D95F
:101F2800174B1B88222B04D8164B42F64542DA6120
:101F380020E0134B1B88082B03D9114B1B880D2B52
:101F48000FD90F4B1B88152B03D90D4B1B881A2B48
:101F580007D90B4B1B88222B08D9094B1B88272B29
:101F680004D8084B45F68A02DA6103E0054B0022E3
:101F7800DA6100BF00BFBD465DF8047B704700BF53
:101F88007E0900200068014080B400AF474B1B88E1
:101F9800002B13D0454B1B880D2B0FD8444B1B88A7
:101FA800A3F5FA6307EE903AB8EEE77ADFED416AF7
:101FB800C7EE267A404BC3ED007A2EE03B4B1B88D8
:101FC8000D2B13D9394B1B881A2B0FD83B4B1B8869
:101FD800A3F5FA6307EE903AB8EEE77ADFED356AD3
:101FE800C7EE267A344BC3ED007A16E02F4B1B88D8
:101FF8001A2B12D92D4B1B88272B0ED8304B1B8838
:10200800A3F5FA6307EE903AB8EEE77ADFED296AAE
:10201800C7EE267A284BC3ED007A2A4BD3F89430C2
:1020280007EE903AB8EE677A234BD3ED007A27EEA5
:10203800277A244BD3F8943007EE903AF8EE677A73
:1020480077EE277AB6EE007A67EE877AFCEEE77AC3
:1020580017EE903A9AB21B4BC3F8A820164BD3ED53
:10206800007AB1EE677A174BD3F8143107EE903A3D
:10207800F8EE677A27EE277A124BD3F8143107EE79
:10208800903AF8EE677A77EE277AB6EE007A67EE3E
:10209800877AFCEEE77A17EE903A9AB2094BC3F8C2
:1020A800282100BFBD465DF8047B70477E090020EB
:1020B800CC04002000007A4400000020CE04002058
:1020C800D00400200068014080B500AF2B4B0122EE
:1020D8009A622B4B1A68294B9B6A01334FF4FA61B9
:1020E80001FB03F3B2FBF3F39BB25A1E234BDA62F4
:1020F800244B00229A62224B1A68224B9B6A0133B6
:1021080041F2883101FB03F3B2FBF3F39BB25A1E91
:102118001C4BDA621C4BF9229A62194B19681A4B4C
:102128009B6A5A1C13469B001344DB00B1FBF3F374
:102138009BB25A1E144BDA62144809F035F8144859
:1021480009F032F8134809F02FF810221249134801
:1021580003F0F6FD0021124804F0AEFE10211048ED
:1021680004F0AAFE4FF47C110E4806F040FB00F084
:10217800EFFA00F0E5FA00BF80BD00BF0010004094
:10218800B80100200014004000080040340A002074
:10219800800A0020CC0A0020E40100204407002027
:1021A800100800202C08002080B400AF634B644A5C
:1021B8001A60624B634A9A60604BD3ED026A5F4BC8
:1021C800D3ED007A9FED607A27EE877AC6EE877A9C
:1021D8005A4BC3ED017A594B594ADA60574B5B4A5F
:1021E8001A62564BD3ED026A544B93ED037AC6EE4E
:1021F800877A524BC3ED047A504B554A5A624F4B7B
:10220800534ADA614D4B534A9A624C4B514ADA624F
:102218004A4B514A1A63494B504AC3F8B820474BB6
:102228004FF00002C3F8B420444B4FF07E52C3F87D
:10223800C020424B4A4AC3F8E820404B494AC3F8F9
:10224800E4203E4B93ED3E7A3C4BD3ED3D7A67EE6E
:10225800277A9FED457A67EE877A384BC3ED3B7A4C
:10226800364B4FF07E52C3F8F820344B4FF07E5275
:10227800C3F8F420314B3D4AC3F8F0202F4B3C4AB9
:10228800C3F888202D4B3B4AC3F884202B4B4FF0D2
:102298007E52C3F89020294B374AC3F86021274B58
:1022A8004FF00002C3F85C21244B4FF07E52C3F874
:1022B8006821224B4FF07E52C3F878211F4B4FF014
:1022C8000002C3F874211D4B4FF07E52C3F88021E1
:1022D8001A4B294AC3F84821184B4FF00002C3F89B
:1022E8004421164B4FF07E52C3F85021134B224A1B
:1022F800C3F83021114B4FF00002C3F82C210F4BCB
:102308004FF07E52C3F838210C4B1C4A1A670B4B0E
:102318001A4A5A67094B194ADA67084B174A9A67E3
:10232800064B174A1A66054B154A9A66034B144A18
:10233800DA6600BFBD465DF8047B70479C0200204A
:1023480000007A4400606A46A470DD3F00004842FD
:1023580000409C459A99993F00409C460000A04047
:1023680083C017418B6C11C1ED32533A0AD7233F12
:102378004841BA43C807BDBE00BC3C46CDCC4C3F23
:1023880052B87E3F80B500AF01F094FDFFF722FB05
:10239800FFF776FA00F0B6FD00F0B6FCFEF7DCFDBC
:1023A80000F00CF94D4B1B78012B1AD14C4B93EDD7
:1023B800007A4B4BD3ED017AB4EE677AF1EE10FA5E
:1023C8000FD1474BD3ED017AF5EEC07AF1EE10FA52
:1023D80007DD424B00221A70424A137843F0020389
:1023E8001370414B1B78012B24D19FED401ADFED70
:1023F8003F0A9FED3F0A3A4800F08BFD384BD3ED7A
:10240800007AB7EE007A77EE877A3A4BFCEEE77AF5
:1024180017EE902AC3F81C22314BD3ED007A9FEDBA
:10242800367A77EE877A334BFCEEE77A17EE902A06
:10243800C3F82422314B1B88012B49D1294B1B7827
:1024480003F00103DBB2002B42D12D4B1B78013383
:10245800DAB22B4B1A702A4B1B78632B02D9284B04
:1024680000221A70234BD3F81431264A1360244BE8
:102478001B78254A9B00134493ED007A234BD3ED38
:10248800007A67EE277AB7EE007A37EE877A1D4B27
:102498001B685B0807EE903AF8EE677A67EE277AD2
:1024A8001B4BC3ED007A1A4BD3ED007A114BFCEEAF
:1024B800E77A17EE902AC3F8A820154BD3ED007AD7
:1024C8000C4BFCEEE77A17EE902AC3F8282102E0BD
:1024D800FFF75AFD00BF00BF80BD00BFD404002035
:1024E800B00600204C050020D204002025C917445E
:1024F80000409C450068014000D084451805002034
:1025080024050020280500200800002004000020E1
:102518000000002080B500AF204B1B6801331F4A24
:1025280013601E4B1B6803F00103002B02D11C4BE8
:1025380001221A70194B19681A4BA3FB01239A0937
:1025480013469B0013441B01CA1A002A02D1164BDA
:1025580001221A70114B1A68144BA3FB0213DB09F2
:102568004FF4FA6101FB03F3D31A002B02D1104B8D
:1025780001221A70094B1A680E4BA3FB02135B0960
:10258800642101FB03F3D31A002B04D1FFF7FCFAF3
:10259800094B01221A7000BF80BD00BF54040020FF
:1025A80050040020CDCCCCCC51040020D34D621077
:1025B800520400201F85EB515304002080B500AF62
:1025C800424B1B78002B0AD101222021404805F0FC
:1025D800FBFB404B01221A70FFF704F860E03D4B0B
:1025E80000221A7000222021394805F0EDFB3A4BF1
:1025F8001B7803F00803DBB2002B13D0374B1B7892
:10260800002B0FD1364B1B78002B0BD1354B1B7889
:1026180003F00103DBB2002B04D1304B01221A7006
:10262800FFF786F82C4B1B7803F00103DBB2002B75
:1026380014D02B4B1B78002B10D12A4B1B7803F09E
:102648000203DBB2002B09D0264B1B7803F00103F1
:10265800DBB2002B02D100F04BF821E01E4B1B78B7
:1026680003F00103DBB2002B03D11D4B1B78012BB8
:1026780014D01C4B1B7803F00103DBB2002B0DD1E7
:10268800184B1B7803F00203DBB2002B08D0124B67
:102698001B7803F00803DBB2002B01D100F03CF8F3
:1026A800114B1B78002B0ED1104B1B6801330F4ABE
:1026B8001360094A137843F00203137000220821BB
:1026C800034805F081FB00BF80BD00BF2E05002038
:1026D800000400481C05002048050020D204002002
:1026E800D30400204C0500202F05002020050020E1
:1026F80080B500AF064B01221A70064B1B7803F019
:102708001003DBB2002B01D0FFF7A0F800BF80BD9B
:10271800D30400204805002080B500AF064A13788E
:102728006FF300031370054B00221A70FFF798F837
:10273800FFF72EF800BF80BD48050020D304002015
:1027480080B400AF00BFBD465DF8047B7047000051
:1027580080B400AF9E4B00221A809D4B00225A8005
:102768009B4B00229A809A4B0322DA80984B0022D6
:102778001A81974B0022DA60954B11221A82944BEA
:10278800944A5A61924B00221A83914B4FF00002EF
:10279800DA618F4B002283F828208D4B002283F8C2
:1027A80020208B4B012283F82120894B8A4A5A62C8
:1027B800874B41F288325A85884B00221A80874B12
:1027C80000225A80854B00229A80844B0322DA80AB
:1027D800824B00221A81814B0022DA607F4B112242
:1027E8001A827E4B7B4A5A617C4B00221A837B4BB0
:1027F8004FF00002DA61794B002283F82820774BEA
:10280800002283F82020754B012283F82120734B86
:10281800714A5A62714B41F288325A85704B0022D4
:102828001A806F4B00225A806D4B00229A806C4BA5
:102838000322DA806A4B00221A81694B0022DA608F
:10284800674B40F2A6421A82654B624A5A61644B52
:102858004FF461721A83624B5E4ADA61604B002260
:1028680083F828205E4B002283F820205C4B01224D
:1028780083F821205A4B584A5A62594B41F2883200
:102888005A85584B00221A80564B00225A80554BC5
:1028980000229A80534B0322DA80524B00221A817D
:1028A800504B00225A814F4B5A229A814D4B494A2C
:1028B8001A614C4B5F229A824A4B464A9A61494BAD
:1028C800032283F82420474B00221A77454B012224
:1028D8005A77444B404A1A62424B41F28832DA84B2
:1028E800414B00221A80404B00225A803E4B002266
:1028F8009A803D4B0322DA803B4B00221A813A4BE7
:102908000022DA60384B5A221A82374B374A5A610A
:10291800354B50221A83344B344ADA61324B002249
:1029280083F82820304B002283F820202E4B0122E8
:1029380083F821202C4B4FF47A725A622A4B2822B2
:102948005A852B4B00221A80294B00225A80284B8B
:1029580000229A80264B0322DA80254B00221A8116
:10296800234B0022DA60224B5A221A82204B1F4A3C
:102978005A611F4B50221A831D4B1C4ADA611C4BAB
:10298800002283F828201A4B002283F82020184BB5
:10299800012283F82120164B4FF47A725A62144BA5
:1029A80028225A85134B00221A80124B00225A8083
:1029B800104B00229A800F4B0322DA800D4B002225
:1029C8001A810C4B0022DA600A4B5A221A8213E051
:1029D800500500200AD7A33B80510100A80500201C
:1029E8007C05002084060020D405002000007A44DD
:1029F800000600202C060020284B294A5A61274B44
:102A080050221A83254B264ADA61244B002283F888
:102A18002820224B002283F82020204B012283F813
:102A280021201E4B4FF47A725A621C4B28225A8579
:102A38001C4B00221A801B4B00225A80194B002283
:102A48009A80184B0322DA80164B00221A81154B04
:102A58000022DA60134B5A221A82124B104A5A612A
:102A6800104B50221A830F4B0D4ADA610D4B00228E
:102A780083F828200B4B002283F82020094B0122E1
:102A880083F82120074B4FF47A725A62054B2822AB
:102A98005A8500BFBD465DF8047B70472C060020B0
:102AA80000007A445806002080B483B000AF7860F4
:102AB80087ED000A7B685B88012B33D07B681B8A13
:102AC80007EE903AF8EEE77A97ED007AB4EEE77AF7
:102AD800F1EE10FA06DD7B681B8801339AB27B6839
:102AE8001A8002E07B6800221A807B681B8807EE48
:102AF800903AB8EEE77A7B685B8D07EE903AF8EE8D
:102B0800E76A7B68D3ED057A66EEA77AB4EEE77AD2
:102B1800F1EE10FA48DD7B6800221A807B680122FA
:102B28005A8041E07B6893F82030002B3CD07B68CA
:102B38001B89002B38D17B681B8B07EE903AF8EE87
:102B4800E77A97ED007AB4EEE77AF1EE10FA06D557
:102B58007B689B8801339AB27B689A8002E07B6825
:102B680000229A807B689B8807EE903AB8EEE77A55
:102B78007B685B8D07EE903AF8EEE76A7B68D3EDE9
:102B8800077A66EEA77AB4EEE77AF1EE10FA0BDD73
:102B98007B6800229A807B6800225A807B68DB88E9
:102BA80001339AB27B68DA807B6893F82130002B76
:102BB8001CD07B68DB88002B18D07B68DB685A1C2C
:102BC8007B68DA607B68DA687B685B8D19467B68AE
:102BD8005B6A01FB03F39A4208D97B680022DA603A
:102BE8007B68DB88013B9AB27B68DA807B68DA888D
:102BF8007B6893F828309BB29A4205D97B680022FB
:102C0800DA807B6801221A8100BF0C37BD465DF867
:102C1800047B704780B483B000AF786087ED000A0A
:102C28007B685B88012B38D07B681B8A07EE903A5B
:102C3800F8EEE77A97ED007AB4EEE77AF1EE10FA5B
:102C480006DD7B681B8801339AB27B681A8002E034
:102C58007B6800221A807B681B8807EE903AB8EEE2
:102C6800E77A7B685B8D07EE903AF8EEE76A7B6857
:102C7800D3ED057A66EEA77AB4EEE77AF1EE10FAAC
:102C88000BDD7B6800221A807B6801225A807B68F2
:102C9800DB8801339AB27B68DA807B6893F821304D
:102CA800002B1CD07B68DB88002B18D07B68DB6886
:102CB8005A1C7B68DA607B68DA687B685B8D19462A
:102CC8007B685B6A01FB03F39A4208D97B680022A0
:102CD800DA607B68DB88013B9AB27B68DA807B68C4
:102CE800DA887B6893F828309BB29A4205D97B68CA
:102CF8000022DA807B6801221A8100BF0C37BD46AA
:102D08005DF8047B7047000080B400AF0F4B1B7860
:102D1800002B03D10E4B1B78002B11D00D4A1378D2
:102D280043F0010313700C4B1B780133DAB20A4BE2
:102D38001A70094B1B78FA2B02D9074B00221A701C
:102D480000BFBD465DF8047B704700BF300500201A
:102D5800400500204C050020AD06002080B500AFDE
:102D6800574A13786FF300031370564B00221A70FA
:102D7800554A13786FF341031370FFF7CDFC002217
:102D88000821524805F020F8514B1B78002B1CD025
:102D9800FFF7D6FC4E4B00221A70122001F022F8E1
:102DA800132001F01FF8142001F01CF8152001F081
:102DB80019F8162001F016F8172001F013F818205A
:102DC80001F010F8192001F00DF8424B1B7803F0C0
:102DD8000103DBB2002B05D03F4B00225A800120B3
:102DE80001F000F83B4B1B7803F00203DBB2002B29
:102DF80005D03A4B00225A80022000F0F3FF354BF1
:102E08001B7803F00403DBB2002B05D0344B0022FF
:102E18005A80032000F0E6FF324B1B7803F00203D0
:102E2800DBB2002B05D0304B00225A80052000F081
:102E3800D9FF2E4B1B7803F00803DBB2002B05D01B
:102E48002B4B00225A80112000F0CCFF274B1B7817
:102E580003F00103DBB2002B05D0264B00225A8079
:102E68000E2000F0BFFF214B1B7803F00403DBB2F8
:102E7800002B05D0204B00225A80102000F0B2FF12
:102E88001A4B1B7803F00203DBB2002B05D01B4B57
:102E980000225A800F2000F0A5FF194B1B7803F081
:102EA8000403DBB2002B09D0FFF74AFC144A13785D
:102EB8006FF382031370082000F094FF00BF80BDF9
:102EC8004C050020AC0600204805002000040048FE
:102ED8004005002030050020500500207C0500201A
:102EE800A805002034050020840600203C050020A9
:102EF800D40500202C0600200006002058060020DB
:102F08003805002080B400AF00BFBD465DF8047BE3
:102F1800704780B487B000AFF86087ED020AC7ED4C
:102F2800010A87ED001AD7ED016A97ED027AC6EE1D
:102F3800877AC7ED057AD7ED006A97ED027AC6EE73
:102F4800877AC7ED047AFB6893ED007AFB68D3EDC6
:102F5800016AD7ED057A77EEA77A76EEE77AB4EECE
:102F6800E77AF1EE10FA0AD8FB6893ED007AD7ED0C
:102F7800057A77EE277AFB68C3ED007A1FE0FB68D5
:102F880093ED007AFB68D3ED016AD7ED047A77EE0A
:102F9800A77A76EEA77AB4EEE77AF1EE10FA0ADBB2
:102FA800FB6893ED007AD7ED047A77EE677AFB68D1
:102FB800C3ED007A03E0FB685A68FB681A6000BF3B
:102FC8001C37BD465DF8047B7047000080B582B0B1
:102FD80000AF78607B681B68114A93421CD1114B83
:102FE80001221A70104B1B785A1CD1B20E4A11706C
:102FF8001A460E4B19780E4B99540B4B1B78182B0D
:1030080002D9094B00221A7001220849094808F020
:10301800EBFE094B00221A7000BF0837BD4680BD81
:1030280000500040EC060020EB060020EA060020D5
:10303800F0060020AC0B0020ED06002080B582B021
:1030480000AF78600B46FB707B6801331B78013B4F
:103058000F2B47D801A252F823F000BFA530000873
:10306800ED300008B1300008ED300008C930000824
:10307800BD300008ED300008ED300008ED300008E4
:10308800ED300008ED300008ED300008ED300008A4
:10309800ED300008D5300008E1300008FB7819460B
:1030A800786800F0B3F81DE0FB781946786800F0FE
:1030B8007DF917E0FB781946786800F02FFA11E0DF
:1030C800FB781946786800F0F7F90BE0FB781946A9
:1030D800786800F051FA05E0FB781946786800F046
:1030E800AFFA00BF00BF0837BD4680BD80B582B0CB
:1030F80000AF254B1B78012B41D1234B00221A70BE
:10310800224B1B7801331A46214922480BF080F8DC
:103118001E4B1B78FB711D4B00221A7019220021CF
:103128001B480BF083F8192200211B480BF07EF88E
:10313800FB79023BDBB21946164800F013FB034645
:10314800BB80FB79013B134AD35C1B021AB2FB79A3
:10315800023B1049CB5C1BB213431BB29AB20F4B14
:103168001A800E4B1B88BA889A4208D1094B1B78E3
:10317800012B04D1FB7919460648FFF75FFF00BF12
:103188000837BD4680BD00BFEE060020EB060020D4
:10319800F00600200C070020280700204207002026
:1031A80080B400AF0C4B1B78012B10D10B4B1B7854
:1031B8005A1CD1B2094A1170642B08D9064B002257
:1031C8001A70064B00221A70054B01221A7000BFB4
:1031D800BD465DF8047B7047EC060020ED06002034
:1031E800EE06002080B582B000AF78600B46FB7019
:1031F800FB789BB21A467968034808F061FD00BF66
:103208000837BD4680BD00BFAC0B00202DE9F04358
:1032180089B000AF78600B46FB706B461E467B6832
:1032280002331B781B021AB27B6803331B781BB26C
:1032380013431BB27B837B6804331B781B021AB2CF
:103248007B6805331B781BB213431BB23B83B7F96A
:103258001830184600F062FA0346FB82F98A0B46DA
:10326800013B3B618BB20022984691464FF0000229
:103278004FF000034FEAC90343EA58734FEAC80204
:103288008BB200221C4615464FF000024FF0000397
:10329800EB0043EA5473E2000B460733DB08DB001C
:1032A800ADEB030D6B460033FB600023BB770023B7
:1032B800FB777B681A783B4B1A707B685A78394BD6
:1032C8005A70FB8ADAB2374B9A7000237B7727E073
:1032D8007B7F03F00703DBB2002B07D17B7F002B3A
:1032E80004D0FB7F0133FB770023BB77FB7FFA68B1
:1032F800D35C5AB2798B7B7F0B442B49CB5C194644
:10330800BB7F01FA03F35BB213435AB2FB7FD1B21E
:10331800FA68D154BB7F0133BB777B7F01337B775E
:103328007B7F9BB23A8B9A42D2D80023BB7709E0C5
:10333800BA7FBB7F0333F968895C1A4AD154BB7FD3
:103348000133BB77FA7FBB7F9A42F1D2BB7F03334D
:10335800DBB21946134800F005FA03467B81BB7FB0
:1033680003337A89D1B20F4AD1547B891B0A9AB2A6
:10337800BB7F0433D1B20B4AD154BB7F0533DBB2D8
:1033880019460848FFF72EFFFB7FDB001A4600218D
:10339800F8680AF04BFFB54600BF2437BD46BDE8C4
:1033A800F08300BF28070020CC06002080B584B039
:1033B80000AF78600B46FB700023BB730023BB8112
:1033C80000237B817B6802331B781B021AB27B685F
:1033D80003331B781BB213431BB2BB817B680433D6
:1033E8001B781B021AB27B6805331B781BB2134388
:1033F8001BB27B817B681A782D4B1A707B685A78D0
:103408002B4B5A707B89DBB25B00DAB2284B9A707F
:103418000023FB731DE0BA89BB7B1344254A32F8AD
:1034280013301B0A9AB2FB7B0333D1B2204AD15422
:10343800BA89BB7B13441F4A32F81320FB7B043341
:10344800D1B21B4AD154BB7B0133BB73FB7B023324
:10345800FB73FA7B7B895B009A42DCDB7B89DBB2FE
:103468005B00DBB20333DBB21946114800F07AF98E
:1034780003463B813B891B0A9AB27B8902335B0076
:10348800D1B20B4AD1547B895B0003333A89D1B25C
:10349800074AD1547B89DBB25B00DBB20533DBB270
:1034A80019460348FFF79EFE00BF1037BD4680BD92
:1034B80028070020B806002080B584B000AF7860E7
:1034C8000B46FB707B6802331B781B021AB27B68C1
:1034D80003331B781BB213431BB2FB817B68043395
:1034E8001B781B021AB27B6805331B781BB2134387
:1034F8001BB2BB81FB89BA89002A14BF01220022B2
:10350800D1B2054AD154FB7819467868FFF76AFEAC
:1035180000BF1037BD4680BDCC06002080B584B002
:1035280000AF78600B46FB707B6802331B781B0288
:103538001AB27B6803331B781BB213431BB2FB819F
:103548007B6804331B781B021AB27B6805331B782F
:103558001BB213431BB2BB81FB890649BA8921F808
:103568001320FB7819467868FFF73CFE00BF103738
:10357800BD4680BDB806002080B584B000AF786035
:103588000B46FB707B6804331B781B021AB27B68FE
:1035980005331B781BB213431BB27B810023FB73DB
:1035A80028E0BB7B07331A467B6813441B7819460F
:1035B8007B7B012202FA03F301EA0302FB7B002A68
:1035C80014BF01220022D1B21B4AD1547B7B0133A4
:1035D8007B737B7B03F00703DBB2002B07D17B7B7C
:1035E800002B04D0BB7B0133BB7300237B73FB7BB5
:1035F8000133FB73FB7B9BB27A899A42D1D80622AE
:1036080079680E480AF004FE06210C4800F0AAF872
:1036180003463B813B89DAB2084B9A713B891B0A06
:103628009BB2DAB2054BDA7108210448FFF7DAFDDC
:1036380000BF1037BD4680BDCC06002028070020FB
:1036480080B584B000AF78600B46FB704FF48051B2
:103658002F4804F0D1FB0023BB737B6802331B782F
:103668001B021AB27B6803331B781BB213431BB2CD
:10367800BB817B6804331B781B021AB27B68053355
:103688001B781BB213431BB27B810023FB731DE025
:10369800BB7B07331A467B6813441B789BB21B021B
:1036A80099B2BB7B08331A467B6813441B789AB2DD
:1036B800B889FB7B03440A4391B2164A22F81310D7
:1036C800BB7B0233BB73FB7B0133FB73FB7B9BB27E
:1036D8007A899A42DCD8062279680F480AF098FD60
:1036E80006210D4800F03EF803463B813B89DAB2DB
:1036F800094B9A713B891B0A9BB2DAB2064BDA7105
:1037080008210548FFF76EFD00BF1037BD4680BD94
:10371800000C0048B80600202807002080B485B0B7
:1037280000AF0346FB800023FB730CE0FB88083BDB
:103738009BB2FB80FB7BDBB20133DBB2FB73B7F9D7
:103748000630002B04DBB7F90630002BEEDA00E078
:1037580000BFFB7BDBB218461437BD465DF8047B1F
:103768007047000080B487B000AF78600B46FB70EC
:103778004FF6FF73FB8200233B610023FB7300239A
:10378800BB6000233B6121E07A683B6913441B78E6
:103798009AB2FB8A5340FB820023FB7310E0FB8A3A
:1037A80003F00103BB60FB8A5B08FB820D4ABB6820
:1037B80032F81320FB8A5340FB82FB7B0133FB73F7
:1037C800FB7B072BEBD93B6901333B61FB783A69FB
:1037D8009A42D9D3FB8A18461C37BD465DF8047B4C
:1037E800704700BF3CEA000880B58CB000AF07F115
:1037F800240300221A605A609A603B1D202200218F
:1038080018460AF013FD384B4FF0A0421A60364BA9
:103818004FF440325A60344B00229A60324B0022F7
:10382800DA60314B00221A612F4B01225A612E4B6C
:1038380004229A612C4B00221A772B4B00225A77CC
:10384800294B02221A62284B002283F82420264B97
:103858000022DA62244B00221A63234B002283F8E9
:103868003820214B0022DA631F4B002283F84020C6
:103878001D4802F0A9F80346002B01D001F074F9A5
:1038880000237B6207F124031946174803F0DAF88E
:103898000346002B01D001F067F9144B7B60062327
:1038A800BB600023FB607F233B6104237B61002313
:1038B800BB613B1D19460C4802F034FB0346002B44
:1038C80001D001F051F90C23BB603B1D1946064895
:1038D80002F028FB0346002B01D001F045F900BF98
:1038E8003037BD4680BD00BF4407002002003004C9
:1038F80080B59EB000AF786007F1640300221A60BB
:103908005A609A60DA601A6107F1100354220021A4
:1039180018460AF08BFC7B681B68B3F1A04F5FD197
:103928004FF400433B614FF000537B6507F11003F0
:10393800184607F0E9F80346002B01D001F014F906
:10394800294BDB6C284A43F40053D364264BDB6CC9
:1039580003F40053FB60FB68234BDB6C224A43F003
:103968000103D364204BDB6C03F00103BB60BB682D
:1039780003237B660323BB660023FB6607F164030E
:1039880019464FF0904004F085F8184B184A1A6011
:10399800164B05225A60154B00229A60134B0022E1
:1039A800DA60124B80221A61104B4FF480725A6110
:1039B8000E4B4FF480629A610C4B0022DA610B4B7C
:1039C80000221A62094803F033FD0346002B01D098
:1039D80001F0CAF87B68054A5A65044A7B68936215
:1039E80000BF7837BD4680BD00100240B0070020F8
:1039F8000800024080B58CB000AF3B463022002161
:103A080018460AF013FC1B4B1B4A1A60194803F0AE
:103A180030FA0346002B01D001F0A6F802233B60E0
:103A280000233B7100237B710023BB600023FB60F4
:103A380000233B6100237B610123BB610023FB6101
:103A48003B46002219460B4803F030FB0346002B87
:103A580001D001F089F83B4610221946054803F0C9
:103A680025FB0346002B01D001F07EF800BF30375C
:103A7800BD4680BD100800200008005080B58AB0FF
:103A880000AF786007F1140300221A605A609A6048
:103A9800DA601A617B681B68194A93422CD1194B6A
:103AA800DB6C184A43F48033D364164BDB6C03F4A5
:103AB80080333B613B69134BDB6C124A43F00103D3
:103AC800D364104BDB6C03F00103FB60FB6830230D
:103AD8007B610323BB610023FB6107F114031946D3
:103AE8004FF0904003F0D6FF00220021362003F06B
:103AF8008CF9362003F0A3F900BF2837BD4680BDF6
:103B0800000800500010024080B582B000AF124B90
:103B18009B6C114A43F0040393640F4B9B6C03F0B6
:103B280004037B607B680C4B9B6C0B4A43F00103DE
:103B38009364094B9B6C03F001033B603B680022D4
:103B480000210B2003F061F90B2003F078F900BF86
:103B58000837BD4680BD00BF0010024080B400AFEA
:103B680000BFBD465DF8047B704780B400AF00BF5E
:103B7800BD465DF8047B704780B400AF00BFBD460A
:103B88005DF8047B704780B400AF00BFBD465DF8A8
:103B9800047B704780B400AF00BFBD465DF8047B6E
:103BA800704780B400AF00BFBD465DF8047B704726
:103BB80080B400AF00BFBD465DF8047B704780B499
:103BC80000AF00BFBD465DF8047B704780B400AF0E
:103BD80000BFBD465DF8047B704780B400AF00BFEE
:103BE800BD465DF8047B704780B400AF00BFBD469A
:103BF8005DF8047B7047000080B582B000AF0346D3
:103C0800FB71FB79092B1BDC002B3DDB092B3BD817
:103C180001A252F823F000BF853C00084F3C000881
:103C2800553C00085B3C0008613C0008673C000804
:103C38006D3C0008733C0008793C00087F3C000894
:103C4800632B1ED020E0FFF789FF1DE0FFF78DFFF3
:103C58001AE0FFF791FF17E0FFF795FF14E0FFF771
:103C680099FF11E0FFF79DFF0EE0FFF7A1FF0BE0C2
:103C7800FFF7A5FF08E0FFF7A9FF05E0FFF7ADFF95
:103C880002E0FFF7B1FF00BF00BF0837BD4680BDA7
:103C980080B582B000AF0346FB71FB79092B1BDCB2
:103CA800002B3DDB092B3BD801A252F823F000BFC3
:103CB8001D3D0008E73C0008ED3C0008F33C000807
:103CC800F93C0008FF3C0008053D00080B3D0008D2
:103CD800113D0008173D0008632B1ED020E0FFF7B8
:103CE8003DFF1DE0FFF741FF1AE0FFF745FF17E032
:103CF800FFF749FF14E0FFF74DFF11E0FFF751FF11
:103D08000EE0FFF755FF0BE0FFF759FF08E0FFF75C
:103D18005DFF05E0FFF761FF02E0FFF765FF00BF09
:103D280000BF0837BD4680BD80B485B000AF78605D
:103D38000023FB730023BB730BE0BB7B7A6813443F
:103D48001B78002B09D0FB7B0133FB73BB7B013352
:103D5800BB73BB7B1C2BF0D900E000BFFB7B184674
:103D68001437BD465DF8047B7047000080B485B009
:103D780000AF0346FB710023FB730AE0FB7B0A4A92
:103D8800D35CFA799A4201D1002306E0FB7B013328
:103D9800FB73FB7B1C2BF1D9012318461437BD4656
:103DA8005DF8047B704700BF9801002080B584B09F
:103DB80000AF0346FB71FB791846FFF7D7FF0346B0
:103DC800002B08D00648FFF7AFFF0346FB73FB7BC9
:103DD8000349FA79CA5400BF1037BD4680BD00BFF9
:103DE8009801002080B485B000AF0346FB71002322
:103DF8003B7300237B730DE07B7B164AD35CFA7917
:103E08009A4204D101233B737B7BFB7305E07B7BE8
:103E180001337B737B7B1C2BEED93B7B012B13D1AE
:103E2800FB7BBB7309E0BB7B5A1CBB7B0949895CE4
:103E3800084AD154BB7B0133BB73BB7B1B2BF2D924
:103E4800BB7B044A0021D15400BF1437BD465DF83E
:103E5800047B70479801002080B483B000AF03460C
:103E6800FB71FB79632B06D1104B63225A700F4B01
:103E780063221A7014E0FA790D4BA3FB0213D908D8
:103E88000B469B000B445B00D31ADAB2074B5A70FF
:103E9800FB79074AA2FB0323DB08DAB2034B1A704B
:103EA80000BF0C37BD465DF8047B7047280800202A
:103EB800CDCCCCCC80B500AF0D4B1B78002B05D1F9
:103EC8000C4B1B781846FFF797FE08E0084B1B7849
:103ED800012B04D1074B5B781846FFF7D9FE044B3A
:103EE8001B7883F00103DAB2014B1A7000BF80BD62
:103EF800240800202808002080B582B000AF1148AF
:103F0800FFF712FF0346FB71FB79002B15D00E4B10
:103F18001B781A460B4B9B5C1846FFF79DFF0A4B14
:103F28001B780133DAB2084B1A70074B1B78FA7901
:103F38009A4202D1044B00221A7000BF0837BD46CE
:103F480080BD00BF980100202A08002080B58CB0F1
:103F580000AF07F11C0300221A605A609A60DA6009
:103F68001A619D4BDB6C9C4A43F01003D3649A4B57
:103F7800DB6C03F01003BB61BB69974BDB6C964AA3
:103F880043F00403D364944BDB6C03F004037B61BC
:103F98007B69914BDB6C904A43F02003D3648E4BD2
:103FA800DB6C03F020033B613B698B4BDB6C8A4A7B
:103FB80043F00103D364884BDB6C03F00103FB601F
:103FC800FB68854BDB6C844A43F00203D364824B65
:103FD800DB6C03F00203BB60BB687F4BDB6C7E4A83
:103FE80043F00803D3647C4BDB6C03F008037B606D
:103FF8007B6800224EF20801784803F0E5FE0022B3
:1040080042F21001764803F0DFFE002204217548D1
:1040180003F0DAFE00224FF486514FF0904003F08F
:10402800D3FE00224FF487616F4803F0CDFE0022D3
:104038004FF460616D4803F0C7FE4EF20803FB6160
:1040480001233B6202237B620023BB6207F11C034E
:104058001946624803F01EFD1023FB614FF4041358
:104068003B6202237B6207F11C0319465B4803F09D
:1040780011FD42F21003FB6101233B6202237B62C4
:104088000023BB6207F11C031946554803F002FDE3
:104098004FF40073FB614FF404133B6202237B620D
:1040A80007F11C0319464F4803F0F4FC4FF48063F2
:1040B800FB614FF404133B6200237B6207F11C038E
:1040C8001946484803F0E6FC40F20333FB6100233D
:1040D8003B6202237B6207F11C031946404803F048
:1040E800D9FC0C23FB614FF404133B6202237B626F
:1040F80007F11C0319463A4803F0CCFC0423FB6182
:1041080001233B6202237B620023BB6207F11C038D
:104118001946344803F0BEFC4FF48653FB61012373
:104128003B6202237B620023BB6207F11C03194632
:104138004FF0904003F0AEFC4FF48763FB6101231E
:104148003B6202237B620023BB6207F11C03194612
:10415800254803F09FFC4FF46063FB6101233B6239
:1041680002237B620023BB6207F11C0319461F4828
:1041780003F090FC4EF2F903FB6100233B6202233B
:104188007B6207F11C031946184803F083FC0022E0
:104198000021082002F039FE082002F050FE00221B
:1041A8000021092002F031FE092002F048FE002219
:1041B80000210A2002F029FE0A2002F040FE002217
:1041C8000021282002F021FE282002F038FE00BF3E
:1041D8003037BD4680BD00BF0010024000100048C7
:1041E800000800480014004800040048000C00487B
:1041F80080B5B8B000AF07F1D00300221A605A604A
:104208009A60DA6007F1B40300221A605A609A6073
:10421800DA601A615A619A6107F154036022002139
:1042280018460AF003F807F1300324220021184643
:1042380009F0FCFF07F1100320220021184609F0BD
:10424800F5FF3B1D00221A605A609A60C74BC84AA6
:104258001A60C64B00225A60C44B00229A60C348B9
:1042680003F008FE0346002B01D000F07DFC0C2172
:10427800BE4803F0CFFE0346002B01D000F074FCCB
:104288000A21BA4803F01EFF0346002B01D000F0B4
:104298006BFC4FF6DF73C7F8D0300023C7F8D43073
:1042A8000023C7F8D8300823C7F8DC3007F1D0035B
:1042B8001A460021AD4803F039FF0346002B01D010
:1042C80000F052FC0023C7F8B4300023C7F8CC3004
:1042D80007F1B4031A460021A44803F0DCFF0346A3
:1042E800002B01D000F040FC00237B650023BB6558
:1042F8000023FB6500233B6601237B660023BB6626
:104308000023FB6600233B6700237B670023BB6712
:104318000023FB670023C7F880300023C7F88430E8
:104328000023C7F888300023C7F88C300023C7F86B
:1043380090300023C7F894300023C7F89830002342
:10434800C7F89C300023C7F8A4300023C7F8A8306A
:104358000023C7F8AC300023C7F8B03007F1540386
:104368001A460021814803F009FF0346002B01D0BB
:1043780000F0FAFB4FF48073C7F898300223C7F8AF
:10438800A83007F154031A460121784803F0F6FED5
:104398000346002B01D000F0E7FB07F154031A464F
:1043A8000221724803F0EAFE0346002B01D000F018
:1043B800DBFB0023C7F89C3007F154031A4603219E
:1043C8006A4803F0DBFE0346002B01D000F0CCFB6B
:1043D8000023C7F898300023C7F8A83007F1540322
:1043E8001A460421614803F0C9FE0346002B01D098
:1043F80000F0BAFB4FF4A0533B634FF4FA737B63AE
:104408000023BB630023FB6300233B644FF4FA7370
:104418007B640023BB640023FB6400233B6507F136
:1044280030031A460121514803F068FF0346002B68
:1044380001D000F099FB4FF480533B6340F2B31373
:104448007B6340F2B3137B6407F130031A46022101
:10445800464803F053FF0346002B01D000F084FBCD
:1044680007F130031A460321404803F047FF03468B
:10447800002B01D000F078FB00233B6100237B6117
:104488000023BB610023FB6100233B6200237B62A6
:104498000023BB620023FB6207F110030122002105
:1044A800324804F019F90346002B01D000F05CFBF8
:1044B80007F11003042201212C4804F00DF90346EA
:1044C800002B01D000F050FB08237B611023BB6157
:1044D80007F1100310220221244804F0FDF80346D6
:1044E800002B01D000F040FB07F11003402203210C
:1044F8001E4804F0F1F80346002B01D000F034FB0D
:1045080000237B610023BB6107F110030222002115
:10451800164804F0E1F80346002B01D000F024FB14
:1045280007F1100308220121104804F0D5F80346CA
:10453800002B01D000F018FB07F110032022022104
:104548000A4804F0C9F80346002B01D000F00CFB20
:1045580007F1100380220321044804F0BDF8034644
:10456800002B07D000F000FB04E000BF2C0800205F
:104578000068014048F2D043C7F8D0300523C7F897
:10458800D83007F1D0031A460121664803F0CEFD62
:104598000346002B01D000F0E7FA4FF40033C7F8C8
:1045A800BC300023C7F8C03007F1B4031A46012114
:1045B8005C4803F070FE0346002B01D000F0D4FAEB
:1045C80000237B603B1D01220121564803F016FFA2
:1045D8000346002B01D000F0C7FA03237B603B1D84
:1045E800042201214F4803F009FF0346002B01D0A4
:1045F80000F0BAFA42F23413C7F8D03007F1D0030A
:104608001A460221474803F091FD0346002B01D0CA
:1046180000F0AAFA0023C7F8B83007F1B4031A4625
:104628000221404803F037FE0346002B01D000F07A
:104638009BFA00237B603B1D01220221394803F0CD
:10464800DDFE0346002B01D000F08EFA41F29A03FA
:104658007B600023BB600023FB603B1D022202211C
:10466800304803F0CBFE0346002B01D000F07CFA63
:1046780007F1D0031A4603212A4803F057FD0346E1
:10468800002B01D000F070FA07F1B4031A46032199
:10469800244803F000FE0346002B01D000F064FA22
:1046A80000237B603B1D012203211E4803F0A6FE68
:1046B8000346002B01D000F057FA41F29A037B60C1
:1046C8003B1D02220321174803F098FE0346002BE6
:1046D80001D000F049FA4FF6DF73C7F8D030002355
:1046E800C7F8D83007F1D0031A4604210D4803F063
:1046F8001DFD0346002B01D000F036FA07F1B40384
:104708001A460421074803F0C6FD0346002B01D0D2
:1047180000F02AFA034800F027F800BFE037BD464A
:1047280080BD00BF2C08002080B485B000AF786041
:104738007B681B680A4A93420BD10A4B1B6E094AD5
:1047480043F080631366074B1B6E03F08063FB60C6
:10475800FB6800BF1437BD465DF8047B704700BF97
:10476800006801400010024080B58AB000AF786050
:1047780007F1140300221A605A609A60DA601A611D
:104788007B681B68204A93423AD1204BDB6C1F4A56
:1047980043F00203D3641D4BDB6C03F002033B615F
:1047A8003B691A4BDB6C194A43F00103D364174B7E
:1047B800DB6C03F00103FB60FB684FF470437B6123
:1047C8000223BB610023FB6103233B620D237B6251
:1047D80007F1140319460E4803F05CF94FF47063AF
:1047E8007B610223BB610023FB6103233B620D2332
:1047F8007B6207F1140319464FF0904003F04AF921
:1048080000BF2837BD4680BD006801400010024047
:104818000004004880B500AF1B4B1C4A1A601A4BB5
:104828001B4A5A60184B00229A60174B0122DA6023
:10483800154B00221A61144B00225A61124B0022B8
:104848009A61114B0022DA610F4B00221A620E485E
:1048580004F068FC0346002B01D000F085F9002124
:10486800094805F0D7FA0346002B01D000F07CF97F
:104878000021054805F019FB0346002B01D000F084
:1048880073F900BF80BD00BF2809002000840040E4
:10489800FBA7A03080B59EB000AF786007F1640335
:1048A80000221A605A609A60DA601A6107F11003F0
:1048B80054220021184609F0B9FC7B681B681F4A7E
:1048C800934236D14FF400333B610023BB6307F1B9
:1048D8001003184606F018F90346002B01D000F023
:1048E80043F9174BDB6C164A43F00403D364144BAB
:1048F800DB6C03F00403FB60FB68C0237B661223B8
:10490800BB660023FB6600233B6708237B6707F130
:10491800640319460B4803F0BDF8094BDB6D084AE0
:1049280043F00203D365064BDB6D03F00203BB6063
:10493800BB6800BF7837BD4680BD00BF008400401B
:10494800001002400008004880B500AF00F089FD63
:1049580000F0B4F8FFF7FAFAFFF7D6F8FFF748FCCB
:1049680000F04AFBFFF746F8FFF754FF00F002F9A2
:1049780000F0F2FB00F03CFC00F066FA00F0B8FA38
:1049880000F004FBFEF730FFFCF7FCFB00F0E0F85A
:1049980003461A463B4B1A803A4B1B88002B03D020
:1049A800384B1B88272B07D9374A137843F0040361
:1049B80013701C20FFF7FAF9FDF786FBFDF7ACFE34
:1049C800FDF77CFA01223149314807F00DFA314BE5
:1049D80014221A802F4B0F225A802E4B14229A80B1
:1049E8002C4B0422DA802B4B05221A81294B0622F4
:1049F8005A81294B1B7803F00203DBB2002B01D04C
:104A0800FEF7ACF9254B1B78012B04D1FCF7EEFB24
:104A1800224B00221A70224B1B78012B0AD1214B02
:104A28001A78214B1A70214B1A78214B1A701C4B9B
:104A380000221A701F4B1B78012B02D11D4B00223C
:104A48001A701D4B1B78012B18D1FFF755FA154B1F
:104A580000221A70154B00221A70174B00221A7088
:104A68000D4B1B7803F02003DBB2002B06D00A4A5B
:104A780013786FF345131370FCF7ACFBFEF736FBA6
:104A8800B7E700BF7E09002044050020EA060020A1
:104A9800AC0B0020B8060020480500205004002078
:104AA800510400207C090020800900207D09002095
:104AB80081090020530400205204002080B594B0DE
:104AC80000AF07F1180338220021184609F0AEFBA1
:104AD8003B1D00221A605A609A60DA601A61002051
:104AE80005F030FA0123BB614FF48033FB610223E8
:104AF8007B630323BB630623FB6355233B640223C9
:104B08007B640223BB640223FB6407F11803184685
:104B180005F0CCFA0346002B01D000F025F80F234E
:104B28007B600323BB600023FB6000233B614FF4E1
:104B380080637B613B1D0421184605F0C9FD0346CF
:104B4800002B01D000F010F800BF5037BD4680BDE3
:104B580080B582B000AFFCF7E7FC0346FB80FB881A
:104B680018460837BD4680BD80B400AF72B600BF96
:104B7800FEE7000080B500AF1B4B1C4A1A601A4BB9
:104B88004FF482725A60184B00229A60164B4FF409
:104B9800E062DA60144B00221A61134B00225A615A
:104BA800114B4FF400729A610F4B1022DA610E4BD1
:104BB80000221A620C4B00225A620B4B00229A62A6
:104BC800094B0722DA62084B00221A63064B0822B7
:104BD8005A63054806F0E6F90346002B01D0FFF7B3
:104BE800C3FF00BF80BD00BF84090020003C014016
:104BF80080B58AB000AF786007F1140300221A600C
:104C08005A609A60DA601A617B681B68174A934297
:104C180027D1174B1B6E164A43F400431366144BF7
:104C28001B6E03F400433B613B69114BDB6C104A7C
:104C380043F01003D3640E4BDB6C03F01003FB60EE
:104C4800FB6864237B610223BB610023FB610023B3
:104C58003B6205237B6207F114031946054802F0FD
:104C680019FF00BF2837BD4680BD00BF003C01408A
:104C7800001002400010004880B582B000AF114B10
:104C88001B6E104A43F0010313660E4B1B6E03F0B4
:104C980001037B607B680B4B9B6D0A4A43F0805392
:104CA8009365084B9B6D03F080533B603B6800F0B5
:104CB8005DFC022000F046FC05F0E8F900BF08376B
:104CC800BD4680BD0010024080B400AFFEE780B44E
:104CD80000AFFEE780B400AFFEE780B400AFFEE7A8
:104CE80080B400AFFEE780B400AF00BFBD465DF8FA
:104CF800047B704780B400AF00BFBD465DF8047BFD
:104D0800704780B400AF00BFBD465DF8047B7047B4
:104D180080B500AFFEF744FA00F0F6FB00BF80BD97
:104D280080B500AF042003F081F800BF80BD80B5D6
:104D380000AF082003F07AF800BF80BD80B500AF4F
:104D4800102003F073F8064A137843F00103137038
:104D5800FDF7E2FC1220FFF729F800BF80BD00BF75
:104D68004005002080B500AF024802F044FD00BFB6
:104D780080BD00BFB007002080B500AF024806F034
:104D88008BFA00BF80BD00BFE809002080B500AFE6
:104D9800024806F081FA00BF80BD00BF340A002037
:104DA80080B500AF4FF4806003F040F8054A1378EF
:104DB80043F010031370FDF7AFFC1620FEF7F6FF63
:104DC80000BF80BD4005002080B500AF024807F055
:104DD80057F800BF80BD00BFAC0B002080B500AF06
:104DE800044806F059FA044802F0D2F8FDF792FB9D
:104DF80000BF80BD800A00201008002080B500AFE9
:104E0800054806F049FA10220449054800F098FFC1
:104E1800FDF7B8FA00BF80BDCC0A0020E4010020ED
:104E28004407002080B400AF064BD3F88830054A09
:104E380043F47003C2F8883000BFBD465DF8047BB8
:104E4800704700BF00ED00E080B588B000AF07F103
:104E5800100300221A605A609A60DA603B1D002233
:104E68001A605A609A60204B204A1A601E4B002232
:104E78005A601D4B00229A601B4B4FF6FF72DA6096
:104E8800194B00221A61184B00225A61164B002256
:104E98009A61154806F031F90346002B01D0FFF757
:104EA80063FE4FF480533B6107F1100319460E4827
:104EB80006F042FB0346002B01D0FFF755FE002306
:104EC8007B600023BB600023FB603B1D194606483E
:104ED80006F0CAFD0346002B01D0FFF745FE00BFD0
:104EE8002037BD4680BD00BFE8090020002C0140E6
:104EF80080B588B000AF07F1100300221A605A602D
:104F08009A60DA603B1D00221A605A609A601D4B55
:104F18001D4A1A601B4B00225A601A4B00229A60E5
:104F2800184B4FF6FF72DA60164B00221A61154BC8
:104F380000229A61134806F0E0F80346002B01D0DE
:104F4800FFF712FE4FF480533B6107F11003194637
:104F58000C4806F0F1FA0346002B01D0FFF704FED7
:104F680000237B600023FB603B1D1946054806F0C3
:104F78007BFD0346002B01D0FFF7F6FD00BF20376D
:104F8800BD4680BD340A00200008004080B584B0CA
:104F980000AF3B1D00221A605A609A60144B154AF4
:104FA8001A60134B00225A60114B00229A60104B72
:104FB8004FF6FF72DA600E4B00229A610C4806F039
:104FC8009CF80346002B01D0FFF7CEFD00237B6041
:104FD8000023FB603B1D1946054806F045FD0346C6
:104FE800002B01D0FFF7C0FD00BF1037BD4680BDC4
:104FF800800A00200010004080B584B000AF3B1D3F
:1050080000221A605A609A60144B154A1A60134BB2
:1050180000225A60114B00229A60104B4FF6FF7223
:10502800DA600E4B00229A610C4806F066F80346D7
:10503800002B01D0FFF798FD00237B600023FB6065
:105048003B1D1946054806F00FFD0346002B01D00D
:10505800FFF78AFD00BF1037BD4680BDCC0A00208F
:105068000014004080B586B000AF78607B681B688C
:10507800344A934214D1344B1B6E334A43F40063D1
:105088001366314B1B6E03F400637B617B6900225E
:105098000021192001F0B9FE192001F0D0FE4CE0E2
:1050A8007B681B68294A934214D1274B9B6D264A7B
:1050B80043F004039365244B9B6D03F004033B61A9
:1050C8003B69002200211E2001F09FFE1E2001F0F6
:1050D800B6FE32E07B681B681D4A934214D11A4B16
:1050E8009B6D194A43F010039365174B9B6D03F0B2
:1050F8001003FB60FB6800220021362001F085FECA
:10510800362001F09CFE18E07B681B68114A934228
:1051180013D10D4B9B6D0C4A43F0200393650A4B4A
:105128009B6D03F02003BB60BB6800220021372081
:1051380001F06BFE372001F082FE00BF1837BD4634
:1051480080BD00BF002C0140001002400008004054
:10515800001000400014004080B500AF224B234AE5
:105168001A60214B4FF4E1325A601F4B00229A60BB
:105178001D4B0022DA601C4B00221A611A4B0C22CC
:105188005A61194B00229A61174B0022DA61164BBB
:1051980000221A62144B00225A62134B00229A62B0
:1051A800114806F03DFD0346002B01D0FFF7DCFC5B
:1051B80000210D4808F03DFF0346002B01D0FFF702
:1051C800D3FC0021084808F072FF0346002B01D0E9
:1051D800FFF7CAFC044808F0F3FE0346002B01D091
:1051E800FFF7C2FC00BF80BD180B0020004C004038
:1051F80080B500AF224B234A1A60214B4FF4E132AD
:105208005A601F4B00229A601D4B0022DA601C4B2B
:1052180000221A611A4B0C225A61194B00229A611A
:10522800174B0022DA61164B00221A62144B002237
:105238005A62134B00229A62114806F0F1FC0346A9
:10524800002B01D0FFF790FC00210D4808F0F1FE7B
:105258000346002B01D0FFF787FC0021084808F01F
:1052680026FF0346002B01D0FFF77EFC044808F018
:10527800A7FE0346002B01D0FFF776FC00BF80BDD8
:10528800AC0B00200050004080B5A2B000AF7860A1
:1052980007F1740300221A605A609A60DA601A6192
:1052A80007F1200354220021184608F0BFFF7B684D
:1052B8001B68524A934239D108233B6200233B635F
:1052C80007F12003184605F01FFC0346002B01D008
:1052D800FFF74AFC4A4B9B6D494A43F40023936508
:1052E800474B9B6D03F40023FB61FB69444BDB6C6C
:1052F800434A43F00403D364414BDB6C03F00403DB
:10530800BB61BB694FF440637B670223BB67002323
:10531800FB670023C7F880300523C7F8843007F1FE
:1053280074031946374802F0B5FB63E07B681B68D5
:10533800354A93425ED110233B6200237B6307F119
:105348002003184605F0E0FB0346002B01D0FFF7C9
:105358000BFC2B4B9B6D2A4A43F480139365284B17
:105368009B6D03F480137B617B69254BDB6C244ABE
:1053780043F00403D364224BDB6C03F004033B616A
:105388003B691F4BDB6C1E4A43F00803D3641C4B7C
:10539800DB6C03F00803FB60FB684FF480537B670A
:1053A8000223BB670023FB670023C7F8803005236F
:1053B800C7F8843007F174031946124802F06AFBF3
:1053C80004237B670223BB670023FB670023C7F81E
:1053D80080300523C7F8843007F1740319460B4859
:1053E80002F058FB00220021352001F00EFD352087
:1053F80001F025FD00BF8837BD4680BD004C004048
:10540800001002400008004800500040000C00480E
:105418000D488546FFF706FD0C480D490D4A002347
:1054280002E0D458C4500433C4188C42F9D30A4A51
:105438000A4C002301E013600432A242FBD308F0B7
:10544800C3FEFFF781FAFEE70000022000000020FB
:10545800C401002090EA0008C4010020440C002088
:10546800FEE780B582B000AF0023FB71032001F096
:10547800C1FC0F2000F00EF80346002B02D00123D8
:10548800FB7101E0FFF7F8FBFB7918460837BD46CA
:1054980080BD000080B584B000AF78600023FB7346
:1054A800164B1B68002B22D0154B1A68134B1B6830
:1054B8004FF47A71B1FBF3F3B2FBF3F3184601F042
:1054C800CCFC0346002B0FD17B680F2B09D8002298
:1054D80079684FF0FF3001F098FC0A4A7B68136046
:1054E80007E00123FB7304E00123FB7301E00123C0
:1054F800FB73FB7B18461037BD4680BDC0010020FA
:10550800B8010020BC01002080B400AF054B1A6828
:10551800054B1B681344034A136000BFBD465DF882
:10552800047B7047400C0020C001002080B400AF0D
:10553800034B1B681846BD465DF8047B704700BFE7
:10554800400C002080B483B000AF7860064B1B6825
:1055580023F0020204497B6813430B6000BF0C3739
:10556800BD465DF8047B70473000014080B400AF51
:10557800054B1B68044A23F00103136000BFBD46B6
:105588005DF8047B704700BF3000014080B483B0F1
:1055980000AF786039607B689B6823F47C123B68B5
:1055A8001A437B689A6000BF0C37BD465DF8047BE0
:1055B800704780B483B000AF786039607B689B68BF
:1055C80023F0E0723B681A437B689A6000BF0C378F
:1055D800BD465DF8047B704780B483B000AF786047
:1055E8007B689B6803F0E07318460C37BD465DF88E
:1055F800047B704780B487B000AFF860B9607A6008
:105608003B60FB6860331A46BB689B0013447B61B0
:105618007B691A68084B13407A6802F0F8413A68C7
:105628000A43134343F000427B691A6000BF1C37EA
:10563800BD465DF8047B704700F0FF0380B485B079
:1056480000AF786039607B6860331A463B689B001E
:105658001344FB60FB681B6803F0F84318461437D3
:10566800BD465DF8047B704780B487B000AFF86032
:10567800B9607A60FB6860331A46BB689B001344C4
:105688007B617B691B6823F000427B681A437B6956
:105698001A6000BF1C37BD465DF8047B704780B4B4
:1056A80087B000AFF860B9607A60FB6860331A466B
:1056B800BB689B0013447B617B691B6823F0807285
:1056C8007B681A437B691A6000BF1C37BD465DF8CA
:1056D800047B704780B487B000AFF860B9607A6027
:1056E800FB6860331A46BB689B0013447B617B6987
:1056F8001B6823F000727B681A437B691A6000BF3D
:105708001C37BD465DF8047B704780B483B000AF9A
:10571800786039607B685B6923F000423B681A4314
:105728007B685A6100BF0C37BD465DF8047B704743
:1057380080B483B000AF78607B68DB6803F44063B3
:10574800002B01D1012300E0002318460C37BD4689
:105758005DF8047B704780B487B000AFF860B9602B
:105768007A60FB6830331A46BB681B0A9B0003F05B
:105778000C0313447B617B691A68BB6803F01F0341
:105788001F2101FA03F3DB431A407B689B0E03F0E9
:105798001F01BB6803F01F0301FA03F31A437B6977
:1057A8001A6000BF1C37BD465DF8047B704780B4A3
:1057B80087B000AFF860B9607A60FB6814331A46A6
:1057C800BB685B0E9B0003F0040313447B617B6999
:1057D8001A68BB681B0D03F01F03072101FA03F3C6
:1057E800DB431A40BB681B0D03F01F03796801FAFD
:1057F80003F31A437B691A6000BF1C37BD465DF886
:10580800047B704780B485B000AFF860B9607A60F7
:10581800FB68D3F8B020BB68C3F31203DB431A401C
:105828007B6803F018030849D940BB680B40C3F3F1
:1058380012031A43FB68C3F8B02000BF1437BD46F3
:105848005DF8047B704700BFFFFF070080B483B09A
:1058580000AF78607B689B6803F01F0318460C371D
:10586800BD465DF8047B704780B483B000AF7860B4
:105878007B689B6823F0204323F03F037A6893609A
:1058880000BF0C37BD465DF8047B704780B483B019
:1058980000AF78607B689B6803F00053B3F1005F4A
:1058A80001D1012300E0002318460C37BD465DF8FE
:1058B800047B704780B483B000AF78607B689B68D6
:1058C80023F0104323F03F0343F080527B689A6033
:1058D80000BF0C37BD465DF8047B704780B483B0C9
:1058E80000AF78607B689B6803F08053B3F1805FFA
:1058F80001D1012300E0002318460C37BD465DF8AE
:10590800047B704780B483B000AF78607B689B6885
:1059180023F0004323F03F0343F001027B689A60C1
:1059280000BF0C37BD465DF8047B704780B483B078
:1059380000AF78607B689B6803F00103012B01D1FD
:10594800012300E0002318460C37BD465DF8047BB0
:10595800704780B483B000AF78607B689B6823F0A1
:10596800004323F03F0343F004027B689A6000BFC2
:105978000C37BD465DF8047B704780B483B000AF38
:1059880078607B689B6803F00403042B01D1012332
:1059980000E0002318460C37BD465DF8047B7047CD
:1059A80080B483B000AF78607B689B6803F008031D
:1059B800082B01D1012300E0002318460C37BD460F
:1059C8005DF8047B7047000090B589B000AF78603F
:1059D8000023FB770023FB607B68002B01D10123A8
:1059E800A9E17B685B69002B7B68DB6D002B09D123
:1059F8007868FDF77DFF7B6800221A667B680022C5
:105A080083F858207B681B681846FFF73FFF03465A
:105A1800002B04D07B681B681846FFF725FF7B68BE
:105A28001B681846FFF75AFF0346002B15D17B6801
:105A38001B681846FFF73EFF9C4B1B689B099C4A56
:105A4800A2FB03239B0901335B00FB6002E0FB68B8
:105A5800013BFB60FB68002BF9D17B681B6818468B
:105A6800FFF73CFF0346002B0DD17B68DB6D43F04D
:105A780010027B68DA657B681B6E43F001027B6865
:105A88001A660123FB777B681B681846FFF775FFCA
:105A980078617B68DB6D03F01003002B40F04281D6
:105AA8007B69002B40F03E817B68DB6D23F48173BA
:105AB80043F002027B68DA657B681B681846FFF7CB
:105AC80035FF0346002B41D17B681B68B3F1A04F1B
