S0170000536C6176655F56656572616C5F56302E737265636F
S3150800000000000220C54B0008A5440008AB440008C0
S31508000010B1440008B7440008BD44000800000000C9
S31508000020000000000000000000000000C3440008B3
S31508000030D144000800000000DF440008ED44000831
S31508000040154C0008154C0008154C0008154C0008FE
S31508000050154C0008154C0008154C0008154C0008EE
S31508000060F944000807450008154500083D450008FD
S31508000070154C0008154C0008154C0008154C0008CE
S31508000080154C0008154C0008154C0008154C0008BE
S31508000090154C0008154C0008154C0008154C0008AE
S315080000A0154C000851450008154C0008154C000869
S315080000B0154C0008154C000865450008154C000845
S315080000C0154C0008154C0008154C0008154C00087E
S315080000D0154C0008154C0008154C0008154C00086E
S315080000E079450008154C0008154C0008154C000801
S315080000F0154C0008154C0008154C0008154C00084E
S31508000100154C0008154C0008154C0008154C00083D
S31508000110154C0008154C0008A1450008C145000803
S31508000120154C0008154C0008154C0008154C00081D
S31508000130154C0008154C0008154C0008154C00080D
S31508000140154C0008154C0008154C0008154C0008FD
S31508000150154C0008154C0008154C0008154C0008ED
S31508000160154C0008154C0008154C0008154C0008DD
S31508000170154C0008154C0008154C0008154C0008CD
S31508000180154C0008154C0008154C0008154C0008BD
S31508000190154C000800000000154C0008154C000816
S315080001A0154C0008154C0008154C0008154C00089D
S315080001B0154C0008154C0008154C0008154C00088D
S315080001C0154C0008154C0008154C0008154C00087D
S30D080001D0154C0008154C000847
S315080001D810B5054C237833B9044B13B10448AFF36B
S315080001E800800123237010BDC40100200000000010
S315080001F854BF000808B5034B1BB103490348AFF3BE
S31508000208008008BD00000000C801002054BF00088F
S3150800021881F0004102E000BF83F0004330B54FEAA1
S3150800022841044FEA430594EA050F08BF90EA020F0E
S315080002381FBF54EA000C55EA020C7FEA645C7FEAA1
S31508000248655C00F0E2804FEA5454D4EB5555B8BFC4
S315080002586D420CDD2C4480EA020281EA030382EA35
S31508000268000083EA010180EA020281EA0303362DC7
S3150800027888BF30BD11F0004F4FEA01314FF4801C9A
S315080002884CEA113102D0404261EB410113F0004FAC
S315080002984FEA03334CEA133302D0524263EB430363
S315080002A894EA050F00F0A780A4F10104D5F1200E01
S315080002B80DDB02FA0EFC22FA05F2801841F100015C
S315080002C803FA0EF2801843FA05F359410EE0A5F130
S315080002D820050EF1200E012A03FA0EFC28BF4CF061
S315080002E8020C43FA05F3C01851EBE37101F0004517
S315080002F807D54FF0000EDCF1000C7EEB00006EEB24
S315080003080101B1F5801F1BD3B1F5001F0CD34908AD
S315080003185FEA30004FEA3C0C04F101044FEA445204
S3150800032812F5800F80F09A80BCF1004F08BF5FEA8B
S31508000338500C50F1000041EB045141EA050130BD6B
S315080003485FEA4C0C404141EB0101013C28BFB1F57D
S31508000358801FE9D291F0000F04BF01460020B1FAC8
S3150800036881F308BF2033A3F10B03B3F120020CDA9B
S315080003780C3208DD02F1140CC2F10C0201FA0CF079
S3150800038821FA02F10CE002F11402D8BFC2F1200CDE
S3150800039801FA02F120FA0CFCDCBF41EA0C01904094
S315080003A8E41AA2BF01EB0451294330BD6FEA0404DD
S315080003B81F3C1CDA0C340EDC04F11404C4F12002C8
S315080003C820FA04F001FA02F340EA030021FA04F3DA
S315080003D845EA030130BDC4F10C04C4F1200220FA31
S315080003E802F001FA04F340EA0300294630BD21FA6F
S315080003F804F0294630BD94F0000F83F4801306BF35
S3150800040881F480110134013D4EE77FEA645C18BF28
S315080004187FEA655C29D094EA050F08BF90EA020FBF
S3150800042805D054EA000C04BF1946104630BD91EAB7
S31508000438030F1EBF0021002030BD5FEA545C05D1BA
S315080004484000494128BF41F0004130BD14F58004F9
S315080004583CBF01F5801130BD01F0004545F0FE416D
S3150800046841F470014FF0000030BD7FEA645C1ABFA2
S31508000478194610467FEA655C1CBF0B46024650EAD9
S31508000488013406BF52EA033591EA030F41F4002105
S3150800049830BD00BF90F0000F04BF0021704730B58B
S315080004A84FF4806404F132044FF000054FF0000160
S315080004B850E700BF90F0000F04BF0021704730B521
S315080004C84FF4806404F1320410F0004548BF4042F6
S315080004D84FF000013EE700BF42004FEAE2014FEA4B
S315080004E831014FEA02701FBF12F07F4393F07F4F26
S315080004F881F06051704732F07F4208BF704793F029
S315080005087F4F04BF41F40021704730B54FF460743B
S3150800051801F0004521F000411CE700BF50EA01023E
S3150800052808BF704730B54FF000050AE050EA0102E7
S3150800053808BF704730B511F0004502D5404261EB57
S3150800054841014FF4806404F132045FEA915C3FF498
S31508000558D8AE4FF003025FEADC0C18BF03325FEA35
S31508000568DC0C18BF033202EBDC02C2F1200300FAE6
S3150800057803FC20FA02F001FA03FE40EA0E0021FA0B
S3150800058802F11444BDE600BF70B54FF0FF0C4CF4F9
S31508000598E06C1CEA11541DBF1CEA135594EA0C0FAB
S315080005A895EA0C0F00F0DEF82C4481EA030621EAE6
S315080005B84C5123EA4C5350EA013518BF52EA033521
S315080005C841F4801143F4801338D0A0FB02CE4FF0D3
S315080005D80005E1FB02E506F00042E0FB03E54FF003
S315080005E80006E1FB03569CF0000F18BF4EF0010EFB
S315080005F8A4F1FF04B6F5007F64F5407404D25FEAF7
S315080006084E0E6D4146EB060642EAC62141EA5551A9
S315080006184FEAC52040EA5E504FEACE2EB4F1FD0CEB
S3150800062888BFBCF5E06F1ED8BEF1004F08BF5FEA69
S31508000638500E50F1000041EB045170BD06F000461B
S3150800064846EA010140EA020081EA0301B4EB5C04C8
S31508000658C2BFD4EB0C0541EA045170BD41F48011C0
S315080006684FF0000E013C00F3AB8014F1360FDEBFE5
S31508000678002001F0004170BDC4F10004203C35DAC1
S315080006880C341BDC04F11404C4F1200500FA05F344
S3150800069820FA04F001FA05F240EA020001F00042E5
S315080006A821F0004110EBD37021FA04F642EB06015B
S315080006B85EEA430E08BF20EAD37070BDC4F10C0485
S315080006C8C4F1200500FA04F320FA05F001FA04F249
S315080006D840EA020001F0004110EBD37041F1000135
S315080006E85EEA430E08BF20EAD37070BDC4F1200540
S315080006F800FA05F24EEA020E20FA04F301FA05F2A8
S3150800070843EA020321FA04F001F0004121FA04F24F
S3150800071820EA020000EBD3705EEA430E08BF20EA1F
S31508000728D37070BD94F0000F0FD101F00046400059
S3150800073841EB010111F4801F08BF013CF7D041EADB
S31508000748060195F0000F18BF704703F000465200DF
S3150800075843EB030313F4801F08BF013DF7D043EAB0
S315080007680603704794EA0C0F0CEA135518BF95EA66
S315080007780C0F0CD050EA410618BF52EA4306D1D1ED
S3150800078881EA030101F000414FF0000070BD50EA0C
S31508000798410606BF1046194652EA430619D094EA96
S315080007A80C0F02D150EA013613D195EA0C0F05D180
S315080007B852EA03361CBF104619460AD181EA0301D4
S315080007C801F0004141F0FE4141F470014FF000008C
S315080007D870BD41F0FE4141F4780170BD70B54FF027
S315080007E8FF0C4CF4E06C1CEA11541DBF1CEA1355A7
S315080007F894EA0C0F95EA0C0F00F0A7F8A4EB050489
S3150800080881EA030E52EA03354FEA013100F088807F
S315080008184FEA03334FF0805545EA131343EA126348
S315080008284FEA022245EA111545EA10654FEA0026FD
S315080008380EF000419D4208BF964244F1FD0404F5B6
S31508000848407402D25B084FEA3202B61A65EB030512
S315080008585B084FEA32024FF480104FF4002CB6EBCF
S31508000868020E75EB030E22BFB61A754640EA0C004F
S315080008785B084FEA3202B6EB020E75EB030E22BF8F
S31508000888B61A754640EA5C005B084FEA3202B6EBD0
S31508000898020E75EB030E22BFB61A754640EA9C008F
S315080008A85B084FEA3202B6EB020E75EB030E22BF5F
S315080008B8B61A754640EADC0055EA060E18D04FEA1D
S315080008C8051545EA16754FEA06164FEAC30343EABD
S315080008D852734FEAC2025FEA1C1CC0D111F4801F8A
S315080008E80BD141EA00014FF000004FF0004CB6E783
S315080008F811F4801F04BF01430020B4F1FD0C88BF22
S31508000908BCF5E06F3FF6AFAEB5EB030C04BFB6EB2C
S31508000918020C5FEA500C50F1000041EB045170BD1F
S315080009280EF0004E4EEA113114EB5C04C2BFD4EB4C
S315080009380C0541EA045170BD41F480114FF0000ED0
S31508000948013C90E645EA060E8DE60CEA135594EA4C
S315080009580C0F08BF95EA0C0F3FF43BAF94EA0C0F4F
S315080009680AD150EA01347FF434AF95EA0C0F7FF4C4
S3150800097825AF104619462CE795EA0C0F06D152EA18
S3150800098803353FF4FDAE1046194622E750EA4106FC
S3150800099818BF52EA43067FF4C5AE50EA41047FF40D
S315080009A80DAF52EA43057FF4EBAE12E74FEA410270
S315080009B8B2F1E04324BFB3F5001CDCF1FE5C0DD9A7
S315080009C801F0004C4FEAC0024CEA5070B2F1004FF1
S315080009D840EB830008BF20F00100704711F0804FF4
S315080009E821D113F13872BCBF01F00040704741F4B9
S315080009F880114FEA5252C2F11802C2F1200C10FABD
S31508000A080CF320FA02F018BF40F001004FEAC123A0
S31508000A184FEAD32303FA0CFC40EA0C0023FA02F344
S31508000A284FEA4303CCE77FEA625307D150EA01331A
S31508000A381EBF4FF0FE4040F44000704701F00040EA
S31508000A4840F0FE4040F40000704700BF53B94AB969
S31508000A58002908BF00281CBF4FF0FF314FF0FF30B0
S31508000A6800F074B9ADF1080C6DE904CE00F006F88B
S31508000A78DDF804E0DDE9022304B070472DE9F04704
S31508000A88089D04468E46002B4DD18A42944669D95C
S31508000A98B2FA82F252B101FA02F3C2F1200120FA3F
S31508000AA801F10CFA02FC41EA030E94404FEA1C488D
S31508000AB8210CBEFBF8F61FFA8CF708FB16E341EA89
S31508000AC8034306FB07F199420AD91CEB030306F10F
S31508000AD8FF3080F01F81994240F21C81023E634430
S31508000AE85B1AA4B2B3FBF8F008FB103344EA0344D4
S31508000AF800FB07F7A7420AD91CEB040400F1FF33E9
S31508000B0880F00A81A74240F207816444023840EA25
S31508000B180640E41B00261DB1D4400023C5E900435E
S31508000B283146BDE8F0878B4209D9002D00F0EF80E1
S31508000B380026C5E9000130463146BDE8F087B3FA14
S31508000B4883F6002E4AD18B4202D3824200F2F980FC
S31508000B58841A61EB030301209E46002DE0D0C5E9FF
S31508000B68004EDDE702B9FFDEB2FA82F2002A40F04B
S31508000B789280A1EB0C014FEA1C471FFA8CFE01264E
S31508000B88200CB1FBF7F307FB131140EA01410EFBF2
S31508000B9803F0884208D91CEB010103F1FF3802D299
S31508000BA8884200F2CB804346091AA4B2B1FBF7F093
S31508000BB807FB101144EA01440EFB00FEA64508D9B6
S31508000BC81CEB040400F1FF3102D2A64500F2BB80F3
S31508000BD80846A4EB0E0440EA03409CE7C6F1200742
S31508000BE8B34022FA07FC4CEA030C20FA07F401FA88
S31508000BF806F31C43F9404FEA1C4900FA06F3B1FB11
S31508000C08F9F8200C1FFA8CFE09FB181140EA014175
S31508000C1808FB0EF0884202FA06F20BD91CEB010112
S31508000C2808F1FF3A80F08880884240F28580A8F16A
S31508000C3802086144091AA4B2B1FBF9F009FB1011BC
S31508000C4844EA014100FB0EFE8E4508D91CEB01015A
S31508000C5800F1FF346CD28E456AD90238614440EAFD
S31508000C680840A0FB0294A1EB0E01A142C846A6467D
S31508000C7856D353D05DB1B3EB080261EB0E0101FA06
S31508000C8807F722FA06F3F1401F43C5E90071002663
S31508000C983146BDE8F087C2F12003D8400CFA02FCB9
S31508000CA821FA03F3914001434FEA1C471FFA8CFEC9
S31508000CB8B3FBF7F007FB10360B0C43EA064300FBB9
S31508000CC80EF69E4204FA02F408D91CEB030300F157
S31508000CD8FF382FD29E422DD9023863449B1B89B20E
S31508000CE8B3FBF7F607FB163341EA034106FB0EF397
S31508000CF88B4208D91CEB010106F1FF3816D28B4244
S31508000D0814D9023E6144C91A46EA004638E72E460F
S31508000D18284605E70646E3E61846F8E64B45A9D207
S31508000D28B9EB020864EB0C0E0138A3E74646EAE776
S31508000D38204694E74046D1E7D0467BE7023B614424
S31508000D4832E7304609E76444023842E7704700BF8D
S31508000D5880B586B000AF0346FB71FB79013B072BCC
S31508000D6800F2D88001A252F823F000BF950D0008BA
S31508000D78D50D0008150E0008550E0008930E000834
S31508000D88B50E0008E70E0008FB0E00084FF0000332
S31508000D983B61674BD3ED006A664B93ED297A654B41
S31508000DA8D3ED2A7A27EE277AC6EE877AC7ED037A2D
S31508000DB8614B93ED017AD7ED037A67EE277A97EDBB
S31508000DC8047A77EE277AC7ED057AA3E04FF0000391
S31508000DD83B61574BD3ED006A564B93ED417A554B19
S31508000DE8D3ED427A27EE277AC6EE877AC7ED037AD5
S31508000DF8524B93ED017AD7ED037A67EE277A97ED8A
S31508000E08047A77EE277AC7ED057A83E04FF0000370
S31508000E183B61474BD3ED006A464B93ED477A454B02
S31508000E28D3ED487A27EE277AC6EE877AC7ED037A8E
S31508000E38434B93ED017AD7ED037A67EE277A97ED58
S31508000E48047A77EE277AC7ED057A63E04FF0000350
S31508000E583B61374BD3ED006A364B93ED477A354BF2
S31508000E68D3ED487A27EE277AC6EE877AC7ED037A4E
S31508000E78344B1B8807EE903AF8EEE77A97ED047A32
S31508000E8877EE277AC7ED057A44E02F4B1B78C3F32C
S31508000E980003DBB21A4640F6AC5302FB03F307EE2F
S31508000EA8903AF8EEE77AC7ED057A33E0274BD3EDA3
S31508000EB8007AFCEEE77A17EE903A9BB21846FFF7E7
S31508000EC8F9FA19A3D3E90023FFF75EFB02460B4696
S31508000ED810461946FFF76AFD03467B611AE01C4B64
S31508000EE81B689BB207EE903AF8EE677AC7ED057A63
S31508000EF810E0184B1B78C3F38003DBB21A4640F69A
S31508000F08AC5302FB03F307EE903AF8EEE77AC7ED1F
S31508000F18057A00BFD7ED057AFCEEE77A17EE903A20
S31508000F2818461837BD4680BD9A9999999999B93F2F
S31508000F384C0400209C02002070040020580400205D
S31508000F4864040020CC0400204C0500200000002082
S31508000F58680200203805002080B500AF124B082229
S31508000F681A70124B05221A700F4B1B781846FFF792
S31508000F78EFFE03460E4A13600C4B1B781846FFF71C
S31508000F88E7FE03460B4A1360094B1B68002200213B
S31508000F98094805F029FC074B1B680022102106485A
S31508000FA805F022FC00BF80BDE0010020E101002019
S31508000FB8D8040020DC0400208407002080B487B009
S31508000FC800AF78600B467B8041F22103FB81002342
S31508000FD8FB820023BB8225E0BB8A7A6813441B7808
S31508000FE89BB21B029AB2FB8A5340FB8200233B61E1
S31508000FF812E0B7F91630002B08DAFB8A5B001AB23A
S31508001008B7F90E3053401BB2FB8202E0FB8A5B003D
S31508001018FB823B6901333B613B69072BE9DDBB8AE8
S315080010280133BB82BA8A7B889A42D5D3FB8A18468B
S315080010381C37BD465DF8047B7047000080B588B04C
S3150800104804AF78600B467B804FF4967302937B88CF
S3150800105801937B68009302230022A021194807F010
S31508001068F9FB0346002B07D0174A137843F04003C9
S3150800107813700C2002F08CFA7B8819467868FFF7FB
S315080010889DFF0346FB814FF496730293022301934F
S3150800109807F10E03009302234FF47A72A021094838
S315080010A807F0D8FB0346002B07D0074A137843F006
S315080010B8400313700C2002F06BFA00BF1037BD46C8
S315080010C880BD00BF9C0800203805002080B588B080
S315080010D804AF78600B467B80C8230A22A0212748DC
S315080010E807F0E6FD0346002B19D14FF496730293D1
S315080010F87B8801937B68009302230022A0211F485E
S3150800110807F0BCFC0346002B09D01D4A137843F0A8
S31508001118400313700C2002F03BFA002329E04FF431
S31508001128967302930223019307F10C030093022393
S315080011384FF47A72A021114807F0A0FC0346002B49
S3150800114809D00F4A137843F0400313700C2002F0B5
S315080011581FFA00230DE07B8819467868FFF72EFFEB
S315080011680346FB81BB89FA899A4201D1012300E02B
S31508001178002318461037BD4680BD00BF9C080020CE
S315080011883805002080B500AF4FF4D8710F48FFF72F
S315080011989DFF0346002B16D101F006F80C4B1B7869
S315080011A803F04003DBB2002B03D10C2002F00CFA43
S315080011B809E0074B1B7803F04003DBB2002B02D08B
S315080011C80C2002F0E5F900BF80BD00BF9C02002094
S315080011D83805002080B500AF4FF4D8710248FFF7EC
S315080011E82DFF00BF80BD00BF9C02002080B400AF61
S315080011F800231846BD465DF8047B704780B483B063
S3150800120800AF1D4B00221A601B4B00225A601A4B6E
S3150800121800229A60184B0022DA6000237B6017E0E8
S31508001228154B1B687A689200144931F81220134442
S31508001238114A1360104B9B687A68920002320F496C
S3150800124831F8122013440C4A93607B6801337B609B
S315080012587B68032BE4DD084B1B689B08084A136068
S31508001268054B9B689B08064A936000BF0C37BD462A
S315080012785DF8047B704700BF3C020020E4010020AB
S315080012886802002080B483B000AF1D4B00221A61A3
S315080012981B4B00225A611A4B00229A61184B0022EE
S315080012A8DA6100237B6017E0154B1B697A689200A0
S315080012B8144931F812201344114A1361104BDB699B
S315080012C87A68920003320F4931F8122013440C4AFF
S315080012D8D3617B6801337B607B68032BE4DD084BAD
S315080012E81B699B08084A1361054BDB699B08064A74
S315080012F8D36100BF0C37BD465DF8047B704700BF55
S315080013083C020020040200206802002080B483B052
S3150800131800AF1A4B00221A62184B00225A620023A1
S315080013287B6017E0154B1B6A7A685200144931F836
S3150800133812201344114A1362104B5B6A7A685200EA
S3150800134801320F4931F8122013440C4A53627B685C
S3150800135801337B607B68032BE4DD084B1B6A9B081B
S31508001368084A1362054B5B6A9B08064A536200BF24
S315080013780C37BD465DF8047B704700BF3C02002069
S31508001388240200206802002080B483B000AF104B06
S3150800139800229A6200237B600BE00D4B9B6A0D497D
S315080013A87A6831F812201344094A93627B68013334
S315080013B87B607B68032BF0DD054B9B6A9B08064A16
S315080013C8936200BF0C37BD465DF8047B704700BFC3
S315080013D83C020020340200206802002080B489B04C
S315080013E800AF87ED010A9FED2F7AD7ED017AF4EE63
S315080013F8C77AF1EE10FA01DB2B4B49E00023FB61B3
S3150800140802E0FB690133FB61284AFB699B00134428
S31508001418D3ED007A97ED017AB4EEE77AF1EE10FA91
S31508001428EFD4FB69013B214A9B0013441B68BB6147
S315080014381E4AFB699B0013441B687B61FB69013BD9
S315080014481B4A9B0013441B683B61194AFB699B00AE
S3150800145813441B68FB6097ED017AD7ED067A37EED9
S31508001468677AD7ED036AD7ED047A76EEE77A67EEF8
S31508001478276A97ED057AD7ED067A37EE677AC6EEC4
S31508001488877A97ED047A77EE277AC7ED027ABB68EA
S3150800149807EE903AB0EE670A2437BD465DF8047B36
S315080014A8704700BF00401C460000C841C8C1000874
S315080014B86CBF000880B485B000AF87ED010A9FEDC0
S315080014C8177AD7ED017AF4EEC77AF1EE10FA02D850
S315080014D84FF0000319E00023FB6002E0FB680133C4
S315080014E8FB600F4AFB689B001344D3ED007A97ED1F
S315080014F8017AB4EEE77AF1EE10FAEFDA094AFB68F0
S315080015089B0013441B68BB60BB6807EE903AB0EEB5
S31508001518670A1437BD465DF8047B70476DE713C044
S3150800152824C40008B8C5000880B582B000AF802179
S315080015382A4805F047FF03461A46294B1A704021E0
S31508001548264805F03FFF03461A46254B5A702021C0
S31508001558224805F037FF03461A46214B9A70102190
S315080015681E4805F02FFF03461A461D4BDA70082158
S315080015781A4805F027FF03461A46194B1A7101211E
S31508001588164805F01FFF03461A46154B5A71144BA1
S315080015981B785B011AB2124B5B781B011BB213430B
S315080015A81AB20F4B9B78DB001BB213431AB20C4BCB
S315080015B8DB789B001BB213431AB2094B1B795B00F5
S315080015C81BB213431AB2064B5B791BB213431BB201
S315080015D8FB80FB8818460837BD4680BD000C0048C6
S315080015E89402002080B500AF464B1B78002B18D113
S315080015F8454B1B88002B14D1444B1B7803F0010379
S31508001608DBB2002B0DD100F021F93F4B01221A80DD
S315080016183F4B01221A70012210213E4805F0EAFEC6
S3150800162827E0384B1B78002B10D1374B1B88012B2A
S315080016380CD1364B1B7803F00103DBB2002B05D11E
S3150800164801221021334805F0D5FE12E000F008F90A
S315080016582F4B00221A70002210212E4805F0CAFEC8
S315080016682D4B1B88002B04D100221021294805F090
S31508001678C1FE2A4B1B78002B18D1274B1B88002B39
S3150800168814D1224B1B7803F00103DBB2002B0DD1D2
S3150800169800F04EF8204B01221A80214B01221A70BD
S315080016A8012210211B4805F0A5FE1FE01B4B1B78DD
S315080016B8002B10D1184B1B88012B0CD1134B1B7808
S315080016C803F00103DBB2002B05D1012210211148D2
S315080016D805F090FE0AE000F05BF80B4B1B88002B20
S315080016E804D1002210210B4805F084FE0D4B40F268
S315080016F852321A820C4B05221A820C4B05221A8280
S3150800170800BF80BD2C050020180500204C050020C8
S31508001718D3040020000400481A0500202D050020DF
S31508001728D20400207C05002050050020A8050020CA
S3150800173880B500AF114B01221A70114B114A5A6035
S315080017480F4B4FF000021A604FF460110E4806F06E
S315080017584AFB0E4B4FF4FA72C3F890210B4B4FF421
S31508001768FA72C3F81022094B4FF4FA72C3F890229A
S31508001778F021054806F0DDFA00BF80BDD404002034
S31508001788B006002000002F45A00700200068014089
S3150800179880B500AF234B00221A70234A13786FF3DB
S315080017A8C3031370214A13786FF341031370204B50
S315080017B800221A701F4B204A5A601E4B4FF000022F
S315080017C81A60F0211D4806F0E1FA1D4B00221A801E
S315080017D8184BD3ED007AB7EE007A77EE877A194B6D
S315080017E8FCEEE77A17EE902AC3F81C22114BD3EDC4
S315080017F8007A9FED157A77EE877A124BFCEEE77A30
S3150800180817EE902AC3F824220E4B0022C3F890211B
S315080018180C4B0022C3F810220A4B0022C3F8902268
S3150800182800BF80BDD2040020480500204C050020D2
S31508001838D4040020B006002000002F45A007002089
S315080018481A0500200068014000D0844580B500AF1D
S315080018580F21024806F06DFA00BF80BDA0070020D8
S3150800186880B500AF0F21044806F090FA034B002212
S315080018781A8000BF80BD00BFA007002018050020F9
S3150800188880B500AF1D4BD3ED017AB0EE670A1C4848
S3150800189801F0C0F91A4B5B88002B08D0194A13784F
S315080018A843F004031370032001F072FE07E0154A9B
S315080018B813786FF382031370032001F085FE124B29
S315080018C8D3ED017AB0EE670A104801F0EDF80F4B30
S315080018D85B88002B08D00B4A137843F00203137071
S315080018E8022001F055FE07E0064A13786FF3410314
S315080018F81370022001F068FE00BF80BD8C0400202A
S31508001908A805002030050020840400207C05002056
S3150800191880B500AF2A4B5B88002B08D0294A137874
S3150800192843F008031370112001F032FE07E0254A38
S3150800193813786FF3C3031370112001F045FE224B89
S315080019485B88002B08D01F4A137843F001031370ED
S315080019580E2001F01DFE07E01A4A13786FF30003FC
S3150800196813700E2001F030FE184B5B88002B08D048
S31508001978144A137843F004031370102001F008FE84
S3150800198807E0104A13786FF382031370102001F0EA
S315080019981BFE0F4B5B88002B08D00A4A137843F0C6
S315080019A8020313700F2001F0F3FD07E0054A1378C8
S315080019B86FF3410313700F2001F006FE00BF80BDC8
S315080019C8D40500203C0500202C060020000600202F
S315080019D85806002080B500AFFFF710FCFFF752FC49
S315080019E85F4B9B6807EE903AF8EE677A9FED5D7A4B
S315080019F867EE877A5C4BC3ED007A5B4B93ED007A0A
S31508001A085A4BD3ED2E7A27EE277A584BD3ED2D7AF3
S31508001A1837EE277A554BD3ED307A67EE277A524B4D
S31508001A28C3ED007A504B1B68514A1360504B93ED2F
S31508001A38007A4E4BD3ED186A4D4B93ED016A4C4B21
S31508001A48D3ED007A76EE677A66EEA77A77EE277A86
S31508001A58474BC3ED017A464B5B68434A5360404B94
S31508001A681B6907EE903AF8EE677A9FED3E7A67EEBD
S31508001A78877A404BC3ED007A3E4B93ED007A3B4B91
S31508001A88D3ED3A7A27EE277A384BD3ED397A37EEFB
S31508001A98277A364BD3ED3C7A67EE277A354BC3ED72
S31508001AA8007A344B1B68344A1360334B93ED007A3B
S31508001AB82E4BD3ED1B6A304B93ED016A2E4BD3EDB3
S31508001AC8007A76EE677A66EEA77A77EE277A2A4B51
S31508001AD8C3ED017A284B5B68264A5360204B1B687E
S31508001AE807EE903AF8EE677A9FED1E7A67EE877AE0
S31508001AF8224BC3ED007A214B93ED007A1B4BD3EDAD
S31508001B08227A27EE277A194BD3ED217A37EE277AE8
S31508001B18164BD3ED247A67EE277A184BC3ED007A6D
S31508001B28164B1B68164A1360154B93ED007A0F4B34
S31508001B38D3ED1A6A124B93ED016A114BD3ED007A6D
S31508001B4876EE677A66EEA77A77EE277A0C4BC3EDB8
S31508001B58017A0B4B5B68094A536000BF80BD00BF1A
S31508001B6868020020ED32533A7C0400209C020020CB
S31508001B78E00400208C040020F004002084040020DF
S31508001B88E80400200000000080B500AFFFF7BEFBA0
S31508001B98FFF7FAFBB64B5B6A07EE903AF8EE677AF8
S31508001BA89FEDB47A67EE877AB34BC3ED007AB24BEA
S31508001BB81B68B24A1360B14B93ED007AB04BD3ED6C
S31508001BC81C6AAE4B93ED016AAC4BD3ED007A76EE00
S31508001BD8677A66EEA77A77EE277AA84BC3ED017A75
S31508001BE8A64B5B68A44A5360A34B93ED017AA44BB2
S31508001BF8D3ED587A27EE277AA14BD3ED577A37EEE5
S31508001C08277A9F4BD3ED5A7A67EE277A9A4BC3ED14
S31508001C18017A994BD3ED017AB0EE670AFFF7DEFB36
S31508001C28F0EE407A974BC3ED007A914B9B6A07EE24
S31508001C38903AF8EE677A9FED8F7A67EE877A924B35
S31508001C48C3ED007A904B1B68904A13608F4B93ED4F
S31508001C58007A8B4BD3ED1D6A8C4B93ED016A8B4B3F
S31508001C68D3ED007A76EE677A66EEA77A77EE277A64
S31508001C78864BC3ED017A854B5B68834A5360824B72
S31508001C8893ED017A7E4BD3ED5E7A27EE277A7C4B65
S31508001C98D3ED5D7A37EE277A794BD3ED607A67EE1E
S31508001CA8277A794BC3ED017A774B5B681846FEF7B6
S31508001CB813FC6BA3D3E90023FEF790FD02460B46F7
S31508001CC8104619464FF00002714BFEF75DFC0246B6
S31508001CD80B4610461946FEF769FE03466D4A136019
S31508001CE86C4BD3ED007A9FED6C7A77EEC77A17EED0
S31508001CF8900AFEF7F1FB5CA3D3E90023FEF76EFD15
S31508001D0802460B4610461946FEF750FE0346634A36
S31508001D181360624BD3ED007AB0EE670AFFF7CAFB89
S31508001D28F0EE407A5E4BC3ED007A514B1B6A07EE1C
S31508001D38903AF8EE677A9FED4F7A67EE877A594BAD
S31508001D48C3ED007A574B1B68574A1360564B93EDF9
S31508001D58007A4B4BD3ED1F6A534B93ED016A524BEE
S31508001D68D3ED007A76EE677A66EEA77A77EE277A63
S31508001D784D4BC3ED017A4C4B5B684A4A5360494B55
S31508001D8893ED017A3E4BD3ED527A27EE277A3C4BF0
S31508001D98D3ED517A37EE277A394BD3ED547A67EE75
S31508001DA8277A404BC3ED017A3E4BD3ED017AB0EE64
S31508001DB8670AFFF713FBF0EE407A3C4BC3ED007A4F
S31508001DC82B4BDB6907EE903AF8EE677A9FED297A8E
S31508001DD867EE877A364BC3ED007A354B1B68354A6A
S31508001DE81360344B93ED007A254BD3ED1E6A314BBD
S31508001DF893ED016A2F4BD3ED007A76EE677A66EE95
S31508001E08A77A77EE277A2B4BC3ED017A294B5B68BD
S31508001E18274A5360264B93ED017A194BD3ED4C7A32
S31508001E2827EE277A164BD3ED4B7A37EE277A144BDB
S31508001E38D3ED4E7A67EE277A1D4BC3ED017A1C4B14
S31508001E48D3ED017AB0EE670AFFF7C8FAF0EE407AE2
S31508001E58194BC3ED007AFFF75BFD00BF80BD00BFD5
S31508001E683BDF4F8D972E1640F6285C8FC2F5D83F74
S31508001E7868020020ED32533A94040020F804002042
S31508001E889C020020BC0400209C04002000050020B9
S31508001E9800408F40B40400200000C842B80400205F
S31508001EA8C0040020A404002008050020C40400205B
S31508001EB8AC04002010050020C804002080B400AF38
S31508001EC82F4B1B88002B03D02D4B1B88042B0FD9AF
S31508001ED82B4B1B880D2B03D9294B1B88112B07D98C
S31508001EE8274B1B881A2B07D9254B1B881E2B03D86B
S31508001EF8244B0122DA613DE0214B1B88042B03D9C8
S31508001F081F4B1B88082B0FD91D4B1B88112B03D970
S31508001F181B4B1B88152B07D9194B1B881E2B08D951
S31508001F28174B1B88222B04D8164B42F64542DA6112
S31508001F3820E0134B1B88082B03D9114B1B880D2B44
S31508001F480FD90F4B1B88152B03D90D4B1B881A2B3A
S31508001F5807D90B4B1B88222B08D9094B1B88272B1B
S31508001F6804D8084B45F68A02DA6103E0054B0022D5
S31508001F78DA6100BF00BFBD465DF8047B704700BF45
S31508001F88F20800200068014080B400AF474B1B8860
S31508001F98002B13D0454B1B880D2B0FD8444B1B8899
S31508001FA8A3F5FA6307EE903AB8EEE77ADFED416AE9
S31508001FB8C7EE267A404BC3ED007A2EE03B4B1B88CA
S31508001FC80D2B13D9394B1B881A2B0FD83B4B1B885B
S31508001FD8A3F5FA6307EE903AB8EEE77ADFED356AC5
S31508001FE8C7EE267A344BC3ED007A16E02F4B1B88CA
S31508001FF81A2B12D92D4B1B88272B0ED8304B1B882A
S31508002008A3F5FA6307EE903AB8EEE77ADFED296AA0
S31508002018C7EE267A284BC3ED007A2A4BD3F89430B4
S3150800202807EE903AB8EE677A234BD3ED007A27EE97
S31508002038277A244BD3F8943007EE903AF8EE677A65
S3150800204877EE277AB6EE007A67EE877AFCEEE77AB5
S3150800205817EE903A9AB21B4BC3F8A820164BD3ED45
S31508002068007AB1EE677A174BD3F8143107EE903A2F
S31508002078F8EE677A27EE277A124BD3F8143107EE6B
S31508002088903AF8EE677A77EE277AB6EE007A67EE30
S31508002098877AFCEEE77A17EE903A9AB2094BC3F8B4
S315080020A8282100BFBD465DF8047B7047F20800206A
S315080020B8CC04002000007A4400000020CE0400204A
S315080020C8D00400200068014080B500AF2B4B0122E0
S315080020D89A622B4B1A68294B9B6A01334FF4FA61AB
S315080020E801FB03F3B2FBF3F39BB25A1E234BDA62E6
S315080020F8244B00229A62224B1A68224B9B6A0133A8
S3150800210841F2883101FB03F3B2FBF3F39BB25A1E83
S315080021181C4BDA621C4BF9229A62194B19681A4B3E
S315080021289B6A5A1C13469B001344DB00B1FBF3F366
S315080021389BB25A1E144BDA62144808F031FB14484D
S3150800214808F02EFB134808F02BFB102212491348F7
S3150800215803F0CCF90021124804F084FA102110483B
S3150800216804F080FA4FF47C110E4805F03CFE00F0A6
S31508002178EFFA00F0E5FA00BF80BD00BF0010004086
S31508002188B80100200014004000080040A8090020F3
S31508002198F4090020400A0020E4010020B8060020BF
S315080021A884070020A007002080B400AF634B644A68
S315080021B81A60624B634A9A60604BD3ED026A5F4BBA
S315080021C8D3ED007A9FED607A27EE877AC6EE877A8E
S315080021D85A4BC3ED017A594B594ADA60574B5B4A51
S315080021E81A62564BD3ED026A544B93ED037AC6EE40
S315080021F8877A524BC3ED047A504B554A5A624F4B6D
S31508002208534ADA614D4B534A9A624C4B514ADA6241
S315080022184A4B514A1A63494B504AC3F8B820474BA8
S315080022284FF00002C3F8B420444B4FF07E52C3F86F
S31508002238C020424B4A4AC3F8E820404B494AC3F8EB
S31508002248E4203E4B93ED3E7A3C4BD3ED3D7A67EE60
S31508002258277A9FED457A67EE877A384BC3ED3B7A3E
S31508002268364B4FF07E52C3F8F820344B4FF07E5267
S31508002278C3F8F420314B3D4AC3F8F0202F4B3C4AAB
S31508002288C3F888202D4B3B4AC3F884202B4B4FF0C4
S315080022987E52C3F89020294B374AC3F86021274B4A
S315080022A84FF00002C3F85C21244B4FF07E52C3F866
S315080022B86821224B4FF07E52C3F878211F4B4FF006
S315080022C80002C3F874211D4B4FF07E52C3F88021D3
S315080022D81A4B294AC3F84821184B4FF00002C3F88D
S315080022E84421164B4FF07E52C3F85021134B224A0D
S315080022F8C3F83021114B4FF00002C3F82C210F4BBD
S315080023084FF07E52C3F838210C4B1C4A1A670B4B00
S315080023181A4A5A67094B194ADA67084B174A9A67D5
S31508002328064B174A1A66054B154A9A66034B144A0A
S31508002338DA6600BFBD465DF8047B70479C0200203C
S3150800234800007A4400606A46A470DD3F00004842EF
S3150800235800409C459A99993F00409C460000A04039
S3150800236883C017418B6C11C1ED32533A0AD7233F04
S315080023784841BA43C807BDBE00BC3C46CDCC4C3F15
S3150800238852B87E3F80B500AF01F086F9FFF722FB09
S31508002398FFF776FA00F0B6FD00F0B6FCFEF7DCFDAE
S315080023A800F00CF94D4B1B78012B1AD14C4B93EDC9
S315080023B8007A4B4BD3ED017AB4EE677AF1EE10FA50
S315080023C80FD1474BD3ED017AF5EEC07AF1EE10FA44
S315080023D807DD424B00221A70424A137843F002037B
S315080023E81370414B1B78012B24D19FED401ADFED62
S315080023F83F0A9FED3F0A3A4800F08BFD384BD3ED6C
S31508002408007AB7EE007A77EE877A3A4BFCEEE77AE7
S3150800241817EE902AC3F81C22314BD3ED007A9FEDAC
S31508002428367A77EE877A334BFCEEE77A17EE902AF8
S31508002438C3F82422314B1B88012B49D1294B1B7819
S3150800244803F00103DBB2002B42D12D4B1B78013375
S31508002458DAB22B4B1A702A4B1B78632B02D9284BF6
S3150800246800221A70234BD3F81431264A1360244BDA
S315080024781B78254A9B00134493ED007A234BD3ED2A
S31508002488007A67EE277AB7EE007A37EE877A1D4B19
S315080024981B685B0807EE903AF8EE677A67EE277AC4
S315080024A81B4BC3ED007A1A4BD3ED007A114BFCEEA1
S315080024B8E77A17EE902AC3F8A820154BD3ED007AC9
S315080024C80C4BFCEEE77A17EE902AC3F8282102E0AF
S315080024D8FFF75AFD00BF00BF80BD00BFD404002027
S315080024E8B00600204C050020D204002025C9174450
S315080024F800409C450068014000D084451805002026
S3150800250824050020280500200800002004000020D3
S315080025180000002080B500AF204B1B6801331F4A16
S3150800252813601E4B1B6803F00103002B02D11C4BDA
S3150800253801221A70194B19681A4BA3FB01239A0929
S3150800254813469B0013441B01CA1A002A02D1164BCC
S3150800255801221A70114B1A68144BA3FB0213DB09E4
S315080025684FF4FA6101FB03F3D31A002B02D1104B7F
S3150800257801221A70094B1A680E4BA3FB02135B0952
S31508002588642101FB03F3D31A002B04D1FFF7FCFAE5
S31508002598094B01221A7000BF80BD00BF54040020F1
S315080025A850040020CDCCCCCC51040020D34D621069
S315080025B8520400201F85EB515304002080B500AF54
S315080025C8424B1B78002B0AD101222021404804F0EF
S315080025D811FF404B01221A70FFF704F860E03D4BE3
S315080025E800221A7000222021394804F003FF3A4BCA
S315080025F81B7803F00803DBB2002B13D0374B1B7884
S31508002608002B0FD1364B1B78002B0BD1354B1B787B
S3150800261803F00103DBB2002B04D1304B01221A70F8
S31508002628FFF786F82C4B1B7803F00103DBB2002B67
S3150800263814D02B4B1B78002B10D12A4B1B7803F090
S315080026480203DBB2002B09D0264B1B7803F00103E3
S31508002658DBB2002B02D100F04BF821E01E4B1B78A9
S3150800266803F00103DBB2002B03D11D4B1B78012BAA
S3150800267814D01C4B1B7803F00103DBB2002B0DD1D9
S31508002688184B1B7803F00203DBB2002B08D0124B59
S315080026981B7803F00803DBB2002B01D100F03CF8E5
S315080026A8114B1B78002B0ED1104B1B6801330F4AB0
S315080026B81360094A137843F00203137000220821AD
S315080026C8034804F097FE00BF80BD00BF2E05002012
S315080026D8000400481C05002048050020D2040020F4
S315080026E8D30400204C0500202F05002020050020D3
S315080026F880B500AF064B01221A70064B1B7803F00B
S315080027081003DBB2002B01D0FFF7A0F800BF80BD8D
S31508002718D30400204805002080B500AF064A137880
S315080027286FF300031370054B00221A70FFF798F829
S31508002738FFF72EF800BF80BD48050020D304002007
S3150800274880B400AF00BFBD465DF8047B7047000043
S3150800275880B400AF9E4B00221A809D4B00225A80F7
S315080027689B4B00229A809A4B0322DA80984B0022C8
S315080027781A81974B0022DA60954B11221A82944BDC
S31508002788944A5A61924B00221A83914B4FF00002E1
S31508002798DA618F4B002283F828208D4B002283F8B4
S315080027A820208B4B012283F82120894B8A4A5A62BA
S315080027B8874B41F288325A85884B00221A80874B04
S315080027C800225A80854B00229A80844B0322DA809D
S315080027D8824B00221A81814B0022DA607F4B112234
S315080027E81A827E4B7B4A5A617C4B00221A837B4BA2
S315080027F84FF00002DA61794B002283F82820774BDC
S31508002808002283F82020754B012283F82120734B78
S31508002818714A5A62714B41F288325A85704B0022C6
S315080028281A806F4B00225A806D4B00229A806C4B97
S315080028380322DA806A4B00221A81694B0022DA6081
S31508002848674B40F2A6421A82654B624A5A61644B44
S315080028584FF461721A83624B5E4ADA61604B002252
S3150800286883F828205E4B002283F820205C4B01223F
S3150800287883F821205A4B584A5A62594B41F28832F2
S315080028885A85584B00221A80564B00225A80554BB7
S3150800289800229A80534B0322DA80524B00221A816F
S315080028A8504B00225A814F4B5A229A814D4B494A1E
S315080028B81A614C4B5F229A824A4B464A9A61494B9F
S315080028C8032283F82420474B00221A77454B012216
S315080028D85A77444B404A1A62424B41F28832DA84A4
S315080028E8414B00221A80404B00225A803E4B002258
S315080028F89A803D4B0322DA803B4B00221A813A4BD9
S315080029080022DA60384B5A221A82374B374A5A61FC
S31508002918354B50221A83344B344ADA61324B00223B
S3150800292883F82820304B002283F820202E4B0122DA
S3150800293883F821202C4B4FF47A725A622A4B2822A4
S315080029485A852B4B00221A80294B00225A80284B7D
S3150800295800229A80264B0322DA80254B00221A8108
S31508002968234B0022DA60224B5A221A82204B1F4A2E
S315080029785A611F4B50221A831D4B1C4ADA611C4B9D
S31508002988002283F828201A4B002283F82020184BA7
S31508002998012283F82120164B4FF47A725A62144B97
S315080029A828225A85134B00221A80124B00225A8075
S315080029B8104B00229A800F4B0322DA800D4B002217
S315080029C81A810C4B0022DA600A4B5A221A8213E043
S315080029D8500500200AD7A33B80510100A80500200E
S315080029E87C05002084060020D405002000007A44CF
S315080029F8000600202C060020284B294A5A61274B36
S31508002A0850221A83254B264ADA61244B002283F87A
S31508002A182820224B002283F82020204B012283F805
S31508002A2821201E4B4FF47A725A621C4B28225A856B
S31508002A381C4B00221A801B4B00225A80194B002275
S31508002A489A80184B0322DA80164B00221A81154BF6
S31508002A580022DA60134B5A221A82124B104A5A611C
S31508002A68104B50221A830F4B0D4ADA610D4B002280
S31508002A7883F828200B4B002283F82020094B0122D3
S31508002A8883F82120074B4FF47A725A62054B28229D
S31508002A985A8500BFBD465DF8047B70472C060020A2
S31508002AA800007A445806002080B483B000AF7860E6
S31508002AB887ED000A7B685B88012B33D07B681B8A05
S31508002AC807EE903AF8EEE77A97ED007AB4EEE77AE9
S31508002AD8F1EE10FA06DD7B681B8801339AB27B682B
S31508002AE81A8002E07B6800221A807B681B8807EE3A
S31508002AF8903AB8EEE77A7B685B8D07EE903AF8EE7F
S31508002B08E76A7B68D3ED057A66EEA77AB4EEE77AC4
S31508002B18F1EE10FA48DD7B6800221A807B680122EC
S31508002B285A8041E07B6893F82030002B3CD07B68BC
S31508002B381B89002B38D17B681B8B07EE903AF8EE79
S31508002B48E77A97ED007AB4EEE77AF1EE10FA06D549
S31508002B587B689B8801339AB27B689A8002E07B6817
S31508002B6800229A807B689B8807EE903AB8EEE77A47
S31508002B787B685B8D07EE903AF8EEE76A7B68D3EDDB
S31508002B88077A66EEA77AB4EEE77AF1EE10FA0BDD65
S31508002B987B6800229A807B6800225A807B68DB88DB
S31508002BA801339AB27B68DA807B6893F82130002B68
S31508002BB81CD07B68DB88002B18D07B68DB685A1C1E
S31508002BC87B68DA607B68DA687B685B8D19467B68A0
S31508002BD85B6A01FB03F39A4208D97B680022DA602C
S31508002BE87B68DB88013B9AB27B68DA807B68DA887F
S31508002BF87B6893F828309BB29A4205D97B680022ED
S31508002C08DA807B6801221A8100BF0C37BD465DF859
S31508002C18047B704780B483B000AF786087ED000AFC
S31508002C287B685B88012B38D07B681B8A07EE903A4D
S31508002C38F8EEE77A97ED007AB4EEE77AF1EE10FA4D
S31508002C4806DD7B681B8801339AB27B681A8002E026
S31508002C587B6800221A807B681B8807EE903AB8EED4
S31508002C68E77A7B685B8D07EE903AF8EEE76A7B6849
S31508002C78D3ED057A66EEA77AB4EEE77AF1EE10FA9E
S31508002C880BDD7B6800221A807B6801225A807B68E4
S31508002C98DB8801339AB27B68DA807B6893F821303F
S31508002CA8002B1CD07B68DB88002B18D07B68DB6878
S31508002CB85A1C7B68DA607B68DA687B685B8D19461C
S31508002CC87B685B6A01FB03F39A4208D97B68002292
S31508002CD8DA607B68DB88013B9AB27B68DA807B68B6
S31508002CE8DA887B6893F828309BB29A4205D97B68BC
S31508002CF80022DA807B6801221A8100BF0C37BD469C
S31508002D085DF8047B7047000080B400AF0F4B1B7852
S31508002D18002B03D10E4B1B78002B11D00D4A1378C4
S31508002D2843F0010313700C4B1B780133DAB20A4BD4
S31508002D381A70094B1B78FA2B02D9074B00221A700E
S31508002D4800BFBD465DF8047B704700BF300500200C
S31508002D58400500204C050020AD06002080B500AFD0
S31508002D68574A13786FF300031370564B00221A70EC
S31508002D78554A13786FF341031370FFF7CDFC002209
S31508002D880821524804F036FB514B1B78002B1CD0FF
S31508002D98FFF7D6FC4E4B00221A70122000F014FCDE
S31508002DA8132000F011FC142000F00EFC152000F08A
S31508002DB80BFC162000F008FC172000F005FC18206C
S31508002DC800F002FC192000F0FFFB424B1B7803F0C9
S31508002DD80103DBB2002B05D03F4B00225A800120A5
S31508002DE800F0F2FB3B4B1B7803F00203DBB2002B27
S31508002DF805D03A4B00225A80022000F0E5FB354BF5
S31508002E081B7803F00403DBB2002B05D0344B0022F1
S31508002E185A80032000F0D8FB324B1B7803F00203D4
S31508002E28DBB2002B05D0304B00225A80052000F073
S31508002E38CBFB2E4B1B7803F00803DBB2002B05D01F
S31508002E482B4B00225A80112000F0BEFB274B1B781B
S31508002E5803F00103DBB2002B05D0264B00225A806B
S31508002E680E2000F0B1FB214B1B7803F00403DBB2FC
S31508002E78002B05D0204B00225A80102000F0A4FB16
S31508002E881A4B1B7803F00203DBB2002B05D01B4B49
S31508002E9800225A800F2000F097FB194B1B7803F085
S31508002EA80403DBB2002B09D0FFF74AFC144A13784F
S31508002EB86FF382031370082000F086FB00BF80BDFD
S31508002EC84C050020AC0600204805002000040048F0
S31508002ED84005002030050020500500207C0500200C
S31508002EE8A805002034050020840600203C0500209B
S31508002EF8D40500202C0600200006002058060020CD
S31508002F083805002080B400AF00BFBD465DF8047BD5
S31508002F18704780B487B000AFF86087ED020AC7ED3E
S31508002F28010A87ED001AD7ED016A97ED027AC6EE0F
S31508002F38877AC7ED057AD7ED006A97ED027AC6EE65
S31508002F48877AC7ED047AFB6893ED007AFB68D3EDB8
S31508002F58016AD7ED057A77EEA77A76EEE77AB4EEC0
S31508002F68E77AF1EE10FA0AD8FB6893ED007AD7EDFE
S31508002F78057A77EE277AFB68C3ED007A1FE0FB68C7
S31508002F8893ED007AFB68D3ED016AD7ED047A77EEFC
S31508002F98A77A76EEA77AB4EEE77AF1EE10FA0ADBA4
S31508002FA8FB6893ED007AD7ED047A77EE677AFB68C3
S31508002FB8C3ED007A03E0FB685A68FB681A6000BF2D
S31508002FC81C37BD465DF8047B7047000080B58CB099
S31508002FD800AF07F1240300221A605A609A603B1D65
S31508002FE820220021184608F0A9FF384B4FF0A042C6
S31508002FF81A60364B4FF440325A60344B00229A60B6
S31508003008324B0022DA60314B00221A612F4B01221B
S315080030185A612E4B04229A612C4B00221A772B4BA5
S3150800302800225A77294B02221A62284B002283F873
S315080030382420264B0022DA62244B00221A63234BEB
S31508003048002283F83820214B0022DA631F4B00221E
S3150800305883F840201D4802F08DF80346002B01D05E
S3150800306801F06CF900237B6207F124031946174817
S3150800307803F0BEF80346002B01D001F05FF9144BA4
S315080030887B600623BB600023FB607F233B61042328
S315080030987B610023BB613B1D19460C4802F018FBEF
S315080030A80346002B01D001F049F90C23BB603B1DF0
S315080030B81946064802F00CFB0346002B01D001F01E
S315080030C83DF900BF3037BD4680BD00BFB8060020B1
S315080030D80200300480B59EB000AF786007F164033B
S315080030E800221A605A609A60DA601A6107F11003BA
S315080030F854220021184608F021FF7B681B68B3F1A3
S31508003108A04F5FD14FF400433B614FF000537B65F6
S3150800311807F11003184606F0F3FF0346002B01D003
S3150800312801F00CF9294BDB6C284A43F40053D364A5
S31508003138264BDB6C03F40053FB60FB68234BDB6C04
S31508003148224A43F00103D364204BDB6C03F00103E6
S31508003158BB60BB6803237B660323BB660023FB6649
S3150800316807F1640319464FF0904003F0A9FF184B7E
S31508003178184A1A60164B05225A60154B00229A609F
S31508003188134B0022DA60124B80221A61104B4FF457
S3150800319880725A610E4B4FF480629A610C4B00227A
S315080031A8DA610B4B00221A62094803F017FD034639
S315080031B8002B01D001F0C2F87B68054A5A65044A13
S315080031C87B68936200BF7837BD4680BD0010024011
S315080031D8240700200800024080B58CB000AF3B46A3
S315080031E830220021184608F0A9FE1B4B1B4A1A6014
S315080031F8194803F014FA0346002B01D001F09EF88B
S3150800320802233B6000233B7100237B710023BB60CC
S315080032180023FB6000233B6100237B610123BB611C
S315080032280023FB613B46002219460B4803F014FBB2
S315080032380346002B01D001F081F83B4610221946B7
S31508003248054803F009FB0346002B01D001F076F880
S3150800325800BF3037BD4680BD8407002000080050EF
S3150800326880B58AB000AF786007F1140300221A60A7
S315080032785A609A60DA601A617B681B68194A934231
S315080032882CD1194BDB6C184A43F48033D364164B9C
S31508003298DB6C03F480333B613B69134BDB6C124AE6
S315080032A843F00103D364104BDB6C03F00103FB60A6
S315080032B8FB6830237B610323BB610023FB6107F1AD
S315080032C8140319464FF0904003F0FAFE0022002135
S315080032D8362003F070F9362003F087F900BF28373F
S315080032E8BD4680BD000800500010024080B582B077
S315080032F800AF124B9B6C114A43F0040393640F4BBF
S315080033089B6C03F004037B607B680C4B9B6C0B4A35
S3150800331843F001039364094B9B6C03F001033B607C
S315080033283B68002200210B2003F045F90B2003F027
S315080033385CF900BF0837BD4680BD00BF00100240D3
S3150800334880B400AF00BFBD465DF8047B704780B403
S3150800335800AF00BFBD465DF8047B704780B400AF78
S3150800336800BFBD465DF8047B704780B400AF00BF58
S31508003378BD465DF8047B704780B400AF00BFBD4604
S315080033885DF8047B704780B400AF00BFBD465DF8A2
S31508003398047B704780B400AF00BFBD465DF8047B68
S315080033A8704780B400AF00BFBD465DF8047B704720
S315080033B880B400AF00BFBD465DF8047B704780B493
S315080033C800AF00BFBD465DF8047B704780B400AF08
S315080033D800BFBD465DF8047B7047000080B582B023
S315080033E800AF0346FB71FB79092B1BDC002B3DDB81
S315080033F8092B3BD801A252F823F000BF693400080C
S3150800340833340008393400083F34000845340008C6
S315080034184B34000851340008573400085D34000856
S3150800342863340008632B1ED020E0FFF789FF1DE0F0
S31508003438FFF78DFF1AE0FFF791FF17E0FFF795FFF3
S3150800344814E0FFF799FF11E0FFF79DFF0EE0FFF77D
S31508003458A1FF0BE0FFF7A5FF08E0FFF7A9FF05E0C6
S31508003468FFF7ADFF02E0FFF7B1FF00BF00BF08375F
S31508003478BD4680BD80B582B000AF0346FB71FB79B7
S31508003488092B1BDC002B3DDB092B3BD801A252F884
S3150800349823F000BF01350008CB340008D1340008F2
S315080034A8D7340008DD340008E3340008E934000896
S315080034B8EF340008F5340008FB340008632B1ED0E7
S315080034C820E0FFF73DFF1DE0FFF741FF1AE0FFF791
S315080034D845FF17E0FFF749FF14E0FFF74DFF11E036
S315080034E8FFF751FF0EE0FFF755FF0BE0FFF759FF0F
S315080034F808E0FFF75DFF05E0FFF761FF02E0FFF769
S3150800350865FF00BF00BF0837BD4680BD80B485B0DB
S3150800351800AF78600023FB730023BB730BE0BB7B0B
S315080035287A6813441B78002B09D0FB7B0133FB739D
S31508003538BB7B0133BB73BB7B1C2BF0D900E000BFF8
S31508003548FB7B18461437BD465DF8047B70470000B8
S3150800355880B485B000AF0346FB710023FB730AE00D
S31508003568FB7B0A4AD35CFA799A4201D1002306E022
S31508003578FB7B0133FB73FB7B1C2BF1D90123184614
S315080035881437BD465DF8047B704700BF98010020D4
S3150800359880B584B000AF0346FB71FB791846FFF780
S315080035A8D7FF0346002B08D00648FFF7AFFF0346A8
S315080035B8FB73FB7B0349FA79CA5400BF1037BD462B
S315080035C880BD00BF9801002080B485B000AF0346CF
S315080035D8FB7100233B7300237B730DE07B7B164A44
S315080035E8D35CFA799A4204D101233B737B7BFB733C
S315080035F805E07B7B01337B737B7B1C2BEED93B7BFE
S31508003608012B13D1FB7BBB7309E0BB7B5A1CBB7B25
S315080036180949895C084AD154BB7B0133BB73BB7B18
S315080036281B2BF2D9BB7B044A0021D15400BF14379F
S31508003638BD465DF8047B70479801002080B483B0C6
S3150800364800AF0346FB71FB79632B06D1104B632247
S315080036585A700F4B63221A7014E0FA790D4BA3FBC4
S315080036680213D9080B469B000B445B00D31ADAB23F
S31508003678074B5A70FB79074AA2FB0323DB08DAB221
S31508003688034B1A7000BF0C37BD465DF8047B7047BC
S315080036989C070020CDCCCCCC80B500AF0D4B1B7851
S315080036A8002B05D10C4B1B781846FFF797FE08E048
S315080036B8084B1B78012B04D1074B5B781846FFF794
S315080036C8D9FE044B1B7883F00103DAB2014B1A7052
S315080036D800BF80BD980700209C07002080B582B0EF
S315080036E800AF1148FFF712FF0346FB71FB79002B61
S315080036F815D00E4B1B781A460B4B9B5C1846FFF7E2
S315080037089DFF0A4B1B780133DAB2084B1A70074B30
S315080037181B78FA799A4202D1044B00221A7000BF24
S315080037280837BD4680BD00BF980100209E070020C7
S3150800373880B58CB000AF07F11C0300221A605A60E6
S315080037489A60DA601A619D4BDB6C9C4A43F0100359
S31508003758D3649A4BDB6C03F01003BB61BB69974BC8
S31508003768DB6C964A43F00403D364944BDB6C03F092
S3150800377804037B617B69914BDB6C904A43F0200319
S31508003788D3648E4BDB6C03F020033B613B698B4BA0
S31508003798DB6C8A4A43F00103D364884BDB6C03F07D
S315080037A80103FB60FB68854BDB6C844A43F0020324
S315080037B8D364824BDB6C03F00203BB60BB687F4BA8
S315080037C8DB6C7E4A43F00803D3647C4BDB6C03F05E
S315080037D808037B607B6800224EF20801784803F0EC
S315080037E809FE002242F21001764803F003FE002281
S315080037F80421754803F0FEFD00224FF486514FF068
S31508003808904003F0F7FD00224FF487616F4803F0F4
S31508003818F1FD00224FF460616D4803F0EBFD4EF2AE
S315080038280803FB6101233B6202237B620023BB6218
S3150800383807F11C031946624803F042FC1023FB6192
S315080038484FF404133B6202237B6207F11C031946F3
S315080038585B4803F035FC42F21003FB6101233B6227
S3150800386802237B620023BB6207F11C0319465548ED
S3150800387803F026FC4FF40073FB614FF404133B6214
S3150800388802237B6207F11C0319464F4803F018FC0C
S315080038984FF48063FB614FF404133B6200237B6299
S315080038A807F11C031946484803F00AFC40F203339B
S315080038B8FB6100233B6202237B6207F11C0319465E
S315080038C8404803F0FDFB0C23FB614FF404133B62ED
S315080038D802237B6207F11C0319463A4803F0F0FBFA
S315080038E80423FB6101233B6202237B620023BB623C
S315080038F807F11C031946344803F0E2FB4FF48653D4
S31508003908FB6101233B6202237B620023BB6207F14A
S315080039181C0319464FF0904003F0D2FB4FF4876317
S31508003928FB6101233B6202237B620023BB6207F12A
S315080039381C031946254803F0C3FB4FF46063FB6173
S3150800394801233B6202237B620023BB6207F11C0347
S3150800395819461F4803F0B4FB4EF2F903FB6100232E
S315080039683B6202237B6207F11C031946184803F0D9
S31508003978A7FB00220021082002F01DFE082002F0FD
S3150800398834FE00220021092002F015FE092002F063
S315080039982CFE002200210A2002F00DFE0A2002F061
S315080039A824FE00220021282002F005FE282002F025
S315080039B81CFE00BF3037BD4680BD00BF0010024060
S315080039C80010004800080048001400480004004891
S315080039D8000C004880B5B8B000AF07F1D003002244
S315080039E81A605A609A60DA6007F1B40300221A600E
S315080039F85A609A60DA601A615A619A6107F1540343
S31508003A0860220021184608F099FA07F148030022AF
S31508003A181A605A609A6007F124032422002118467E
S31508003A2808F08CFA3B1D20220021184608F086FA71
S31508003A38C74BC84A1A60C64B00225A60C44B0022B4
S31508003A489A60C34803F012FD0346002B01D000F024
S31508003A5875FC0C21BE4803F0D9FD0346002B01D09E
S31508003A6800F06CFC0A21BA4803F028FE0346002B2E
S31508003A7801D000F063FC48F2D043C7F8D0300023E1
S31508003A88C7F8D4300523C7F8D8300823C7F8DC3078
S31508003A9807F1D0031A460021AD4803F043FE034652
S31508003AA8002B01D000F04AFC0023C7F8B4304FF4C5
S31508003AB80033C7F8BC300023C7F8C0300023C7F85E
S31508003AC8CC3007F1B4031A460021A14803F0DFFEFB
S31508003AD80346002B01D000F031FC00237B65002348
S31508003AE8BB650023FB6500233B6601237B66002331
S31508003AF8BB660023FB6600233B6700237B6700231E
S31508003B08BB670023FB670023C7F880300023C7F884
S31508003B1884300023C7F888300023C7F88C30002380
S31508003B28C7F890300023C7F894304FF48073C7F865
S31508003B3898300023C7F89C300023C7F8A43002231E
S31508003B48C7F8A8300023C7F8AC300023C7F8B03048
S31508003B5807F154031A4600217D4803F00BFE034675
S31508003B68002B01D000F0EAFB07F154031A4601219D
S31508003B78774803F0FFFD0346002B01D000F0DEFB73
S31508003B8807F154031A460221714803F0F3FD034668
S31508003B98002B01D000F0D2FB0023C7F89C3007F1B0
S31508003BA854031A4603216A4803F0E4FD0346002B2A
S31508003BB801D000F0C3FB0023C7F898300023C7F8E4
S31508003BC8A83007F154031A460421614803F0D2FDC8
S31508003BD80346002B01D000F0B1FB0023BB6407F1B4
S31508003BE84803012200215A4803F004FF0346002B24
S31508003BF801D000F0A3FB0323BB6407F148030422A2
S31508003C080021534803F0F6FE0346002B01D000F0C6
S31508003C1895FB4FF4A0537B624FF4FA73BB620023FB
S31508003C28FB6200233B6300237B634FF4FA73BB6391
S31508003C380023FB6300233B6400237B6407F124030A
S31508003C481A460021424803F055FE0346002B01D0C8
S31508003C5800F074FB07F124031A4601213C4803F0D7
S31508003C6849FE0346002B01D000F068FB4FF4805349
S31508003C787B6240F2B313BB6240F2B313BB6307F12E
S31508003C8824031A460221324803F034FE0346002B61
S31508003C9801D000F053FB07F124031A4603212C48E8
S31508003CA803F028FE0346002B01D000F047FB00234B
S31508003CB87B600023BB600023FB6000233B61002375
S31508003CC87B610023BB610023FB6100233B623B1D2C
S31508003CD8012200211E4803F0FBFF0346002B01D0F2
S31508003CE800F02CFB3B1D04220121194803F0F0FFC4
S31508003CF80346002B01D000F021FB0823BB601023E4
S31508003D08FB603B1D10220221114803F0E1FF034620
S31508003D18002B01D000F012FB3B1D402203210C4862
S31508003D2803F0D6FF0346002B01D000F007FB00235B
S31508003D38BB600023FB603B1D02220021044803F0F8
S31508003D48C7FF0346002B07D000F0F8FA04E000BFC7
S31508003D58A0070020006801403B1D0822012176487B
S31508003D6803F0B6FF0346002B01D000F0E7FA3B1D27
S31508003D7820220221704803F0ABFF0346002B01D02E
S31508003D8800F0DCFA3B1D802203216B4803F0A0FFF4
S31508003D980346002B01D000F0D1FA07F1D0031A46E2
S31508003DA80121654803F0BEFC0346002B01D000F04C
S31508003DB8C5FA07F1B4031A4601215F4803F067FDFF
S31508003DC80346002B01D000F0B9FA0023BB6407F1BB
S31508003DD8480301220121584803F00CFE0346002B2C
S31508003DE801D000F0ABFA0323BB6407F148030422A9
S31508003DF80121514803F0FEFD0346002B01D000F0CF
S31508003E089DFA42F23413C7F8D03007F1D0031A46A0
S31508003E180221494803F086FC0346002B01D000F02E
S31508003E288DFA0023C7F8B83007F1B4031A460221F9
S31508003E38414803F02CFD0346002B01D000F07EFA1A
S31508003E480023BB6407F14803012202213A4803F01C
S31508003E58D1FD0346002B01D000F070FA41F29A030F
S31508003E68BB640023FB6400233B6507F14803022271
S31508003E780221314803F0BEFD0346002B01D000F0AD
S31508003E885DFA07F1D0031A4603212B4803F04AFCCA
S31508003E980346002B01D000F051FA07F1B4031A467D
S31508003EA80321254803F0F3FC0346002B01D000F054
S31508003EB845FA0023BB6407F14803012203211E487B
S31508003EC803F098FD0346002B01D000F037FA41F2BB
S31508003ED89A03BB6407F1480302220321164803F034
S31508003EE889FD0346002B01D000F028FA4FF6DF7348
S31508003EF8C7F8D0300023C7F8D83007F1D0031A46D8
S31508003F0804210D4803F00EFC0346002B01D000F0EF
S31508003F1815FA07F1B4031A460421074803F0B7FC53
S31508003F280346002B01D000F009FA034800F026F8EA
S31508003F3800BFE037BD4680BDA007002080B485B025
S31508003F4800AF78607B681B680A4A93420BD10A4B14
S31508003F581B6E094A43F080631366074B1B6E03F012
S31508003F688063FB60FB6800BF1437BD465DF8047BB9
S31508003F78704700BF006801400010024080B58AB04B
S31508003F8800AF786007F1140300221A605A609A6035
S31508003F98DA601A617B681B68204A93423AD1204B3B
S31508003FA8DB6C1F4A43F00203D3641D4BDB6C03F03A
S31508003FB802033B613B691A4BDB6C194A43F0010360
S31508003FC8D364174BDB6C03F00103FB60FB684FF403
S31508003FD870437B610223BB610023FB6103233B62B9
S31508003FE80D237B6207F1140319460E4803F068F897
S31508003FF84FF470637B610223BB610023FB610323D3
S315080040083B620D237B6207F1140319464FF0904073
S3150800401803F056F800BF2837BD4680BD0068014042
S31508004028001002400004004880B500AF1B4B1C4A2C
S315080040381A601A4B1B4A5A60184B00229A60174B8B
S315080040480122DA60154B00221A61144B00225A61C4
S31508004058124B00229A61114B0022DA610F4B00229B
S315080040681A620E4804F05AFB0346002B01D000F0EA
S3150800407865F90021094805F0C9F90346002B01D05E
S3150800408800F05CF90021054805F00BFA0346002BF9
S3150800409801D000F053F900BF80BD00BF9C0800207E
S315080040A800840040FBA7A03080B59EB000AF7860BA
S315080040B807F1640300221A605A609A60DA601A6186
S315080040C807F1100354220021184607F037FF7B68CA
S315080040D81B681F4A934236D14FF400333B610023CD
S315080040E8BB6307F11003184606F00AF80346002BC7
S315080040F801D000F023F9174BDB6C164A43F004038A
S31508004108D364144BDB6C03F00403FB60FB68C02321
S315080041187B661223BB660023FB6600233B670823DE
S315080041287B6707F1640319460B4802F0C9FF094B78
S31508004138DB6D084A43F00203D365064BDB6D03F0D3
S315080041480203BB60BB6800BF7837BD4680BD00BFA9
S3150800415800840040001002400008004880B500AFFF
S3150800416800F055FD00F094F8FFF7E2FAFFF7BEF8FD
S31508004178FFF730FC00F01EFBFFF72EF8FFF754FF99
S3150800418800F0E2F800F0C6FB00F010FC00F03AFA7E
S3150800419800F08CFA00F0D8FAFEF718FFFCF7F2FFE1
S315080041A800F0C0F803461A462E4B1A802D4B1B887A
S315080041B8002B03D02B4B1B88272B07D92A4A1378A1
S315080041C843F0040313701C20FFF7E2F9FDF77CFFA0
S315080041D8FEF7A2FAFDF772FE244B1B7803F00203DA
S315080041E8DBB2002B01D0FEF7B9FD214B1B78012B5A
S315080041F804D1FCF7FBFF1E4B00221A701D4B1B78D7
S31508004208012B0AD11C4B1A781C4B1A701C4B1A78AE
S315080042181C4B1A70174B00221A701B4B1B78012B64
S3150800422802D1194B00221A70184B1B78012BD3D1CF
S31508004238FFF754FA104B00221A70114B00221A7015
S31508004248124B00221A70094B1B7803F02003DBB2C5
S31508004258002BC1D0054A13786FF345131370FCF782
S31508004268B9FFB9E7F20800204405002048050020F0
S315080042785004002051040020F0080020F40800200B
S31508004288F1080020F50800205304002052040020F5
S3150800429880B594B000AF07F11803382200211846F4
S315080042A807F04CFE3B1D00221A605A609A60DA60D5
S315080042B81A61002005F042F90123BB614FF48033E7
S315080042C8FB6102237B630323BB630623FB63552336
S315080042D83B6402237B640223BB640223FB6407F165
S315080042E81803184605F0DEF90346002B01D000F03E
S315080042F825F80F237B600323BB600023FB6000239C
S315080043083B614FF480637B613B1D0421184605F029
S31508004318DBFC0346002B01D000F010F800BF50372D
S31508004328BD4680BD80B582B000AFFDF7FDF80346EF
S31508004338FB80FB8818460837BD4680BD80B400AFA9
S3150800434872B600BFFEE7000080B500AF1B4B1C4ADB
S315080043581A601A4B4FF482725A60184B00229A60F8
S31508004368164B4FF4E062DA60144B00221A61134BBD
S3150800437800225A61114B4FF400729A610F4B1022B2
S31508004388DA610E4B00221A620C4B00225A620B4B5A
S3150800439800229A62094B0722DA62084B00221A633E
S315080043A8064B08225A63054806F0F8F80346002B18
S315080043B801D0FFF7C3FF00BF80BD00BFF808002083
S315080043C8003C014080B58AB000AF786007F1140355
S315080043D800221A605A609A60DA601A617B681B685C
S315080043E8174A934227D1174B1B6E164A43F40043C4
S315080043F81366144B1B6E03F400433B613B69114B70
S31508004408DB6C104A43F01003D3640E4BDB6C03F0E5
S315080044181003FB60FB6864237B610223BB610023EE
S31508004428FB6100233B6205237B6207F114031946E7
S31508004438054802F045FE00BF2837BD4680BD00BFC7
S31508004448003C0140001002400010004880B582B0C8
S3150800445800AF114B1B6E104A43F0010313660E4B4F
S315080044681B6E03F001037B607B680B4B9B6D0A4A46
S3150800447843F080539365084B9B6D03F080533B606C
S315080044883B6800F049FC022000F032FC05F0FAF817
S3150800449800BF0837BD4680BD0010024080B400AF93
S315080044A8FEE780B400AFFEE780B400AFFEE780B44D
S315080044B800AFFEE780B400AFFEE780B400AF00BFE8
S315080044C8BD465DF8047B704780B400AF00BFBD46A3
S315080044D85DF8047B704780B400AF00BFBD465DF841
S315080044E8047B704780B500AF00F0E4FB00BF80BDD1
S315080044F880B500AF042002F095FF00BF80BD80B5E7
S3150800450800AF082002F08EFF00BF80BD80B500AF5F
S31508004518102002F087FF064A137843F00103137048
S31508004528FEF7FAF81220FFF733F800BF80BD00BF80
S315080045384005002080B500AF024802F072FC00BFB3
S3150800454880BD00BF2407002080B500AF024806F0EA
S315080045589FF900BF80BD00BF5C09002080B500AF89
S31508004568024806F095F900BF80BD00BFA8090020DB
S3150800457880B500AF4FF4806002F054FF054A1378FF
S3150800458843F010031370FEF7C7F81620FFF700F874
S3150800459800BF80BD4005002080B500AF044806F07E
S315080045A877F9044802F0CAF8FDF7B4FF00BF80BDE2
S315080045B8F40900208407002080B500AF054806F0F6
S315080045C867F910220449054800F090FFFDF7DAFE5E
S315080045D800BF80BD400A0020E4010020B80600207C
S315080045E880B400AF064BD3F88830054A43F4700305
S315080045F8C2F8883000BFBD465DF8047B704700BF27
S3150800460800ED00E080B588B000AF07F1100300227E
S315080046181A605A609A60DA603B1D00221A605A606E
S315080046289A60204B204A1A601E4B00225A601D4B7E
S3150800463800229A601B4B4FF6FF72DA60194B00226C
S315080046481A61184B00225A61164B00229A611548BE
S3150800465806F04FF80346002B01D0FFF76FFE4FF41C
S3150800466880533B6107F1100319460E4806F060FAB5
S315080046780346002B01D0FFF761FE00237B60002369
S31508004688BB600023FB603B1D1946064806F0E8FC9C
S315080046980346002B01D0FFF751FE00BF2037BD4661
S315080046A880BD00BF5C090020002C014080B588B099
S315080046B800AF07F1100300221A605A609A60DA60A0
S315080046C83B1D00221A605A609A601D4B1D4A1A60E3
S315080046D81B4B00225A601A4B00229A60184B4FF659
S315080046E8FF72DA60164B00221A61154B00229A618E
S315080046F8134805F0FEFF0346002B01D0FFF71EFE00
S315080047084FF480533B6107F1100319460C4806F02D
S315080047180FFA0346002B01D0FFF710FE00237B6033
S315080047280023FB603B1D1946054806F099FC03461D
S31508004738002B01D0FFF702FE00BF2037BD4680BD1B
S31508004748A80900200008004080B584B000AF3B1DCA
S3150800475800221A605A609A60144B154A1A60134B5D
S3150800476800225A60114B00229A60104B4FF6FF72CE
S31508004778DA600E4B00229A610C4805F0BAFF034628
S31508004788002B01D0FFF7DAFD00237B600023FB60CE
S315080047983B1D1946054806F063FC0346002B01D065
S315080047A8FFF7CCFD00BF1037BD4680BDF4090020D1
S315080047B80010004080B584B000AF3B1D00221A6087
S315080047C85A609A60144B154A1A60134B00225A60AD
S315080047D8114B00229A60104B4FF6FF72DA600E4BA7
S315080047E800229A610C4805F084FF0346002B01D085
S315080047F8FFF7A4FD00237B600023FB603B1D1946D9
S31508004808054806F02DFC0346002B01D0FFF796FD58
S3150800481800BF1037BD4680BD400A0020001400407E
S3150800482880B586B000AF78607B681B68344A9342C7
S3150800483814D1344B1B6E334A43F400631366314B69
S315080048481B6E03F400637B617B6900220021192033
S3150800485801F0B1FE192001F0C8FE4CE07B681B6820
S31508004868294A934214D1274B9B6D264A43F00403E1
S315080048789365244B9B6D03F004033B613B69002257
S3150800488800211E2001F097FE1E2001F0AEFE32E040
S315080048987B681B681D4A934214D11A4B9B6D194AAB
S315080048A843F010039365174B9B6D03F01003FB60E9
S315080048B8FB6800220021362001F07DFE362001F033
S315080048C894FE18E07B681B68114A934213D10D4B76
S315080048D89B6D0C4A43F0200393650A4B9B6D03F0C6
S315080048E82003BB60BB6800220021372001F063FE65
S315080048F8372001F07AFE00BF1837BD4680BD00BFD5
S31508004908002C01400010024000080040001000403A
S315080049180014004080B500AF224B234A1A60214B89
S315080049284FF4E1325A601F4B00229A601D4B002251
S31508004938DA601C4B00221A611A4B0C225A61194B71
S3150800494800229A61174B0022DA61164B00221A6276
S31508004958144B00225A62134B00229A62114806F039
S315080049685BFC0346002B01D0FFF7E8FC00210D4845
S3150800497807F0F6F90346002B01D0FFF7DFFC002104
S31508004988084807F02BFA0346002B01D0FFF7D6FC98
S31508004998044807F0ACF90346002B01D0FFF7CEFC14
S315080049A800BF80BD8C0A0020004C004080B500AFCF
S315080049B8224B234A1A60214B4FF4E1325A601F4BA7
S315080049C800229A601D4B0022DA601C4B00221A61ED
S315080049D81A4B0C225A61194B00229A61174B00226E
S315080049E8DA61164B00221A62144B00225A62134BDC
S315080049F800229A62114806F00FFC0346002B01D0E4
S31508004A08FFF79CFC00210D4807F0AAF90346002B7E
S31508004A1801D0FFF793FC0021084807F0DFF90346A1
S31508004A28002B01D0FFF78AFC044807F060F9034613
S31508004A38002B01D0FFF782FC00BF80BD200B0020A9
S31508004A480050004080B5A2B000AF786007F1740343
S31508004A5800221A605A609A60DA601A6107F1200320
S31508004A6854220021184607F069FA7B681B684E4AE3
S31508004A78934239D108233B6200233B6307F120039D
S31508004A88184605F03DFB0346002B01D0FFF756FCF8
S31508004A98464B9B6D454A43F400239365434B9B6DF0
S31508004AA803F40023FB61FB69404BDB6C3F4A43F088
S31508004AB80403D3643D4BDB6C03F00403BB61BB6999
S31508004AC84FF440637B670223BB670023FB67002319
S31508004AD8C7F880300523C7F8843007F174031946E8
S31508004AE8334802F0EDFA5BE07B681B68314A93426B
S31508004AF856D110233B6200237B6307F1200318462F
S31508004B0805F0FEFA0346002B01D0FFF717FC274BE2
S31508004B189B6D264A43F480139365244B9B6D03F4D7
S31508004B2880137B617B69214BDB6C204A43F00403C5
S31508004B38D3641E4BDB6C03F004033B613B691B4BD8
S31508004B48DB6C1A4A43F00803D364184BDB6C03F092
S31508004B580803FB60FB684FF480537B670223BB6737
S31508004B680023FB670023C7F880300523C7F884307D
S31508004B7807F1740319460E4802F0A2FA04237B6764
S31508004B880223BB670023FB670023C7F88030052389
S31508004B98C7F8843007F174031946074802F090FAF3
S31508004BA800BF8837BD4680BD004C00400010024053
S31508004BB80008004800500040000C00480D4885468B
S31508004BC8FFF70EFD0C480D490D4A002302E0D4589C
S31508004BD8C4500433C4188C42F9D30A4A0A4C002331
S31508004BE801E013600432A242FBD307F083F9FFF70A
S31508004BF8B5FAFEE70000022000000020C4010020E4
S31508004C089CC70008C4010020B80B0020FEE780B541
S31508004C1882B000AF0023FB71032001F0C1FC0F200E
S31508004C2800F00EF80346002B02D00123FB7101E0C1
S31508004C38FFF70CFCFB7918460837BD4680BD00000F
S31508004C4880B584B000AF78600023FB73164B1B68E9
S31508004C58002B22D0154B1A68134B1B684FF47A7130
S31508004C68B1FBF3F3B2FBF3F3184601F0CCFC0346A9
S31508004C78002B0FD17B680F2B09D8002279684FF0D3
S31508004C88FF3001F098FC0A4A7B68136007E00123A5
S31508004C98FB7304E00123FB7301E00123FB73FB7B31
S31508004CA818461037BD4680BDC0010020B80100204F
S31508004CB8BC01002080B400AF054B1A68054B1B6879
S31508004CC81344034A136000BFBD465DF8047B70476A
S31508004CD8B40B0020C001002080B400AF034B1B684A
S31508004CE81846BD465DF8047B704700BFB40B002024
S31508004CF880B483B000AF7860064B1B6823F00202C5
S31508004D0804497B6813430B6000BF0C37BD465DF842
S31508004D18047B70473000014080B400AF054B1B6820
S31508004D28044A23F00103136000BFBD465DF8047BFF
S31508004D38704700BF3000014080B483B000AF786088
S31508004D4839607B689B6823F47C123B681A437B6846
S31508004D589A6000BF0C37BD465DF8047B704780B47F
S31508004D6883B000AF786039607B689B6823F0E0728F
S31508004D783B681A437B689A6000BF0C37BD465DF8E6
S31508004D88047B704780B483B000AF78607B689B6803
S31508004D9803F0E07318460C37BD465DF8047B704788
S31508004DA880B487B000AFF860B9607A603B60FB688A
S31508004DB860331A46BB689B0013447B617B691A6893
S31508004DC8084B13407A6802F0F8413A680A431343D5
S31508004DD843F000427B691A6000BF1C37BD465DF880
S31508004DE8047B704700F0FF0380B485B000AF786095
S31508004DF839607B6860331A463B689B001344FB603E
S31508004E08FB681B6803F0F84318461437BD465DF877
S31508004E18047B704780B487B000AFF860B9607A60E1
S31508004E28FB6860331A46BB689B0013447B617B6941
S31508004E381B6823F000427B681A437B691A6000BF27
S31508004E481C37BD465DF8047B704780B487B000AF51
S31508004E58F860B9607A60FB6860331A46BB689B00DD
S31508004E6813447B617B691B6823F080727B681A434D
S31508004E787B691A6000BF1C37BD465DF8047B70471E
S31508004E8880B487B000AFF860B9607A60FB686033B1
S31508004E981A46BB689B0013447B617B691B6823F031
S31508004EA800727B681A437B691A6000BF1C37BD46C7
S31508004EB85DF8047B704780B483B000AF78603960CA
S31508004EC87B685B6923F000423B681A437B685A6132
S31508004ED800BF0C37BD465DF8047B704780B483B0C5
S31508004EE800AF78607B68DB6803F44063002B01D168
S31508004EF8012300E0002318460C37BD465DF8047BFD
S31508004F08704780B487B000AFF860B9607A60FB680C
S31508004F1830331A46BB681B0A9B0003F00C0313447C
S31508004F287B617B691A68BB6803F01F031F2101FAB6
S31508004F3803F3DB431A407B689B0E03F01F01BB682B
S31508004F4803F01F0301FA03F31A437B691A6000BFCB
S31508004F581C37BD465DF8047B704780B487B000AF40
S31508004F68F860B9607A60FB6814331A46BB685B0E4A
S31508004F789B0003F0040313447B617B691A68BB68CA
S31508004F881B0D03F01F03072101FA03F3DB431A403D
S31508004F98BB681B0D03F01F03796801FA03F31A436C
S31508004FA87B691A6000BF1C37BD465DF8047B7047ED
S31508004FB880B485B000AFF860B9607A60FB68D3F84A
S31508004FC8B020BB68C3F31203DB431A407B6803F0BF
S31508004FD818030849D940BB680B40C3F312031A43A0
S31508004FE8FB68C3F8B02000BF1437BD465DF8047BDC
S31508004FF8704700BFFFFF070080B483B000AF786032
S315080050087B689B6803F01F0318460C37BD465DF896
S31508005018047B704780B483B000AF78607B689B6870
S3150800502823F0204323F03F037A68936000BF0C37C8
S31508005038BD465DF8047B704780B483B000AF7860DE
S315080050487B689B6803F00053B3F1005F01D1012325
S3150800505800E0002318460C37BD465DF8047B704708
S3150800506880B483B000AF78607B689B6823F01043F0
S3150800507823F03F0343F080527B689A6000BF0C37E1
S31508005088BD465DF8047B704780B483B000AF78608E
S315080050987B689B6803F08053B3F1805F01D10123D5
S315080050A800E0002318460C37BD465DF8047B7047B8
S315080050B880B483B000AF78607B689B6823F00043B0
S315080050C823F03F0343F001027B689A6000BF0C3760
S315080050D8BD465DF8047B704780B483B000AF78603E
S315080050E87B689B6803F00103012B01D1012300E0CB
S315080050F8002318460C37BD465DF8047B704780B414
S3150800510883B000AF78607B689B6823F0004323F080
S315080051183F0343F004027B689A6000BF0C37BD461C
S315080051285DF8047B704780B483B000AF78607B680D
S315080051389B6803F00403042B01D1012300E0002334
S3150800514818460C37BD465DF8047B704780B483B0B3
S3150800515800AF78607B689B6803F00803082B01D1C9
S31508005168012300E0002318460C37BD465DF8047B8A
S315080051787047000090B589B000AF78600023FB77C8
S315080051880023FB607B68002B01D10123A9E17B681A
S315080051985B69002B7B68DB6D002B09D17868FDF706
S315080051A899FF7B6800221A667B68002283F85820D4
S315080051B87B681B681846FFF73FFF0346002B04D099
S315080051C87B681B681846FFF725FF7B681B68184627
S315080051D8FFF75AFF0346002B15D17B681B6818464C
S315080051E8FFF73EFF9C4B1B689B099C4AA2FB0323BF
S315080051F89B0901335B00FB6002E0FB68013BFB602F
S31508005208FB68002BF9D17B681B681846FFF73CFF3B
S315080052180346002B0DD17B68DB6D43F010027B68D3
S31508005228DA657B681B6E43F001027B681A66012300
S31508005238FB777B681B681846FFF775FF78617B68FC
S31508005248DB6D03F01003002B40F042817B69002BCD
S3150800525840F03E817B68DB6D23F4817343F00202DC
S315080052687B68DA657B681B681846FFF735FF0346CF
S31508005278002B41D17B681B68B3F1A04F04D07B682B
S315080052881B68774A93420FD14FF0A040FFF724FFD7
S3150800529804467348FFF720FF03462343002B0CBF39
S315080052A801230023DBB212E06E48FFF715FF044618
S315080052B86D48FFF711FF03461C436C48FFF70CFFC0
S315080052C803462343002B0CBF01230023DBB2002B24
S315080052D812D07B681B68B3F1A04F04D07B681B68A3
S315080052E85F4A934201D1624A00E0624A7B685B687A
S315080052F819461046FFF720FD7B685B7F5A037B68D3
S31508005308DB6B1A437B68DB681A437B689B681A431E
S315080053187B6893F824301B041343BB617B6893F8B6
S315080053282430012B06D17B689B6A013B5B04BA696A
S315080053381343BB617B68DB6A002B09D07B68DB6A91
S3150800534803F478727B681B6B1343BA691343BB6112
S315080053587B681B68DA68484B13407A681268B9692B
S315080053680B43D3607B681B681B6923F040617B6825
S315080053785A6B7B681B680A431A617B681B68184660
S31508005388FFF7E4FE38617B69002B7FD13B69002B68
S315080053987CD17B681B7F9A037B6893F838305B005F
S315080053A81343BB617B681B68DB6823F4804323F0DF
S315080053B802037A681268B9690B43D3607B681B696C
S315080053C8002B17D07B681B681A697B681B6842F430
S315080053D880321A617B681B68D3F8C03023F47F5380
S315080053E823F03F037A6811697A6812680B43C2F892
S315080053F8C03013E07B681B681A697B681B6822F44F
S3150800540880321A617B681B68D3F8C0307A681268DC
S3150800541823F47F5323F03F03C2F8C0307B6893F820
S315080054284030012B2AD17B681B681B6923F4FF636C
S3150800543823F004037A68516C7A68926C11437A6887
S31508005448D26C11437A68126D0A431A437B681B6843
S3150800545842F001021A6119E0B8010020632D3E05E1
S3150800546800010050000400500005005000060050D6
S3150800547800030050000700500740F0FF7B681B68D0
S315080054881A697B681B6822F001021A617B685B69E6
S31508005498012B0CD17B681B681B6B23F00F017B68FB
S315080054A81B6A5A1E7B681B680A431A6307E07B68EF
S315080054B81B681A6B7B681B6822F00F021A637B68E5
S315080054C8DB6D23F0030343F001027B68DA6507E026
S315080054D87B68DB6D43F010027B68DA650123FB778E
S315080054E8FB7F18462437BD4690BD00BF80B586B0F9
