:020000040800F2
:1000000000000220990C0008510B0008570B000853
:100010005D0B0008630B0008690B0008000000007E
:100020000000000000000000000000006F0B00084E
:100030007D0B0008000000008B0B0008990B0008E6
:10004000E90C0008E90C0008E90C0008E90C0008BC
:10005000E90C0008E90C0008E90C0008E90C0008AC
:10006000E90C0008E90C0008E90C0008E90C00089C
:10007000E90C0008E90C0008E90C0008E90C00088C
:10008000E90C0008E90C0008E90C0008E90C00087C
:10009000E90C0008E90C0008E90C0008E90C00086C
:1000A000E90C0008E90C0008E90C0008E90C00085C
:1000B000E90C0008E90C0008E90C0008E90C00084C
:1000C000E90C0008E90C0008E90C0008E90C00083C
:1000D000E90C0008E90C0008E90C0008E90C00082C
:1000E000E90C0008E90C0008E90C0008E90C00081C
:1000F000E90C0008E90C0008E90C0008E90C00080C
:10010000E90C0008E90C0008E90C0008E90C0008FB
:10011000E90C0008E90C0008E90C0008A50B000830
:10012000E90C0008E90C0008E90C0008E90C0008DB
:10013000E90C0008E90C0008E90C0008E90C0008CB
:10014000E90C0008E90C0008E90C0008E90C0008BB
:10015000E90C0008E90C0008E90C0008E90C0008AB
:10016000E90C0008E90C0008E90C0008E90C00089B
:10017000E90C0008E90C0008E90C0008E90C00088B
:10018000E90C0008E90C0008E90C0008E90C00087B
:10019000E90C000800000000E90C0008E90C000868
:1001A000E90C0008E90C0008E90C0008E90C00085B
:1001B000E90C0008E90C0008E90C0008E90C00084B
:1001C000E90C0008E90C0008E90C0008E90C00083B
:0801D000E90C0008E90C00082D
:1001D80010B5054C237833B9044B13B10448AFF379
:1001E80000800123237010BDA4010020000000003E
:1001F8009C39000808B5034B1BB103490348AFF30A
:10020800008008BD00000000A80100209C390008FB
:1002180080B500AF0F4B00229A620F4B1A680D4B46
:100228009B6A013341F2883101FB03F3B2FBF3F31C
:100238009BB25A1E074BDA62084802F0F5FF4FF4EA
:10024800F011074801F053FD0F21054801F0F5FCB6
:1002580000BF80BD0014004098010020C4020020A7
:10026800C801002080B500AF4FF4C011094801F063
:100278003EFD094B4FF4FA72C3F89021064B4FF438
:10028800FA72C3F81022F021024801F0D6FC00BF30
:1002980080BD00BFC80100200068014080B500AFE4
:1002A800F021064801F0F6FC054B0022C3F8902126
:1002B800034B0022C3F8102200BF80BDC8010020F4
:1002C8000068014080B400AF234B1B780133DAB2D9
:1002D800214B1A70204B1B78632B02D91E4B00222E
:1002E8001A701E4BD3F814311D4A13601A4B1B7831
:1002F8001C4A9B00134493ED007A1B4BD3ED007A04
:1003080067EE277AB7EE007A37EE877A144B1B68C8
:100318005B0807EE903AF8EE677A67EE277A134B98
:10032800C3ED007A114BD3ED007A0C4BFCEEE77A63
:1003380017EE902AC3F8A8200C4BD3ED007A074B90
:10034800FCEEE77A17EE902AC3F8282100BFBD46D5
:100358005DF8047B704700BFC001002000680140C1
:10036800C401002008000020000000200400002034
:1003780080B485B000AF154BDB6C144A43F0200302
:10038800D364124BDB6C03F02003FB60FB680F4B5C
:10039800DB6C0E4A43F00203D3640C4BDB6C03F0B6
:1003A8000203BB60BB68094BDB6C084A43F00103DE
:1003B800D364064BDB6C03F001037B607B6800BFF2
:1003C8001437BD465DF8047B704700BF001002403B
:1003D80080B5B8B000AF07F1D00300221A605A60A8
:1003E8009A60DA6007F1B40300221A605A609A60D2
:1003F800DA601A615A619A6107F154036022002198
:10040800184603F0BFFA07F1480300221A605A6041
:100418009A6007F1240324220021184603F0B2FA57
:100428003B1D20220021184603F0ACFAC74BC84AEE
:100438001A60C64B00225A60C44B00229A60C34817
:1004480000F098FF0346002B01D000F050FB0C2170
:10045800BE4801F05FF80346002B01D000F047FBCF
:100468000A21BA4801F0AEF80346002B01D000F08B
:100478003EFB48F2D043C7F8D0300023C7F8D43049
:100488000523C7F8D8300823C7F8DC3007F1D003B4
:100498001A460021AD4801F0C9F80346002B01D0E7
:1004A80000F025FB0023C7F8B4304FF40033C7F839
:1004B800BC300023C7F8C0300023C7F8CC3007F1A0
:1004C800B4031A460021A14801F065F90346002B40
:1004D80001D000F00CFB00237B650023BB650023E3
:1004E800FB6500233B6601237B660023BB66002374
:1004F800FB6600233B6700237B670023BB67002361
:10050800FB670023C7F880300023C7F88430002336
:10051800C7F888300023C7F88C300023C7F890301C
:100528000023C7F894304FF48073C7F8983000233D
:10053800C7F89C300023C7F8A4300223C7F8A830B6
:100548000023C7F8AC300023C7F8B03007F15403D4
:100558001A4600217D4801F091F80346002B01D08E
:1005680000F0C5FA07F154031A460121774801F053
:1005780085F80346002B01D000F0B9FA07F15403BF
:100588001A460221714801F079F80346002B01D080
:1005980000F0ADFA0023C7F89C3007F154031A465F
:1005A80003216A4801F06AF80346002B01D000F0E5
:1005B8009EFA0023C7F898300023C7F8A83007F13F
:1005C80054031A460421614801F058F80346002BE9
:1005D80001D000F08CFA0023BB6407F14803012224
:1005E80000215A4801F08AF90346002B01D000F097
:1005F8007EFA0323BB6407F1480304220021534811
:1006080001F07CF90346002B01D000F070FA4FF49A
:10061800A0537B624FF4FA73BB620023FB62002392
:100628003B6300237B634FF4FA73BB630023FB63D4
:1006380000233B6400237B6407F124031A4600214E
:10064800424801F0DBF80346002B01D000F04FFAD6
:1006580007F124031A4601213C4801F0CFF803466C
:10066800002B01D000F043FA4FF480537B6240F234
:10067800B313BB6240F2B313BB6307F124031A46FA
:100688000221324801F0BAF80346002B01D000F0ED
:100698002EFA07F124031A4603212C4801F0AEF87C
:1006A8000346002B01D000F022FA00237B600023D0
:1006B800BB600023FB6000233B6100237B610023B8
:1006C800BB610023FB6100233B623B1D012200212B
:1006D8001E4801F081FA0346002B01D000F007FA0A
:1006E8003B1D04220121194801F076FA0346002B2C
:1006F80001D000F0FCF90823BB601023FB603B1D10
:1007080010220221114801F067FA0346002B01D09C
:1007180000F0EDF93B1D402203210C4801F05CFA82
:100728000346002B01D000F0E2F90023BB60002350
:10073800FB603B1D02220021044801F04DFA0346EC
:10074800002B07D000F0D3F904E000BFC801002057
:10075800006801403B1D08220121764801F03CFA5F
:100768000346002B01D000F0C2F93B1D20220221D4
:10077800704801F031FA0346002B01D000F0B7F9B8
:100788003B1D802203216B4801F026FA0346002B0B
:1007980001D000F0ACF907F1D0031A4601216548F1
:1007A80000F044FF0346002B01D000F0A0F907F148
:1007B800B4031A4601215F4800F0EDFF0346002B01
:1007C80001D000F094F90023BB6407F1480301222B
:1007D8000121584801F092F80346002B01D000F09F
:1007E80086F90323BB6407F1480304220121514819
:1007F80001F084F80346002B01D000F078F942F2AA
:100808003413C7F8D03007F1D0031A4602214948FB
:1008180000F00CFF0346002B01D000F068F900231C
:10082800C7F8B83007F1B4031A460221414800F06E
:10083800B2FF0346002B01D000F059F90023BB6436
:1008480007F14803012202213A4801F057F803460C
:10085800002B01D000F04BF941F29A03BB6400234E
:10086800FB6400233B6507F148030222022131485B
:1008780001F044F80346002B01D000F038F907F1E5
:10088800D0031A4603212B4800F0D0FE0346002B64
:1008980001D000F02CF907F1B4031A4603212548CA
:1008A80000F079FF0346002B01D000F020F9002367
:1008B800BB6407F14803012203211E4801F01EF81A
:1008C8000346002B01D000F012F941F29A03BB64F1
:1008D80007F1480302220321164801F00FF80346E6
:1008E800002B01D000F003F94FF6DF73C7F8D030C2
:1008F8000023C7F8D83007F1D0031A4604210D4861
:1009080000F094FE0346002B01D000F0F0F807F148
:10091800B4031A460421074800F03DFF0346002BA4
:1009280001D000F0E4F8034800F026F800BFE037F3
:10093800BD4680BDC801002080B485B000AF786096
:100948007B681B680A4A93420BD10A4B1B6E094A03
:1009580043F080631366074B1B6E03F08063FB60F4
:10096800FB6800BF1437BD465DF8047B704700BFC5
:10097800006801400010024080B58AB000AF78607E
:1009880007F1140300221A605A609A60DA601A614B
:100998007B681B68204A93423AD1204BDB6C1F4A84
:1009A80043F00203D3641D4BDB6C03F002033B618D
:1009B8003B691A4BDB6C194A43F00103D364174BAC
:1009C800DB6C03F00103FB60FB684FF470437B6151
:1009D8000223BB610023FB6103233B620D237B627F
:1009E80007F1140319460E4800F042FB4FF47063F8
:1009F8007B610223BB610023FB6103233B620D2360
:100A08007B6207F1140319464FF0904000F030FB69
:100A180000BF2837BD4680BD006801400010024075
:100A28000004004880B500AF00F05BF900F015F84D
:100A3800FFF79EFCFFF7CCFC00F0CEF8FFF7E8FBD1
:100A4800FFF710FC4FF47A7000F0BCF9FFF726FCB2
:100A58004FF47A7000F0B6F9F2E780B594B000AFC1
:100A680007F1180338220021184602F08BFF3B1DBE
:100A780000221A605A609A60DA601A61002001F058
:100A8800D1FD0123BB614FF48033FB6102237B63FB
:100A98000323BB630623FB6355233B6402237B6468
:100AA8000223BB640223FB6407F11803184601F014
:100AB8006DFE0346002B01D000F019F80F237B6070
:100AC8000323BB600023FB6000233B614FF480637A
:100AD8007B613B1D0421184602F06AF90346002B8E
:100AE80001D000F004F800BF5037BD4680BD80B487
:100AF80000AF72B600BFFEE780B582B000AF114B01
:100B08001B6E104A43F0010313660E4B1B6E03F075
:100B180001037B607B680B4B9B6D0A4A43F0805353
:100B28009365084B9B6D03F080533B603B6800F076
:100B38007FF9022000F068F901F018FE00BF0837BD
:100B4800BD4680BD0010024080B400AFFEE780B40F
:100B580000AFFEE780B400AFFEE780B400AFFEE769
:100B680080B400AFFEE780B400AF00BFBD465DF8BB
:100B7800047B704780B400AF00BFBD465DF8047BBE
:100B8800704780B400AF00BFBD465DF8047B704776
:100B980080B500AF00F0F8F800BF80BD80B500AFA9
:100BA800034802F0B9FBFFF78DFB00BF80BD00BF13
:100BB800C402002080B400AF064BD3F88830054A41
:100BC80043F47003C2F8883000BFBD465DF8047B6B
:100BD800704700BF00ED00E080B584B000AF3B1D5A
:100BE80000221A605A609A60144B154A1A60134B17
:100BF80000225A60114B00229A60104B4FF6FF7288
:100C0800DA600E4B00229A610C4802F0B5FA0346EE
:100C1800002B01D0FFF76BFF00237B600023FB60F4
:100C28003B1D1946054802F0ADFD0346002B01D0D7
:100C3800FFF75DFF00BF1037BD4680BDC40200202E
:100C48000014004080B584B000AF78607B681B68F2
:100C58000D4A934213D10D4B9B6D0C4A43F0200370
:100C680093650A4B9B6D03F02003FB60FB68002231
:100C78000021372000F0C7F9372000F0DEF900BF67
:100C88001037BD4680BD00BF001400400010024070
:100C98000D488546FFF78EFF0C480D490D4A002385
:100CA80002E0D458C4500433C4188C42F9D30A4A19
:100CB8000A4C002301E013600432A242FBD302F085
:100CC8003DFEFFF7AFFEFEE7000002200000002017
:100CD800A4010020CC390008A4010020140300203E
:100CE800FEE780B582B000AF0023FB71032000F05F
:100CF8007FF90F2000F00EF80346002B02D00123E5
:100D0800FB7101E0FFF7F8FEFB7918460837BD468E
:100D180080BD000080B584B000AF78600023FB730D
:100D2800164B1B68002B22D0154B1A68134B1B68F7
:100D38004FF47A71B1FBF3F3B2FBF3F3184600F00A
:100D48008AF90346002B0FD17B680F2B09D80022A4
:100D580079684FF0FF3000F056F90A4A7B68136053
:100D680007E00123FB7304E00123FB7301E0012387
:100D7800FB73FB7B18461037BD4680BDA0010020E1
:100D8800980100209C01002080B400AF054B1A6830
:100D9800054B1B681344034A136000BFBD465DF84A
:100DA800047B704710030020A001002080B400AF2E
:100DB800034B1B681846BD465DF8047B704700BFAF
:100DC8001003002080B584B000AF7860FFF7EEFF15
:100DD800B8607B68FB60FB68B3F1FF3F04D0094B48
:100DE8001B68FA681344FB6000BFFFF7DFFF024689
:100DF800BB68D31AFA689A42F7D800BF00BF103709
:100E0800BD4680BDA001002080B483B000AF7860EB
:100E1800064B1B6823F0020204497B6813430B60EE
:100E280000BF0C37BD465DF8047B704730000140B9
:100E380080B400AF054B1B68044A23F0010313601C
:100E480000BFBD465DF8047B704700BF300001401D
:100E580080B485B000AF78607B6803F00703FB605F
:100E68000C4BDB68BB60BA684FF6FF031340BB60EE
:100E7800FB681A02BB68134343F0BF6343F40033B3
:100E8800BB60044ABB68D36000BF1437BD465DF839
:100E9800047B704700ED00E080B400AF044BDB68D2
:100EA8001B0A03F007031846BD465DF8047B70472C
:100EB80000ED00E080B483B000AF0346FB7197F902
:100EC8000730002B0BDBFB7903F01F02074997F96A
:100ED80007305B09012000FA02F241F8232000BF25
:100EE8000C37BD465DF8047B704700BF00E100E0A9
:100EF80080B483B000AF03463960FB7197F90730BF
:100F0800002B0ADB3B68DAB20C4997F9073012016B
:100F1800D2B20B4483F800230AE03B68DAB20849EE
:100F2800FB7903F00F03043B1201D2B20B441A768B
:100F380000BF0C37BD465DF8047B704700E100E058
:100F480000ED00E080B489B000AFF860B9607A6065
:100F5800FB6803F00703FB61FB69C3F10703042B7C
:100F680028BF0423BB61FB690433062B02D9FB6944
:100F7800033B00E000237B614FF0FF32BB6902FABC
:100F880003F3DA43BB681A407B699A404FF0FF319C
:100F98007B6901FA03F3D9437B680B401343184676
:100FA8002437BD465DF8047B7047000080B582B0E9
:100FB80000AF78607B68013BB3F1807F01D30123E8
:100FC8000FE00A4A7B68013B53600F214FF0FF3066
:100FD800FFF78EFF054B00229A60044B07221A6028
:100FE800002318460837BD4680BD00BF10E000E06A
:100FF80080B582B000AF78607868FFF729FF00BF3E
:101008000837BD4680BD80B586B000AF0346B960DD
:101018007A60FB73FFF740FF78617A68B96878698E
:10102800FFF790FF024697F90F3011461846FFF771
:101038005FFF00BF1837BD4680BD80B582B000AFE6
:101048000346FB7197F907301846FFF733FF00BFD7
:101058000837BD4680BD80B582B000AF786078683B
:10106800FFF7A4FF034618460837BD4680BD0000B9
:1010780080B487B000AF7860396000237B615AE1A3
:101088003B681A6801217B6901FA03F31340FB608E
:10109800FB68002B00F04C813B685B6803F003039E
:1010A800012B05D03B685B6803F00303022B30D1AA
:1010B8007B689B683B617B695B00032202FA03F350
:1010C800DB433A6913403B613B68DA687B695B0044
:1010D80002FA03F33A6913433B617B683A699A6001
:1010E8007B685B683B6101227B6902FA03F3DB439F
:1010F8003A6913403B613B685B681B0903F00102D6
:101108007B6902FA03F33A6913433B617B683A69E6
:101118005A603B685B6803F00303032B17D07B68B6
:10112800DB683B617B695B00032202FA03F3DB4364
:101138003A6913403B613B689A687B695B0002FA35
:1011480003F33A6913433B617B683A69DA603B68A9
:101158005B6803F00303022B23D17B69DA087B6801
:10116800083253F822303B617B6903F007039B0088
:101178000F2202FA03F3DB433A6913403B613B68F1
:101188001A697B6903F007039B0002FA03F33A69C3
:1011980013433B617B69DA087B680832396943F895
:1011A80022107B681B683B617B695B00032202FAA3
:1011B80003F3DB433A6913403B613B685B6803F028
:1011C80003027B695B0002FA03F33A6913433B614C
:1011D8007B683A691A603B685B6803F44033002B0C
:1011E80000F0A6805B4B1B6E5A4A43F0010313665E
:1011F800584B1B6E03F00103BB60BB68564A7B6902
:101208009B08023352F823303B617B6903F00303E8
:101218009B000F2202FA03F3DB433A6913403B6158
:101228007B68B3F1904F1FD07B684C4A934219D02A
:101238007B684B4A934213D07B684A4A93420DD04D
:101248007B68494A934207D07B68484A934201D158
:1012580005230AE0062308E0042306E0032304E04C
:10126800022302E0012300E000237A6902F003026E
:10127800920093403A6913433B6137497B699B0865
:1012880002333A6941F82320394B9B683B61FB687C
:10129800DB433A6913403B613B685B6803F48013A6
:1012A800002B03D03A69FB6813433B61304A3B6922
:1012B80093602F4BDB683B61FB68DB433A69134063
:1012C8003B613B685B6803F40013002B03D03A6969
:1012D800FB6813433B61264A3B69D360244B5B6838
:1012E8003B61FB68DB433A6913403B613B685B68E1
:1012F80003F40033002B03D03A69FB6813433B61C6
:101308001B4A3B6953601A4B1B683B61FB68DB4314
:101318003A6913403B613B685B6803F48033002BF8
:1013280003D03A69FB6813433B61114A3B69136078
:101338007B6901337B613B681A687B6922FA03F396
:10134800002B7FF49DAE00BF00BF1C37BD465DF883
:10135800047B704700100240000001400004004870
:1013680000080048000C004800100048001400481D
:101378000004014080B586B000AF78607B68002B20
:1013880001D10123BEE07B68022283F8DD207B685F
:101398000022C3F8E0207B680022C3F8E4207B68C1
:1013A8000022C3F8E8207B680022C3F8EC207B68A1
:1013B8000022C3F8F0207B680022C3F8F4207B6881
:1013C8000022C3F8F8207B689B6803F00103002B18
:1013D8002ED07B681B684D4A93420BD14C4B1B6E39
:1013E8004B4A43F080631366494B1B6E03F08063DE
:1013F800FB60FB687B681B681B683B613B6923F4E7
:1014080040433B617B681B6903F440433A691343DB
:101418003B613B6923F440533B617B685B6903F4A0
:1014280040533A6913433B617B681B683A691A6009
:101438007868FFF781FA7B689B6803F00203002B4A
:1014480012D07B681B681B683B613B6923F44073BF
:101458003B617B68DB6803F440733A6913433B6183
:101468007B681B683A691A607B68012283F8DD2073
:101478007B68002283F8DC200023FB753EE0FA7DC0
:1014880079681346DB009B1A9B000B441833002233
:101498001A60FA7D79681346DB009B1A9B000B449F
:1014A8001C3300221A60FA7D79681346DB009B1A08
:1014B8009B000B44203300221A60FA7D796813469A
:1014C800DB009B1A9B000B44243300221A60FA7D30
:1014D80079681346DB009B1A9B000B4428330022D3
:1014E8001A60FA7D79681346DB009B1A9B000B444F
:1014F800303300221A60FB7D0133FB75FB7D062B20
:10150800BDD9002318461837BD4680BD0068014084
:101518000010024080B483B000AF786039607B6807
:1015280093F8DC30012B01D1022345E07B680122CE
:1015380083F8DC207B68022283F8DD203B68B3F166
:10154800FF3F14D17B681B68D3F8CC237B681B68EA
:1015580022F00202C3F8CC237B681B68D3F8CC23A3
:101568007B681B6842F00102C3F8CC231FE07B684C
:101578001B68D3F8CC237B681B6842F00202C3F8CF
:10158800CC237B681B68D3F8CC3323F00C017B6831
:101598001B683A680A43C3F8CC237B681B68D3F8F6
:1015A800CC237B681B6842F00102C3F8CC237B681C
:1015B800012283F8DD20002318460C37BD465DF86C
:1015C800047B704780B584B000AF78603960FFF75E
:1015D800EDFBF86014E03B68B3F1FF3F10D0FFF774
:1015E800E5FB0246FB68D31A3A689A4202D33B6885
:1015F800002B05D17B68072283F8DD20032311E047
:101608007B681B68D3F8883303F48033B3F5803FD5
:10161800E1D17B68012283F8DD207B68002283F812
:10162800DC20002318461037BD4680BD80B584B045
:1016380000AFF860B9607A60FB6893F8DD30DBB220
:10164800022B01D1022315E0FB68022283F8DD207A
:10165800BB68062B04D17968F86800F073FB04E0D6
:101668007A68B968F86800F09CFBFB68012283F887
:10167800DD20002318461037BD4680BD80B584B0F4
:1016880000AFF860B9607A60FB6893F8DD30DBB2D0
:10169800022B01D102237AE0FB6893F8DC30012B9E
:1016A80001D1022373E0FB68012283F8DC20FB6888
:1016B800022283F8DD20BB68062B04D17968F8681C
:1016C80000F0AFFB04E07A68B968F86800F046FCFF
:1016D8007B681968F868BA681346DB009B1A9B0098
:1016E8000344203319607B685968F868BA68134660
:1016F800DB009B1A9B000344243319607B689968BC
:10170800F868BA681346DB009B1A9B000344283329
:1017180019607B68D968F868BA681346DB009B1AB9
:101728009B0003442C3319607B681969F868BA6810
:101738001346DB009B1A9B00034430331960B968D9
:10174800F86800F001FFBB68062B17D07B68DB6ADE
:10175800002B13D1FB681A68BB680133DB01134403
:101768001B6823F400727B68DB6D5B02F96809680B
:101778001A43BB680133DB010B441A60FB68012282
:1017880083F8DD20FB68002283F8DC20002318465C
:101798001037BD4680BD80B584B000AFF860B96031
:1017A8007A60FB6893F8DD30DBB2022B01D10223AB
:1017B80020E0FB6893F8DC30012B01D1022319E00B
:1017C800FB68012283F8DC20FB68022283F8DD2015
:1017D8007A68B968F86800F047FDB968F86800F0F9
:1017E800B3FEFB68012283F8DD20FB68002283F842
:1017F800DC20002318461037BD4680BD80B487B072
:1018080000AFF860B9607A60FB6893F8DD30DBB24E
:10181800022B01D1022367E0FB6893F8DC30012B2F
:1018280001D1022360E0FB68012283F8DC20FB6819
:10183800022283F8DD207B681B6803F4E0537B6198
:101848007B685B68C3F308037A6913437B617B6831
:101858009B6803F400737A6913437B617B681B6997
:1018680003F480437A6913437B617B68DB6803F484
:1018780000437A6913437B617B685B691A041D4BDB
:1018880013407A6913437B617B689B6903F000739B
:101898007A6913437B617B681B6A03F080437A692A
:1018A80013437B617B68DB6903F000437A69134368
:1018B8007B61FB681A68BB68DB011344B8331A689C
:1018C8000D4B1340FA6811687A691A43BB68DB014B
:1018D8000B44B8331A60FB68012283F8DD20FB68EB
:1018E800002283F8DC20002318461C37BD465DF82B
:1018F800047B70470000FF010020003C80B485B0E5
:1019080000AFF860B9607A603B60FB6893F8DD303F
:10191800DBB2022B01D1022357E1FB6893F8DC30DC
:10192800012B01D1022350E1FB68012283F8DC205E
:10193800FB68022283F8DD20BB68062B40D17B6858
:10194800013B072B2AD801A252F823F07519000889
:1019580081190008A51900088D190008A5190008A3
:10196800A5190008A519000899190008FB681B6843
:101978003A681268DA611AE0FB681B683A6812680C
:101988005A6214E0FB681B683A6812689A620EE0B3
:10199800FB681B683A681268DA6208E0FB6807228D
:1019A80083F8DD20FB68002283F8DC2000BFFB6899
:1019B80093F8DD30DBB2072B40F0FE80012304E111
:1019C8007B68013B072B00F2E38001A252F823F069
:1019D800F91900080D1A0008991B0008C91A00080F
:1019E800991B0008991B0008991B0008DD1A0008BC
:1019F800FB6819683B681A68BB68DB010B449C33B9
:101A08001A60D1E0FB6819683B681A68BB68DB019B
:101A18000B44A4331A603B685B68002B3FD0FB681B
:101A28001A68BB680133DB0113441B68FA68116844
:101A380023F44052BB680133DB010B441A60FB6896
:101A48001A68BB680133DB0113441A683B685B689A
:101A5800F96809681A43BB680133DB010B441A6053
:101A68003B685B68B3F5005F09D1FB6819683B68A0
:101A78009A68BB68DB010B449C331A6091E03B68B1
:101A88005B68B3F5405F40F08C80FB6819683B6881
:101A98009A68BB68DB010B44A8331A6081E0FB68D5
:101AA8001A68BB680133DB0113441B68FA681168C4
:101AB80023F44052BB680133DB010B441A6070E029
:101AC800FB6819683B681A68BB68DB010B44A833DC
:101AD8001A6069E0FB6819683B681A68BB68DB0133
:101AE8000B44AC331A603B685B68002B3FD0FB6843
:101AF8001A68BB680133DB0113441B68FA68116874
:101B080023F44042BB680133DB010B441A60FB68D5
:101B18001A68BB680133DB0113441A683B685B68C9
:101B28009B00F96809681A43BB680133DB010B4461
:101B38001A603B685B68B3F5005F09D1FB681968F8
:101B48003B689A68BB68DB010B449C331A602AE047
:101B58003B685B68B3F5405F25D1FB6819683B6853
:101B68009A68BB68DB010B44A8331A601BE0FB686A
:101B78001A68BB680133DB0113441B68FA681168F3
:101B880023F44042BB680133DB010B441A600AE0CE
:101B9800FB68072283F8DD20FB68002283F8DC203D
:101BA80002E000BF00E000BFFB6893F8DD30DBB265
:101BB800072B01D1012308E0FB68012283F8DD200F
:101BC800FB68002283F8DC20002318461437BD4642
:101BD8005DF8047B704700BF80B584B000AFF86043
:101BE800B9607A603B60FB6893F8DD30DBB2022BAA
:101BF80001D102231DE0FB6893F8DC30012B01D1F1
:101C0800022316E0FB68012283F8DC20FB6802222D
:101C180083F8DD203B687A68B968F86800F084FBCF
:101C2800FB68012283F8DD20FB68002283F8DC20B2
:101C3800002318461037BD4680BD80B483B000AF7E
:101C4800786039607B6893F8DC30012B01D102237E
:101C58001AE07B68012283F8DC207B68022283F883
:101C6800DD207B681B68D3F894137B681B683A688F
:101C78000A43C3F894237B68012283F8DD207B683C
:101C8800002283F8DC20002318460C37BD465DF897
:101C9800047B704780B483B000AF786039607B689C
:101CA80093F8DC30012B01D102231AE07B68012272
:101CB80083F8DC207B68022283F8DD207B681B68C0
:101CC800D3F898137B681B683A680A43C3F89823CB
:101CD8007B68012283F8DD207B68002283F8DC2002
:101CE800002318460C37BD465DF8047B704780B466
:101CF80083B000AF786039607B6893F8DC30012BE3
:101D080001D1022318E07B68012283F8DC207B687C
:101D1800022283F8DD207B681B6819687B681B68D2
:101D28003A680A431A607B68012283F8DD207B68E1
:101D3800002283F8DC20002318460C37BD465DF8E6
:101D4800047B704780B485B000AF786039607B68E9
:101D58001B681B68FB60FB6823F00703FB603B689C
:101D68009B68FA681343FB60FB6823F01803FB6069
:101D78003B68DB68FA681343FB607B681B68FA689A
:101D88001A607B681B683A6812685A617B681B682E
:101D98003A6852689A6100BF1437BD465DF8047B03
:101DA800704780B487B000AFF860B9607A60FB68AC
:101DB8001A68BB680133DB0113441B687B617B69CC
:101DC80023F007037B617B689B687A6913437B6117
:101DD8007B6923F018037B617B68DB687A691343AE
:101DE8007B61FB681A68BB680133DB0113447A69BD
:101DF8001A60FB6819687B681A68BB68DB010B44CA
:101E080094331A60FB6819687B685A68BB68DB0101
:101E18000B4498331A6000BF1C37BD465DF8047B3D
:101E2800704780B485B000AF786039607B681B6804
:101E38001B68FB607B681B68D3F8A033BB60FB683A
:101E480023F02003FB603B685B69FA681343FB607F
:101E5800FB6823F0C003FB603B685B69202B03D061
:101E68003B689B69022B08D1FB6823F0C003FB6029
:101E7800FB6843F02003FB6021E03B689B69032B70
:101E880008D1FB6843F04003FB60FB6823F0800344
:101E9800FB6014E03B689B69042B08D1FB6843F0A6
:101EA8008003FB60FB6823F04003FB6007E0FB68EE
:101EB80023F02003FB60FB6823F0C003FB60FB6892
:101EC80023F40063FB603B68DB69FA681343FB603B
:101ED800FB6823F48063FB603B681B6AFA68134362
:101EE800FB60FB6823F0C063FB603B685B6AFA68D1
:101EF8001343FB60FB6823F00063FB603B689B6A4D
:101F0800FA681343FB60FB6823F04043FB603B68BF
:101F1800DB6A9B00FA681343FB60FB6823F00053FD
:101F2800FB603B685B6BFA681343FB60BB6823F498
:101F38008033BB603B681B6BBA681343BB607B682C
:101F48001B68FA681A607B681B68BA68C3F8A02324
:101F580000BF1437BD465DF8047B704780B48BB072
:101F680000AFF860B9607A60FB681A68BB68013333
:101F7800DB0113441B68FA68116823F07042BB68E0
:101F88000133DB010B441A60FB681A68BB68013334
:101F9800DB0113441B687B62FB681A68BB68DB01C2
:101FA8001344E8331B68BB61FB681A68BB68DB0134
:101FB8001344E4331B683B62FB681B68D3F8A03307
:101FC800FB617B6A23F020037B627B685B697A6A2A
:101FD80013437B627B685B69202B03D07B689B691A
:101FE800022B08D17B6A23F4C0737B627B6A43F0BF
:101FF80020037B6221E07B689B69032B08D17B6A05
:1020080043F080037B627B6A23F480737B6214E075
:102018007B689B69042B08D17B6A43F480737B62DD
:102028007B6A23F080037B6207E07B6A23F020034E
:102038007B627B6A23F4C0737B627B6A23F4006350
:102048007B627B68DB697A6A13437B627B6A23F471
:1020580080637B627B681B6A7A6A13437B627B6A54
:1020680023F0C0637B627B685B6A7A6A13437B6296
:102078007B6A23F000637B627B689B6A7A6A1343FE
:102088007B627B6A23F070437B627B68DB6A7A6AD7
:1020980013437B627B6A23F400337B627B685B6B50
:1020A800B3F1005F03D17B6A43F400337B627B6A40
:1020B80023F040037B627B689B6B7A6A13437B62E5
:1020C8007B6A23F480237B627B689B6D7A6A134367
:1020D8007B627B6A23F0FC7323F480337B627B682A
:1020E8001B6D7A6A13437B62BB6923F03F03BB61B4
:1020F8007B68DB6B03F03F03BA691343BB61BB69C1
:1021080023F00043BB617B681B6CBA691343BB6156
:102118003B6A23F480733B627B685B6C3A6A1343C7
:102128003B627B689B6CB3F5606F04D07B689B6CEB
:10213800B3F5F05F03D17B689B6B402B08D13B6AFA
:1021480023F4F0533B627B689B6C3A6A13433B620F
:102158003B6A23F480433B627B68DB6C3A6A134337
:102168003B627B685B6D7B61BB68052B50D801A225
:1021780052F823F095210008AB210008C12100087E
:10218800D7210008ED21000803220008FB6923F489
:102198000033FB617B681B6B5B00FA691343FB61CF
:1021A80037E0FB6923F48023FB617B681B6B9B0092
:1021B800FA691343FB612CE0FB6923F40023FB61FC
:1021C8007B681B6BDB00FA691343FB6121E0FB6949
:1021D80023F48013FB617B681B6B1B01FA691343B3
:1021E800FB6116E0FB6923F40013FB617B681B6B42
:1021F8005B01FA691343FB610BE0FB6923F480037D
:10220800FB617B681B6B9B01FA691343FB6100E070
:1022180000BFFB681A68BB680133DB0113447A6AA4
:102228001A60FB681A68BB68DB011344E833BA69B3
:102238001A60FB681A68BB68DB011344E4333A6A26
:102248001A60FB681A68BB68DB011344D4337A69E7
:102258001A60FB681B68FA69C3F8A02300BF2C3713
:10226800BD465DF8047B704780B487B000AFF86066
:10227800B9607A60FB681A68BB68DB011344EC3309
:102288001B687B617B6923F010037B617B681B689B
:102298001B017A6913437B617B6923F480137B619B
:1022A8007B685B687A6913437B617B6923F48033BD
:1022B8007B617B68DB687A6913437B617B6923F404
:1022C80000337B617B689B687A6913437B617B6819
:1022D8009B69012B1AD17B6923F004037B617B681E
:1022E8001B697A6913437B617B6923F002037B6175
:1022F8007B685B697A6913437B617B6923F001031F
:102308007B617B689B697A6913437B61FB681A6808
:10231800BB68DB011344EC337A691A6000BF1C37D1
:10232800BD465DF8047B704780B489B000AFF860A3
:10233800B9607A603B600023BB61FB681A68BB68C0
:10234800DB011344E4331B68FB61FB681A68BB6854
:10235800DB011344B8331B687B617B68B3F5006FFE
:1023680000F088807B68B3F5006F00F298807B6886
:10237800B3F5806F6BD07B68B3F5806F00F28F8008
:102388007B68B3F5007F75D07B68B3F5007F00F2FA
:1023980086807B68B3F5807F59D07B68B3F5807FF2
:1023A8007DD87B68802B65D07B68802B77D87B684D
:1023B800202B49D87B68002B71D07B68013B1F2BF1
:1023C8006DD801A252F823F0572400087D24000894
:1023D800A724000857240008A7240008A7240008F9
:1023E800A72400087D240008A7240008A7240008C3
:1023F800A7240008A7240008A7240008A724000889
:10240800A724000857240008A7240008A7240008C8
:10241800A7240008A7240008A7240008A724000868
:10242800A7240008A7240008A7240008A724000858
:10243800A7240008A7240008A7240008A724000848
:10244800A72400087D2400087B68402B27D1FB685F
:1024580019683B685A68BB68DB010B44BC331A60D7
:10246800FB6819683B689A68BB68DB010B44C0339A
:102478001A6015E0FB6819683B685A68BB68DB019D
:102488000B44C4331A60FB6819683B689A68BB68D8
:10249800DB010B44C8331A601023BB6100E000BFA6
:1024A800FE22BB6902FA03F3DB43FA691340FB61BE
:1024B8003B681A68BB6902FA03F3FA691343FB61C4
:1024C8003B68DA68BB6902FA03F3FA691343FB61F4
:1024D8003B681A69BB6902FA03F3FA691343FB61A3
:1024E8003B685A69BB6902FA03F3FA691343FB6153
:1024F8003B689A69BB6902FA03F3FA691343FB6103
:102508003B681B69082B11D17B6903F40073002B0E
:102518000CD17B6903F00073002B07D13B68DA69A3
:10252800BB6902FA03F3FA691343FB61FB681A6893
:10253800BB68DB011344E433FA691A6000BF24372F
:10254800BD465DF8047B704780B483B000AF786007
:1025580039603B68062B5ED801A252F823F000BF11
:102568009B250008B1250008C7250008DD250008BF
:10257800F325000809260008852500087B681B68E4
:10258800D3F884237B681B6842F00102C3F88423D4
:1025980042E07B681B68D3F884237B681B6842F0A1
:1025A8000202C3F8842337E07B681B68D3F88423CE
:1025B8007B681B6842F00402C3F884232CE07B6824
:1025C8001B68D3F884237B681B6842F00802C3F8B1
:1025D800842321E07B681B68D3F884237B681B680D
:1025E80042F01002C3F8842316E07B681B68D3F816
:1025F80084237B681B6842F02002C3F884230BE025
:102608007B681B68D3F884237B681B6842F0400210
:10261800C3F8842300E000BF00BF0C37BD465DF857
:10262800047B704780B485B000AF78607B68002B6E
:1026380041D14B4B1B6803F4C063B3F5806F31D1B4
:10264800474BD3F88030464A23F48073C2F8803071
:10265800434B1B6823F4C063414A43F4007313607F
:10266800404B1B68322202FB03F33F4AA2FB0323C1
:102678009B0C0133FB6002E0FB68013BFB60384BBD
:102688005B6903F48063B3F5806F02D1FB68002BAC
:10269800F2D1334B5B6903F48063B3F5806F58D193
:1026A800032357E02E4BD3F880302D4A23F4807350
:1026B800C2F880304DE07B68B3F5007F41D1284BEC
:1026C8001B6803F4C063B3F5806F31D1244BD3F892
:1026D8008030234A43F48073C2F88030204B1B6853
:1026E80023F4C0631E4A43F4007313601D4B1B6838
:1026F800322202FB03F31C4AA2FB03239B0C013387
:10270800FB6002E0FB68013BFB60154B5B6903F46F
:102718008063B3F5806F02D1FB68002BF2D1104BB8
:102728005B6903F48063B3F5806F12D1032311E072
:102738000B4BD3F880300A4A43F48073C2F88030D8
:1027480007E0074B1B6823F4C063054A43F4806322
:102758001360002318461437BD465DF8047B7047A4
:10276800007000409801002083DE1B4380B400AF56
:10277800054B9B68044A43F48043936000BFBD4601
:102788005DF8047B704700BF0070004080B588B0DA
:1027980000AF78607B68002B01D10123FEE27B68E3
:1027A8001B6803F00103002B75D0974B9B6803F05F
:1027B8000C03BB61944BDB6803F003037B61BB69CB
:1027C8000C2B02D17B69032B02D0BB69082B0BD1E0
:1027D8008D4B1B6803F40033002B5BD07B685B6870
:1027E800002B57D10123D9E27B685B68B3F5803FA2
:1027F80006D1854B1B68844A43F4803313601DE07F
:102808007B685B68B3F5A02F0CD17F4B1B687E4AB1
:1028180043F4802313607C4B1B687B4A43F480336A
:1028280013600BE0784B1B68774A23F480331360FE
:10283800754B1B68744A23F4802313607B685B68BC
:10284800002B13D0FEF7B2FA386108E0FEF7AEFAB3
:1028580002463B69D31A642B01D903239EE26A4BD3
:102868001B6803F40033002BF0D014E0FEF79EFA47
:10287800386108E0FEF79AFA02463B69D31A642BDE
:1028880001D903238AE2604B1B6803F40033002B51
:10289800F0D100E000BF7B681B6803F00203002B47
:1028A80075D0594B9B6803F00C03BB61564BDB6832
:1028B80003F003037B61BB690C2B02D17B69022BFC
:1028C80002D0BB69042B1FD14F4B1B6803F48063F4
:1028D800002B05D07B68DB68002B01D101235DE26A
:1028E800494B5B6823F0FE427B681B691B0646491F
:1028F80013434B60454B1B681846FEF70BFA03461B
:10290800002B43D0012349E27B68DB68002B23D0EE
:102918003D4B1B683C4A43F480731360FEF746FA4C
:10292800386108E0FEF742FA02463B69D31A022BE7
:1029380001D9032332E2344B1B6803F48063002B74
:10294800F0D0314B5B6823F0FE427B681B691B06A5
:102958002D4913434B601AE02B4B1B682A4A23F47A
:1029680080731360FEF722FA386108E0FEF71EFA5A
:1029780002463B69D31A022B01D903230EE2224BEC
:102988001B6803F48063002BF0D100E000BF7B6874
:102998001B6803F00803002B41D07B685B69002BA0
:1029A8001CD0194BD3F89430174A43F00103C2F8EE
:1029B8009430FEF7FBF9386108E0FEF7F7F90246B4
:1029C8003B69D31A022B01D90323E7E10E4BD3F855
:1029D800943003F00203002BEFD020E00A4BD3F829
:1029E8009430094A23F00103C2F89430FEF7DEF967
:1029F80038610DE0FEF7DAF902463B69D31A022B7B
:102A080006D90323CAE100BF001002409C01002040
:102A18008C4BD3F8943003F00203002BEAD17B6887
:102A28001B6803F00403002B00F0A6800023FB774B
:102A3800844B9B6D03F08053002B01D1012300E0F0
:102A48000023002B0DD07F4B9B6D7E4A43F08053B3
:102A580093657C4B9B6D03F08053FB60FB680123FF
:102A6800FB77794B1B6803F48073002B18D1764BE6
:102A78001B68754A43F480731360FEF797F9386151
:102A880008E0FEF793F902463B69D31A022B01D9F5
:102A9800032383E16C4B1B6803F48073002BF0D095
:102AA8007B689B68012B08D1664BD3F89030654A48
:102AB80043F00103C2F8903024E07B689B68052B43
:102AC80010D1604BD3F890305E4A43F00403C2F84B
:102AD80090305C4BD3F890305A4A43F00103C2F867
:102AE80090300FE0574BD3F89030564A23F001034B
:102AF800C2F89030534BD3F89030524A23F0040375
:102B0800C2F890307B689B68002B16D0FEF74EF910
:102B180038610AE0FEF74AF902463B69D31A41F2E6
:102B28008832934201D9032338E1464BD3F89030D9
:102B380003F00203002BEDD015E0FEF737F93861FA
:102B48000AE0FEF733F902463B69D31A41F28832AC
:102B5800934201D9032321E13A4BD3F8903003F093
:102B68000203002BEDD1FB7F012B05D1354B9B6D6B
:102B7800344A23F0805393657B681B6803F0200375
:102B8800002B3CD07B689B69002B1CD02D4BD3F8C5
:102B980098302C4A43F00103C2F89830FEF706F942
:102BA800386108E0FEF702F902463B69D31A022BA6
:102BB80001D90323F2E0234BD3F8983003F0020342
:102BC800002BEFD01BE01F4BD3F898301D4A23F0A1
:102BD8000103C2F89830FEF7E9F8386108E0FEF71B
:102BE800E5F802463B69D31A022B01D90323D5E045
:102BF800144BD3F8983003F00203002BEFD17B6815
:102C0800DB69002B00F0C9800E4B9B6803F00C03B6
:102C18000C2B00F083807B68DB69022B5ED1094BAB
:102C28001B68084A23F080731360FEF7BFF8386109
:102C38000CE0FEF7BBF802463B69D31A022B05D914
:102C48000323ABE00010024000700040554B1B68A6
:102C580003F00073002BECD1524BDA68524B13404F
:102C68007A68116A7A68526A013A120111437A68DD
:102C7800926A120211437A68126B5208013A52059D
:102C880011437A68526B5208013A520611437A6826
:102C9800D26AD2060A4343491343CB60414B1B68AF
:102CA800404A43F0807313603E4BDB683D4A43F073
:102CB8008073D360FEF77AF8386108E0FEF776F89B
:102CC80002463B69D31A022B01D9032366E0354B30
:102CD8001B6803F00073002BF0D05EE0314B1B68DB
:102CE800304A23F080731360FEF760F8386108E01B
:102CF800FEF75CF802463B69D31A022B01D903237D
:102D08004CE0284B1B6803F00073002BF0D1254BD7
:102D1800DA682449254B1340CB603EE07B68DB69C9
:102D2800012B01D1012339E01E4BDB687B617B69F4
:102D380003F003027B681B6A9A422CD17B6903F07B
:102D4800F0027B685B6A013B1B019A4223D17B69D5
:102D580003F4FE427B689B6A1B029A421BD17B6983
:102D680003F078427B68DB6ADB069A4213D17B6901
:102D780003F4C0027B681B6B5B08013B5B059A424E
:102D880009D17B6903F0C0627B685B6B5B08013B20
:102D98005B069A4201D0012300E000231846203741
:102DA800BD4680BD001002400C809F01FCFFEEFE76
:102DB80080B586B000AF7860396000237B617B689E
:102DC800002B01D101231EE1914B1B6803F00F0377
:102DD8003A689A4210D98E4B1B6823F00F028C492F
:102DE8003B6813430B608A4B1B6803F00F033A6878
:102DF8009A4201D0012306E17B681B6803F00103B6
:102E0800002B73D07B685B68032B29D1814B1B682F
:102E180003F00073002B01D10123F4E000F066F900
:102E280038613B697C4A93423FD97A4B9B6803F0EF
:102E3800F003002B09D07B681B6803F00203002B0A
:102E480033D07B689B68002B2FD1724B9B6823F093
:102E5800F003704A43F08003936080237B6124E091
:102E68007B685B68022B07D16A4B1B6803F400334D
:102E7800002B09D10123C6E0664B1B6803F480636D
:102E8800002B01D10123BEE000F0CEF838613B6988
:102E9800614A934209D95F4B9B6823F0F0035D4A6E
:102EA80043F08003936080237B615A4B9B6823F037
:102EB80003027B685B68574913438B60FDF776FF15
:102EC800F8600AE0FDF772FF0246FB68D31A41F288
:102ED8008832934201D9032395E04E4B9B6803F057
:102EE8000C027B685B689B009A42EBD17B681B688D
:102EF80003F00203002B23D07B681B6803F0040354
:102F0800002B05D0434B9B68424A43F4E06393602F
:102F18007B681B6803F00803002B07D03D4B9B68B8
:102F280023F47C533B4A43F4E0639360394B9B683A
:102F380023F0F0027B689B68364913438B6008E0F6
:102F48007B69802B05D1334B9B68324A23F0F00311
:102F580093602F4B1B6803F00F033A689A421DD207
:102F68002B4B1B6823F00F0229493B6813430B6066
:102F7800FDF71CFFF8600AE0FDF718FF0246FB6842
:102F8800D31A41F28832934201D903233BE0204B04
:102F98001B6803F00F033A689A42EDD17B681B68FF
:102FA80003F00403002B08D01A4B9B6823F4E0625B
:102FB8007B68DB68174913438B607B681B6803F0E9
:102FC8000803002B09D0134B9B6823F460527B68DD
:102FD8001B69DB000F4913438B6000F025F802469C
:102FE8000C4B9B681B0903F00F030C49CB5C03F0E7
:102FF8001F0322FA03F30A4A13600A4B1B68184698
:10300800FDF788FE034618461837BD4680BD00BF49
:10301800002002400010024000B4C404B439000883
:10302800980100209C01002080B487B000AF2C4B91
:103038009B6803F00C03042B02D12A4B3B6147E049
:10304800274B9B6803F00C03082B02D1264B3B61EE
:103058003EE0234B9B6803F00C030C2B36D1204B2E
:10306800DB6803F00303FB601D4BDB681B0903F0FF
:103078000F030133BB60FB68032B0CD11A4ABB68F2
:10308800B2FBF3F3164AD268120A02F07F0202FB7F
:1030980003F37B610CE0134ABB68B2FBF3F3104AFD
:1030A800D268120A02F07F0202FB03F37B6100BFC1
:1030B8000B4BDB685B0E03F0030301335B007B60A3
:1030C8007A697B68B2FBF3F33B6101E000233B6163
:1030D8003B6918461C37BD465DF8047B704700BF46
:1030E800001002400024F40000366E0180B487B05E
:1030F80000AF1E4BDB6803F003033B611B4BDB682F
:103108001B0903F00F030133FB603B69032B0CD150
:10311800174AFB68B2FBF3F3144AD268120A02F0AA
:103128007F0202FB03F37B610CE0124AFB68B2FBEF
:10313800F3F30E4AD268120A02F07F0202FB03F38D
:103148007B6100BF094BDB685B0E03F003030133AF
:103158005B00BB607A69BB68B2FBF3F37B607B689A
:1031680018461C37BD465DF8047B704700100240C6
:1031780000366E010024F40080B582B000AF78609C
:103188007B68002B01D1012349E07B6893F83D302F
:10319800DBB2002B06D17B68002283F83C207868DC
:1031A800FDF750FD7B68022283F83D207B681A6892
:1031B8007B6804331946104600F030FA7B68012218
:1031C80083F848207B68012283F83E207B6801222F
:1031D80083F83F207B68012283F840207B68012226
:1031E80083F841207B68012283F842207B68012212
:1031F80083F843207B68012283F844207B680122FE
:1032080083F845207B68012283F846207B680122E9
:1032180083F847207B68012283F83D200023184665
:103228000837BD4680BD000080B485B000AF786027
:103238007B6893F83D30DBB2012B01D0012354E0C9
:103248007B68022283F83D207B681B68DA687B680C
:103258001B6842F00102DA607B681B68264A9342C9
:1032680022D07B681B68B3F1804F1DD07B681B6838
:10327800224A934218D07B681B68214A934213D094
:103288007B681B681F4A93420ED07B681B681E4AE6
:10329800934209D07B681B681C4A934204D07B6820
:1032A8001B681B4A934215D17B681B689A68194BA7
:1032B8001340FB60FB68062B15D0FB68B3F5803F15
:1032C80011D07B681B681A687B681B6842F0010292
:1032D8001A6008E07B681B681A687B681B6842F004
:1032E80001021A6000E000BF002318461437BD46EB
:1032F8005DF8047B704700BF002C014000040040CB
:1033080000080040000C004000340140004001402B
:10331800005001400700010080B584B000AF78601C
:103328007B681B68DB68FB607B681B681B69BB608C
:10333800BB6803F00203002B20D0FB6803F00203F4
:10334800002B1BD07B681B686FF002021A617B6838
:1033580001221A777B681B689B6903F00303002B23
:1033680003D0786800F03BF905E0786800F02DF9A3
:10337800786800F03EF97B6800221A77BB6803F092
:103388000403002B20D0FB6803F00403002B1BD0A0
:103398007B681B686FF004021A617B6802221A7747
:1033A8007B681B689B6903F44073002B03D0786823
:1033B80000F015F905E0786800F007F9786800F082
:1033C80018F97B6800221A77BB6803F00803002B02
:1033D80020D0FB6803F00803002B1BD07B681B6818
:1033E8006FF008021A617B6804221A777B681B68F1
:1033F800DB6903F00303002B03D0786800F0EFF8D3
:1034080005E0786800F0E1F8786800F0F2F87B6889
:1034180000221A77BB6803F01003002B20D0FB684A
:1034280003F01003002B1BD07B681B686FF01002A1
:103438001A617B6808221A777B681B68DB6903F4CA
:103448004073002B03D0786800F0C9F805E078686D
:1034580000F0BBF8786800F0CCF87B6800221A7797
:10346800BB6803F00103002B0CD0FB6803F00103D9
:10347800002B07D07B681B686FF001021A6178681F
:1034880000F099F8BB6803F08003002B04D1BB68F7
:1034980003F40053002B0CD0FB6803F08003002BCF
:1034A80007D07B681B686FF402521A61786800F0D5
:1034B80009FABB6803F48073002B0CD0FB6803F097
:1034C8008003002B07D07B681B686FF480721A6139
:1034D800786800F001FABB6803F04003002B0CD0B9
:1034E800FB6803F04003002B07D07B681B686FF074
:1034F80040021A61786800F086F8BB6803F0200380
:10350800002B0CD0FB6803F02003002B07D07B684E
:103518001B686FF020021A61786800F0C9F9BB686F
:1035280003F48013002B0CD0FB6803F48013002BEA
:1035380007D07B681B686FF480121A61786800F006
:10354800D5F9BB6803F40013002B0CD0FB6803F417
:103558000013002B07D07B681B686FF400121A61F8
:10356800786800F0CDF9BB6803F48003002B0CD019
:10357800FB6803F48003002B07D07B681B686FF49B
:1035880080021A61786800F0C5F9BB6803F400038B
:10359800002B0CD0FB6803F40003002B07D07B68DA
:1035A8001B686FF400021A61786800F0BDF900BF6B
:1035B8001037BD4680BD80B483B000AF786000BFCF
:1035C8000C37BD465DF8047B704780B483B000AF0C
:1035D800786000BF0C37BD465DF8047B704780B447
:1035E80083B000AF786000BF0C37BD465DF8047B40
:1035F800704780B483B000AF786000BF0C37BD4619
:103608005DF8047B704780B483B000AF786000BF7A
:103618000C37BD465DF8047B7047000080B485B068
:1036280000AF786039607B681B68FB607B684C4A38
:10363800934217D07B68B3F1804F13D07B68494A17
:1036480093420FD07B68484A93420BD07B68474A25
:10365800934207D07B68464A934203D07B68454A29
:10366800934208D1FB6823F07003FB603B685B68FA
:10367800FA681343FB607B68394A934223D07B681E
:10368800B3F1804F1FD07B68364A93421BD07B68CA
:10369800354A934217D07B68344A934213D07B68EB
:1036A800334A93420FD07B68334A93420BD07B68EE
:1036B800324A934207D07B68314A934203D07B68F1
:1036C8002C4A934208D1FB6823F44073FB603B68A3
:1036D800DB68FA681343FB60FB6823F080023B68F1
:1036E8005B691343FB607B68FA681A603B689A68F9
:1036F8007B68DA623B681A687B689A627B68184A5A
:10370800934213D07B681A4A93420FD07B681A4AB7
:1037180093420BD07B68194A934207D07B68184ABA
:10372800934203D07B68134A934203D13B681A69DA
:103738007B681A637B6801225A617B681B6903F006
:103748000103012B05D17B681B6923F001027B680B
:103758001A6100BF1437BD465DF8047B704700BF8F
:10376800002C01400004004000080040000C00400C
:103778000034014000500140004001400044014035
:103788000048014080B485B000AF786039607B683C
:1037980093F83C30012B01D1022374E07B680122AD
:1037A80083F83C207B68022283F83D207B681B68F5
:1037B8005B68FB607B681B689B68BB607B681B68F9
:1037C800344A934209D07B681B68334A934204D039
:1037D8007B681B68314A934208D1FB6823F4700365
:1037E800FB603B685B68FA681343FB60FB6823F087
:1037F800007323F07003FB603B681B68FA6813438F
:10380800FB607B681B68FA685A607B681B68214A02
:10381800934222D07B681B68B3F1804F1DD07B6830
:103828001B681F4A934218D07B681B681D4A934245
:1038380013D07B681B681C4A93420ED07B681B68B8
:10384800154A934209D07B681B68184A934204D0F2
:103858007B681B68114A93420CD1BB6823F0800334
:10386800BB603B689B68BA681343BB607B681B6896
:10387800BA689A607B68012283F83D207B68002241
:1038880083F83C20002318461437BD465DF8047BB6
:10389800704700BF002C0140003401400050014037
:1038A8000004004000080040000C004000400140B7
:1038B80080B483B000AF786000BF0C37BD465DF8B8
:1038C800047B704780B483B000AF786000BF0C37CA
:1038D800BD465DF8047B704780B483B000AF786064
:1038E80000BF0C37BD465DF8047B704780B483B0D9
:1038F80000AF786000BF0C37BD465DF8047B7047A9
:1039080080B483B000AF786000BF0C37BD465DF867
:10391800047B704780B483B000AF786000BF0C3779
:10392800BD465DF8047B704780B483B000AF786013
:1039380000BF0C37BD465DF8047B704770B50D4D70
:103948000D4C641BA4100026A64209D10B4D0C4C4B
:1039580000F020F8641BA4100026A64205D170BD13
:1039680055F8043B98470136EEE755F8043B98476D
:103978000136F2E7C4390008C4390008C439000820
:10398800C839000802440346934200D1704703F83F
:10399800011BF9E7F8B500BFF8BC08BC9E467047A4
:0C39A800F8B500BFF8BC08BC9E46704794
:1039B40000000000000000000102030406070809DB
:0439C400FD010008F9
:0439C800D901000819
:1039CC003333333F00D08445000000005198803DD4
:1039DC005B57003EE3E03F3E90A87E3E7A379E3E2A
:1039EC00D27ABC3EBEFFD93E6BA8F63EF22B093F05
:1039FC001879163F382E233F7B3E2F3FB09D3A3F20
:103A0C005B40453FBD1B4F3FE025583FA255603FF3
:103A1C00BFA2673FD5056E3F7178733F11F5773FB5
:103A2C002D777B3F3BFB7D3FAE7E7F3F0000803F91
:103A3C00AE7E7F3F3BFB7D3F2D777B3F11F5773F84
:103A4C007178733FD5056E3FBFA2673FA255603FAB
:103A5C00E025583FBD1B4F3F5B40453FB09D3A3F73
:103A6C007B3E2F3F382E233F1879163FF22B093F10
:103A7C006BA8F63EBEFFD93ED27ABC3E7A379E3E4C
:103A8C0090A87E3EE3E03F3E5B57003E5198803D60
:103A9C0000000000519880BD5B5700BEE3E03FBEC4
:103AAC0090A87EBE7A379EBED27ABCBEBEFFD9BE6F
:103ABC006BA8F6BEF22B09BF187916BF382E23BFA0
:103ACC007B3E2FBFB09D3ABF5B4045BFBD1B4FBF78
:103ADC00E02558BFA25560BFBFA267BFD5056EBF1A
:103AEC00717873BF11F577BF2D777BBF3BFB7DBF23
:103AFC00AE7E7FBF000080BFAE7E7FBF3BFB7DBF35
:103B0C002D777BBF11F577BF717873BFD5056EBF6D
:103B1C00BFA267BFA25560BFE02558BFBD1B4FBFFA
:103B2C005B4045BFB09D3ABF7B3E2FBF382E23BFB5
:103B3C00187916BFF22B09BF6BA8F6BEBEFFD9BE13
:103B4C00D27ABCBE7A379EBE90A87EBEE3E03FBE62
:103B5C005B5700BE519880BD0024F400100000009B
:043B6C000100000054
:0400000508000C994A
:00000001FF
